:100000000C94B5000C9443030C94D2000C94D200D1
:100010000C94D2000C94D2000C94D2000C94D20018
:100020000C94D2000C94D4000C94D2000C94D20006
:100030000C94D2000C94E5000C94D2000C94D200E5
:100040000C94F5000C94D2000C9443010C946201C2
:100050000C94D2000C94D2000C94D2000C94D200D8
:100060000C94D2000C94D2006E616E00696E660032
:1000700000407A10F35A00A0724E18090010A5D45F
:10008000E80000E87648170000E40B54020000CABC
:100090009A3B000000E1F505000080969800000002
:1000A00040420F000000A086010000001027000061
:1000B0000000E803000000006400000000000A00E7
:1000C000000000000100000000002C76D888DC67EA
:1000D0004F0823DFC1DFAE59E1B1B796E5E3E45342
:1000E000C63AE651997696E8E6C28426EB898C9B5F
:1000F00062ED407C6FFCEFBC9C9F40F2BAA56FA5FF
:10010000F490055A2AF75C936B6CF9676DC11BFC80
:10011000E0E40D47FEF520E6B500D0ED902E03009B
:10012000943577050080841E080000204E0A0000E8
:1001300000C80C333333330F986E12831141EF8DA7
:100140002114893BE65516CFFEE6DB18D1844B38E7
:100150001BF77C1D901DA4BBE424203284725E2218
:100160008100C9F124ECA1E53D2711241FBECFEF8A
:10017000D4E0DEBFCDBF11E0A0E0B1E0ECE3FEE1F2
:1001800002C005900D92AE3BB107D9F712E0AEEB7D
:10019000B1E001C01D92A432B107E1F70E94A404AE
:1001A0000C941C0F0C9400001F920F920FB60F922C
:1001B00011248F938091B6018F5F8093B6018F9148
:1001C0000F900FBE0F901F9018951F920F920FB6B1
:1001D0000F921124109281001092850010928400D9
:1001E0000F900FBE0F901F9018951F920F920FB691
:1001F0000F9211242F933F934F938F939F93EF93DD
:10020000FF938091C601282F2F5F2093C601809114
:10021000C501382F3F5F3093C5014091F70143304E
:1002200049F4822F90E007972CF0E8E2F0E080811B
:1002300088608083822F90E00B973CF01092C6017B
:10024000E8E2F0E08081877F8083423039F43937FB
:1002500028F0EBE2F0E080818F7E8083383838F040
:100260001092C501EBE2F0E0808180618083FF9114
:10027000EF919F918F914F913F912F910F900FBED2
:100280000F901F9018951F920F920FB60F92112486
:100290008F93EF93FF938091C600E091C901F0E046
:1002A000EF71F070EA52FE4F80838091C9018F5F39
:1002B0008093C901FF91EF918F910F900FBE0F9026
:1002C0001F9018951F920F920FB60F9211248F93C3
:1002D0009F93EF93FF939091F6018091F901981706
:1002E00081F0E091F901F0E0EF71F070E650FE4F1F
:1002F00080818093C6008091F9018F5F8093F9011E
:1003000005C0E1ECF0E080818F7D8083FF91EF916B
:100310009F918F910F900FBE0F901F901895809115
:10032000F6019091F901891B08951F93CF93DF93F4
:10033000182FC0E2D0E00E948F019E01281B3109D6
:1003400023303105C4F3E091F601F0E0EF71F07075
:10035000E650FE4F10838091F6018F5F8093F60187
:10036000E1ECF0E080818062808380E090E0DF91CA
:10037000CF911F9108958091C9019091F801891B37
:1003800008950E94BB018823E1F3E091F801F0E0B9
:10039000EF71F070EA52FE4F80819091F8019F5FFB
:1003A0009093F80190E0089522273327281B390BFA
:1003B00012F4215F3F4FC9019595879595958795D3
:1003C00095958795959587959C01220F331F880FEA
:1003D000991F880F991F880F991F280F391F205CBC
:1003E0003E4F822F932F08958091D4019091D50193
:1003F0002091CE013091CF01821B930B880F991F62
:10040000880F991F880F991F2091C2013091C30155
:10041000820F931F880F991F63E070E00E94950B75
:10042000862F972F6093C2017093C3010895482FC0
:10043000592F8091CA019091CB01892BE1F4E4ED11
:10044000F1E040835183DF0112974C9311965C9346
:10045000DF0114974C9311965C93DF0116974C9330
:1004600011965C93DF0118974C9311965C933A9721
:10047000408351830895EAECF1E024ED31E082817C
:10048000938181939193E217F307C9F7242F352FB6
:100490003093D5012093D4018091D2019091D30162
:1004A000281B390BC901880F991F220F331F220FF8
:1004B000331F220F331F820F931F6091C70170916A
:1004C000C8019B01220F331FA901440F551F440F80
:1004D000551F440F551F240F351F260F371F820F3E
:1004E000931F64E170E00E94950B7093C8016093C4
:1004F000C7010895A2EDB1E0FD01219131918091F4
:10050000CC019091CD01281B390BC901880F991F8F
:10051000880F991F820F931F1897408151812D9149
:100520003C911197421B530B9A01220F331F240F4A
:10053000351F820F931F16964D915C911797149655
:100540002D913C911597421B530B9A01220F331F9B
:10055000240F351FA901440F551F440F551F240FA9
:10056000351F820F931F69E070E00E94950B862F64
:10057000972F08952091D4013091D5018091D20117
:100580009091D301281B390B822F932F0895E5E218
:10059000F0E020812068208364E170E00E94810BFC
:1005A000862F972F009761F020E030E048E853E174
:1005B000FA013197F1F72F5F3F4F28173907C0F342
:1005C000E5E2F0E080818F7780830895F894A89524
:1005D000833089F0843028F4813041F0823071F525
:1005E00014C0843069F0863049F51CC088E790E07B
:1005F0000E94C70223C08AEF90E00E94C7021EC07B
:1006000082E593E00E94C70219C080E590E00E9455
:10061000C70280E29EE40197F1F780E590E00E9436
:10062000C7020CC084E690E00E94C70288EC9FEAF3
:100630000197F1F78EE591E00E94C7027894089542
:100640001F93182F882371F08091C101181721F092
:1006500080E091E00E94610DE5E2F0E0808180643D
:1006600080830DC08091C101882321F08EE091E04C
:100670000E94610DE5E2F0E080818F7B8083109322
:10068000C1011F9108951F920F920FB60F9211246E
:100690002F933F934F935F936F937F938F939F938A
:1006A000AF93BF93EF93FF938091850020918400D7
:1006B0009091C401892B822B09F06DC081E0809359
:1006C000C401A8951DBA789420E030E040E050E0E5
:1006D000E9E2F0E0808182FF02C04F5F5F4F2F5F51
:1006E0003F4F83E0283E3807A9F7483C510508F002
:1006F0004DC081E08093840082E0809381008091EE
:10070000F701882309F03CC081E08093F7010E9443
:100710002003EBE2F0E0808180618083808188604B
:1007200080834A9916C020E030E044EC59E0E9E2C9
:10073000F0E02F5F3F4FCA010197F1F7808182FD02
:1007400005C081E02C323807A1F707C02C52314098
:1007500020F481E08093F70119C082E08093F701D3
:100760008DE191E00E94610DEBE2F0E080818F7EEF
:10077000808380818860808386E00E94E60206C0D4
:1007800089E391E00E94610D1092F70181E08CBB3A
:100790008DBB1092C401FF91EF91BF91AF919F91DA
:1007A0008F917F916F915F914F913F912F910F901A
:1007B0000FBE0F901F9018951F93CF93DF93182FA4
:1007C00084EB0E947706882329F5812F0E94E50695
:1007D000882301F585EB0E94AE06882319F085EB8E
:1007E0000E94AE060E940207182F0E940207382FAF
:1007F00020E0E901C10FD11D0E9402070E942C07D1
:10080000DD2344F0CE0165E070E00E94810B6B5A5D
:100810007A4002C066E970E0862F972FDF91CF9172
:100820001F910895CF92DF92EF92FF920F931F9343
:1008300000D08EE391E0ADB7BEB712969C938E9335
:1008400011970E94450D00D0EDB7FEB731960F2EDF
:10085000F5E4EF2EF1E0FF2EF02DF182E0820F2E75
:10086000FAECCF2EF1E0DF2EF02DD6018D919D9187
:100870008D01938382830E94450DEDB7FEB73196BB
:10088000F182E082D8018D919C91938382830E94B2
:10089000450DEDB7FEB73196F182E082D601149690
:1008A0008D919C911597938382830E94450DEDB79E
:1008B000FEB73196F182E082D60116968D919C9119
:1008C0001797938382830E94450DEDB7FEB731964B
:1008D000F182E082D60118968D919C9119979383AD
:1008E00082830E94450DEDB7FEB73196F182E0821A
:1008F000D6011A968D919C911B97938382830E94B7
:10090000450D0F900F900F900F908AE090E00E949D
:100910005A0D1F910F91FF90EF90DF90CF900895A7
:100920008CE090E09093C5008093C40088E98093A8
:10093000C10086E08093C20085E991E061EC71E03E
:100940000E94CD0C789408952F923F924F925F921F
:100950006F927F928F929F92AF92BF92CF92DF92CF
:10096000EF92FF920F931F93DF93CF9300D000D0AD
:10097000CDB7DEB780EC84B988E087B988E18AB961
:100980008FE385B987EF88B90BE210E087EEF801B5
:10099000808380916400A89529E288E190E00FB6F9
:1009A000F894A895809360000FBE209360000E9489
:1009B00090040E9470061092B60187E08093B10007
:1009C00091E09093700014BC83E085BD90936E001D
:1009D00010928000109281001092820090936F001C
:1009E00082E0809369009DBB89E491E00E94610DE3
:1009F000F8018081806180838081877F808380E0AF
:100A00000E9420031092F70178948824992400E032
:100A1000FFEFFA830F2EF3E06F2EF02D772419826B
:100A20000F2EFBE2AF2EBB24F02D222433240F2EF9
:100A3000F8EA4F2EF1E65F2EF02D4091B6014031DD
:100A40000CF405C1A895C401602F70E00E94950BBD
:100A5000862F972F9C838B831092B601892B61F48C
:100A600000D082E591E0EDB7FEB7928381830E94CA
:100A7000450D0F900F90BBC06620B9F000D000D09C
:100A8000EDB7FEB731968FE591E091838083628266
:100A900013820E94450D6A940F900F900F900F9053
:100AA00087E00E94DC039C838B8300D000D0EDB7ED
:100AB000FEB731968BE691E0918380838B819C8198
:100AC000938382830E94450D0F900F900F900F909B
:100AD0008B819C810E9417020E947A024C0186E061
:100AE0000E94DC038B819C810E94D401E9810E2F3E
:100AF000112707FD10956801C80ED91E0E94F40148
:100B00007C018DB79EB708970FB6F8949EBF0FBEB5
:100B10008DBFEDB7FEB7319686E791E09183808374
:100B2000D382C282F582E482178306830E94450D38
:100B3000EDB7FEB738960FB6F894FEBF0FBEEDBF07
:100B4000CE14DF040CF052C0739400D000D0EDB787
:100B5000FEB7319681E991E091838083728213829E
:100B60000E94450D0F900F900F900F908091F7010C
:100B7000823041F493E07916D1F581E00E94E602DB
:100B8000772435C00E94BA02181619066CF5E8E001
:100B9000E71528F08B819C8189509240BCF0F3E0EE
:100BA000F093BE018091F701813019F0772483E042
:100BB00022C084E00E94E6028B819C81845F914088
:100BC000ACF4F981FC5EF983772411C024E0271589
:100BD00010F470FC05C08B819C81855F91403CF0D6
:100BE00083E00E94E60203C099200CF477248091F0
:100BF000BE01882301F181508093BE018091F701ED
:100C0000813019F4F3E0F093F70100D000D0EDB794
:100C1000FEB7319683EA91E0918380838091BE0193
:100C2000828313820E94450D410100E00F900F90D6
:100C30000F900F901FC08091F701833019F0410190
:100C400000E018C01092F701410100E01EC0242FFF
:100C5000332727FD3095EA818E2F90E0281739073A
:100C600049F04A83003130F40F5F87E00E94DC03D3
:100C7000880E991E8091F7018130A9F0813028F00B
:100C80008230A9F0833031F51AC080E00E94200341
:100C9000F5018081806180838081877F80831092CD
:100CA000BE01772419C0F50180818061808381E0D5
:100CB0000E942003F5018081886080830DC080E060
:100CC0000E942003F50180818F7E8083808188606F
:100CD000808302C01092F701C2010197F1F7ADCEF7
:100CE000E8EBF0E088E480838AE080830895982F21
:100CF000ECEBF0E0108284EA808320E137E205C06B
:100D00002115310549F12150304080818823C4F7F5
:100D10008091B900887F8830F9F49093BB0084E813
:100D20008093BC0020E137E2ECEBF0E005C0211538
:100D3000310591F02150304080818823C4F78091A3
:100D4000B900982F987F983111F480E0089580E0E1
:100D5000903419F081E0089581E00895982F84EA95
:100D60008093BC0020E137E2ECEBF0E005C02115F8
:100D7000310549F12150304080818823C4F78091AA
:100D8000B900887F8031F9F49093BB0084E88093A8
:100D9000BC0020E137E2ECEBF0E005C021153105A5
:100DA00091F02150304080818823C4F78091B900B0
:100DB000982F987F983111F480E0089580E0903466
:100DC00019F081E0089581E008958093BB0084E8E4
:100DD0008093BC0020E137E2ECEBF0E007C0211586
:100DE000310511F491E00CC02150304080818823FE
:100DF000B4F78091B90090E0887F883209F091E0E3
:100E0000892F089584EC8093BC0020E137E2ECEB5D
:100E1000F0E007C02115310511F481E0089521505B
:100E2000304080818823B4F78091BB00089584E826
:100E30008093BC0020E137E2ECEBF0E007C0211525
:100E4000310511F481E008952150304080818823DC
:100E5000B4F78091BB00089584E98093BC000895A5
:100E6000CF92DF92EF92FF920F931F93CF93DF9376
:100E7000182F062F7A0169010E947706882321F531
:100E8000802F0E94E506812F81600E9477068823CB
:100E9000D9F486010150104061F0C0E0D0E00E941A
:100EA0000207F701EC0FFD1F80832196C017D107C1
:100EB000B0F30E941707F701EC0DFD1D31978083F9
:100EC0000E942C0780E001C081E0DF91CF911F914B
:100ED0000F91FF90EF90DF90CF900895DF92EF9207
:100EE000FF920F931F93CF93DF93D62E7A01890140
:100EF0000E9477068823C1F48D2D0E94E506011516
:100F0000110571F0C0E0D0E0F701EC0FFD1F80810A
:100F10000E94E506882341F42196C017D107A0F36B
:100F20000E942C0780E001C081E0DF91CF911F91EA
:100F30000F91FF90EF90DF900895CF92DF92EF92A4
:100F4000FF920F931F93CF93DF937B016A01816020
:100F50000E947706882311F081E01AC086010150B3
:100F6000104061F0C0E0D0E00E940207F701EC0FF2
:100F7000FD1F80832196C017D107B0F30E94170789
:100F8000F701EC0DFD1D319780830E942C0780E056
:100F9000DF91CF911F910F91FF90EF90DF90CF9055
:100FA0000895EF92FF920F931F93CF93DF937B01EE
:100FB0008A010E9477068823A9F40115110571F0B2
:100FC000C0E0D0E0F701EC0FFD1F80810E94E50634
:100FD000882341F42196C017D107A0F30E942C0763
:100FE00080E001C081E0DF91CF911F910F91FF90D0
:100FF000EF900895A1E1B0E0E0E0F8E00C94A80BD8
:101000003C017F876E876A01FC011782168283810B
:1010100081FD03C06FEF7FEF6FC39E012F5F3F4FD6
:10102000398B288BF3012381EE85FF8523FD859184
:1010300023FF8191FF87EE87882309F45AC3853205
:1010400051F4EE85FF8523FD859123FF8191FF8774
:10105000EE87853229F490E0B3010E94190DE2CFAA
:10106000982F10E0882499241032B0F49B3269F054
:101070009C3228F4903251F0933271F40BC09D32BF
:1010800039F0903349F4116028C01260146025C013
:10109000186023C0106121C017FD2AC0892F80531A
:1010A0008A3078F416FF06C0FAE09F9E902C112437
:1010B000980E13C03AE0839E802C1124880E106293
:1010C0000CC09E3221F416FD14C3106406C09C3679
:1010D00011F4106802C0983659F4EE85FF8523FD9F
:1010E000959123FF9191FF87EE87992309F0BCCF5B
:1010F000892F8554833020F4812F8061905E07C052
:10110000892F8556833008F09FC1812F8F7E86FD01
:1011100002C076E0972E6FE3F62EF822953619F48A
:10112000F0E4FF2A07C0963619F420E8F22A02C03C
:1011300091109A94F7FE0AC03BE3391518F45CE36A
:10114000B52E02C0B92CB39427E009C047E0491579
:1011500020F4BB2447E0942EF7CF292DBB24C601F1
:1011600004969D878C87F6016081718182819381CD
:10117000AE014F5F5F4F0B2D0E94DF0B6C010981A9
:10118000202E332400FF04C003FD02C01DE209C06D
:10119000F1FE02C01BE205C0F2FC02C010E001C07B
:1011A00010E2C1018C709070892BB9F1112311F4F8
:1011B00083E001C084E0881510F088240AC0881AF2
:1011C000F3FC07C080E290E0B3010E94190D8A94FD
:1011D000C9F7112329F0812F90E0B3010E94190D66
:1011E00023FE03C008E610E00EC00CE610E00BC0C2
:1011F000E114F10409F0805290E0B3010E94190D4E
:101200000F5F1F4F05C0EF2CFF24F0E1EF22FF24FA
:10121000F8018491882361F714C1F7FE12C0BC0C59
:1012200024FE04C08A81813309F4BA941B141CF093
:10123000BB24B3942DC0F8E0FB1550F538E0B32E75
:1012400027C0F6FC25C0892D90E08C159D054CF03B
:101250002CEFC2162FEFD20624F030E8F32A01C09B
:101260009A94992049F0E2E0F0E0EC0FFD1FE90DBF
:10127000F11D80818033A1F3F7FE0AC0B92CB3942D
:10128000892D90E0C816D90614F0992401C09C1845
:10129000F7FC03C025E030E009C01C141D041CF05D
:1012A00021E030E003C096012F5F3F4F112311F082
:1012B0002F5F3F4F992029F0892D90E00196280F4C
:1012C000391F882D90E02817390714F0882401C0B1
:1012D000821A4F2C5524C20189709070892B39F0E5
:1012E00008C080E290E0B3010E94190D8A94882022
:1012F000C1F7112329F0812F90E0B3010E94190D4D
:1013000043FE07C008C080E390E0B3010E94190DBE
:101310008A948820C1F7F7FE46C08601D7FE02C036
:1013200000E010E076010894E11CF11CE01AF10ADB
:1013300041E050E04C0F5D1FE40EF51E26014B18F6
:101340005108892D90E0AA24BB24A81AB90A5FEF9E
:101350000F3F150729F48EE290E0B3010E94190DAA
:10136000C016D10634F0401651061CF4F7018081F6
:1013700001C080E3015010400894E11CF11C0A15E3
:101380001B052CF090E0B3010E94190DE0CF0C1565
:101390001D0539F49A81963318F4953311F424FE1F
:1013A00081E390E04BC08A81813309F00F7E90E0A9
:1013B000B3010E94190D9920A1F08EE290E0B301D3
:1013C0000E94190D12E0E1E0F0E0EC0FFD1FE10FCB
:1013D000F11D1F5F808190E0B3010E94190D9A9466
:1013E00091F744FC03C085E690E002C085E490E0FC
:1013F000B3010E94190DD7FC05C0C114D10441F4FA
:1014000004FF06C0D094C194D108D3948DE201C0EA
:101410008BE290E0B3010E94190D80E305C08F5F5D
:1014200026EF3FEFC20ED31E3AE0C316D104BCF73D
:1014300090E0B3010E94190DC601C096B3010E944D
:10144000190DCC84DD8452C1933631F0933799F075
:10145000933509F059C023C0F601808189835E016C
:101460000894A11CB11C22E030E0C20ED31E21E082
:10147000E22EF12C12C0F601A080B18016FD03C04F
:101480006FEF7FEF02C0692D70E022E030E0C20E06
:10149000D31EC5010E94C20C7C011F7713C0F60148
:1014A000A080B18016FD03C06FEF7FEF02C0692DF1
:1014B00070E022E030E0C20ED31EC5010E94B70CDE
:1014C0007C01106813FF07C01BC080E290E0B301ED
:1014D0000E94190D8A94882D90E0E816F906A8F369
:1014E0000FC0F50117FD859117FF81915F0190E015
:1014F000B3010E94190D81108A940894E108F10843
:10150000E114F10471F7F2C0943611F0993689F5BF
:1015100017FF08C0F601208131814281538184E0A8
:1015200090E00AC0F601808191819C01442737FD3B
:101530004095542F82E090E0C80ED91E9FE6F92E08
:10154000F12257FF09C050954095309521953F4FA6
:101550004F4F5F4F90E8F92ACA01B901AE014F5FC2
:101560005F4F2AE030E00E94960DE82EE889EE1ADF
:1015700041C0953721F41F7E2AE030E01CC0197F5E
:101580009F3661F0903720F4983509F0B2C00FC053
:10159000903739F0983709F0ACC004C028E030E04B
:1015A0000AC0106114FD146020E130E004C014FD95
:1015B000166020E132E017FF08C0F60160817181FA
:1015C0008281938144E050E008C0F60180819181DE
:1015D000BC0180E090E042E050E0C40ED51EAE01B8
:1015E0004F5F5F4F0E94960DE82E5889E51A8FE7EE
:1015F000F82EF122F6FE0BC08EEFF822E91438F433
:10160000F4FE07C0F2FC05C09FEEF92202C01E2DB9
:1016100001C0192DF4FE0DC0FE01EE0DF11D8081FB
:10162000803319F4E9EEFE2208C01F5FF2FE05C008
:1016300003C08F2D867809F01F5F0F2DF3FC14C0B7
:10164000F0FE0FC0181510F09E2C0BC09E2C980CAD
:10165000911A182D06C080E290E0B3010E94190D86
:101660001F5F1815C0F304C0181510F4811A01C0CB
:10167000882404FF0FC080E390E0B3010E94190D9D
:1016800002FF1DC001FD03C088E790E00EC088E5A1
:1016900090E00BC0802F867891F001FF02C08BE2B2
:1016A00001C080E2F7FC8DE290E0B3010E94190DC9
:1016B00006C080E390E0B3010E94190D9A94E914EA
:1016C000C0F3EA94E1E0F0E0EC0FFD1FEE0DF11D38
:1016D000808190E0B3010E94190DEE2091F706C0C1
:1016E00080E290E0B3010E94190D8A948820C1F72E
:1016F00099CCF30166817781CB016196E2E10C948C
:10170000C40BAA1BBB1B51E107C0AA1FBB1FA61716
:10171000B70710F0A61BB70B881F991F5A95A9F79A
:1017200080959095BC01CD01089597FB092E072661
:101730000AD077FD04D0E5DF06D000201AF47095BA
:1017400061957F4F0895F6F7909581959F4F089585
:101750002F923F924F925F926F927F928F929F92C1
:10176000AF92BF92CF92DF92EF92FF920F931F93AF
:10177000CF93DF93CDB7DEB7CA1BDB0B0FB6F89460
:10178000DEBF0FBECDBF09942A88398848885F84A0
:101790006E847D848C849B84AA84B984C884DF8011
:1017A000EE80FD800C811B81AA81B981CE0FD11DF5
:1017B0000FB6F894DEBF0FBECDBFED0108952830FF
:1017C00008F027E03327DA01990F311D87FD91607A
:1017D00000966105710539F432602E5F3D9330E368
:1017E0002A95E1F708959F3F30F080387105610533
:1017F00009F03C5F3C5F3D93913008F08068911D9B
:10180000DF93CF931F930F93FF92EF92192F987F3F
:101810009695E92F96959695E90FFF27E653FF4F8A
:1018200099273327EE24FF24A701E70105900894A8
:10183000079428F4360FE71EF81E491F511D660F46
:10184000771F881F991F0694A1F70590079428F425
:10185000E70EF81E491F561FC11D770F881F991FDD
:10186000661F0694A1F70590079428F4F80E491F07
:10187000561FC71FD11D880F991F661F771F06941B
:10188000A1F70590079420F4490F561FC71FD81FD2
:10189000990F661F771F881F0694A9F784911095EA
:1018A000177041F0D695C79557954795F794E794EB
:1018B0001A95C1F7E0E7F0E068941590159135911D
:1018C0006591959105907FE27395E118F10A430BBC
:1018D000560BC90BD009C0F7E10CF11E431F561F70
:1018E000C91FD01D7EF4703311F48A95E6CFE894B9
:1018F000015030F0080F0AF40027021708F4202FD7
:101900002395022F7A3328F079E37D932A95E9F71E
:1019100010C07D932A9589F606949795679537951B
:1019200017951794E118F10A430B560BC90BD00910
:1019300098F023957E9173957A3308F070E37C9349
:101940002013B8F77E9170617D9330F0839571E339
:101950007D9370E32A95E1F71124EF90FF900F91AA
:101960001F91CF91DF91992787FD90950895FC01F4
:101970000590615070400110D8F7809590958E0FBA
:101980009F1F0895FC016150704001900110D8F72D
:10199000809590958E0F9F1F08950F931F93CF935F
:1019A000DF938C01EB01009731F46115710519F497
:1019B00020E030E038C081E090E06EE070E00E940E
:1019C000F40DFC019C01009771F180E8838320975E
:1019D00071F0D387C28781E8838380911A02909146
:1019E0001B02892B21F4F0931B02E0931A020115CC
:1019F0001105C9F0118700878381826083838091FC
:101A00001C0290911D02892B71F4F0931D02E0934A
:101A10001C0280911E0290911F02892B21F4F093E9
:101A20001F02E0931E02C901DF91CF911F910F9118
:101A300008950F931F93CF93DF938C01EB018B815C
:101A400081FF1BC082FF0DC02E813F818C819D8153
:101A50002817390764F4E881F9810193F983E88351
:101A600006C0E885F985802F0995892B31F48E8190
:101A70009F8101969F838E8302C00FEF1FEFC801E5
:101A8000DF91CF911F910F910895A0E0B0E0EBE4BA
:101A9000FDE00C94B80BFE01359661917191809137
:101AA0001C0290911D02AF010E94FA072096E2E00D
:101AB0000C94D40B60911C0270911D020E94190DB0
:101AC00008950F931F93CF93DF938C01E0911C0235
:101AD000F0911D02838181FF21C0C0E0D0E00DC0E4
:101AE000E0911C02F0911D0220853185BF01F901B2
:101AF0000995892B11F0CFEFDFEFF80181918F016C
:101B0000882371F7E0911C02F0911D022085318538
:101B10008AE0BF01F9010995892B11F0CFEFDFEFC2
:101B2000CE01DF91CF911F910F910895FA01AA275D
:101B3000283051F1203181F1E8946F936E7F6E5F10
:101B40007F4F8F4F9F4FAF4FB1E03ED0B4E03CD0BE
:101B5000670F781F891F9A1FA11D680F791F8A1FA1
:101B6000911DA11D6A0F711D811D911DA11D20D008
:101B700009F468943F912AE0269F11243019305DC2
:101B80003193DEF6CF010895462F4770405D4193B3
:101B9000B3E00FD0C9F7F6CF462F4F70405D4A3300
:101BA00018F0495D31FD4052419302D0A9F7EACFC8
:101BB000B4E0A6959795879577956795BA95C9F7F7
:101BC00000976105710508959B01AC010A2E0694EA
:101BD0005795479537952795BA95C9F7620F731FA3
:101BE000841F951FA01D08950F931F93CF93DF931C
:101BF000689F8001699F100D789F100D1124C80106
:101C00000E94100EEC01009729F060E070E0A8013E
:101C10000E94150FCE01DF91CF911F910F91089572
:101C2000CF93DF93BC018230910510F462E070E045
:101C3000A0912202B0912302ED01E0E0F0E040E04B
:101C400050E021C0888199818617970769F48A81BD
:101C50009B81309719F09383828304C09093230271
:101C600080932202FE0134C06817790738F44115C9
:101C7000510519F08417950708F4AC01FE018A811B
:101C80009B819C01E9012097E9F641155105A9F1D5
:101C9000CA01861B970B049708F4BA01E0E0F0E054
:101CA0002AC08D919C91119784179507F9F46417B8
:101CB000750781F412968D919C911397309719F0C6
:101CC0009383828304C09093230280932202FD01B8
:101CD00032964FC0CA01861B970BFD01E80FF91F12
:101CE0006193719302978D939C9343C0FD01828110
:101CF00093819C01D9011097A1F6809120029091C7
:101D00002102892B41F48091B9019091BA019093FD
:101D10002102809320024091BB015091BC014115EA
:101D2000510541F44DB75EB78091B7019091B8016C
:101D3000481B590B209120023091210224173507AE
:101D4000B0F4CA01821B930B8617970780F0AB0192
:101D50004E5F5F4F8417950750F0420F531F50930B
:101D6000210240932002F9016193719302C0E0E0E7
:101D7000F0E0CF01DF91CF910895CF93DF930097EB
:101D800009F450C0EC0122971B821A82A091220212
:101D9000B0912302109709F140E050E0AC17BD0765
:101DA00008F1BB83AA83FE0121913191E20FF31F59
:101DB000AE17BF0779F48D919C911197280F391FA9
:101DC0002E5F3F4F3983288312968D919C911397F4
:101DD0009B838A834115510571F4D0932302C093EC
:101DE000220220C012968D919C911397AD0100970D
:101DF00011F0DC01D3CFFA01D383C2832191319159
:101E0000E20FF31FCE17DF0769F488819981280F4D
:101E1000391F2E5F3F4FFA01318320838A819B81D6
:101E200093838283DF91CF910895DC0101C06D938C
:0C1E300041505040E0F70895F894FFCFB7
:101E3C003E3E3E2052656C616973204F4E003E3E23
:101E4C003E2052656C616973204F46460054656DA7
:101E5C0070657261747572652050726F746563740D
:101E6C00696F6E204F666621000A785878004172BF
:101E7C007261793A00202569000A0A537461727400
:101E8C000A004572726F722054656D703D300053BC
:101E9C00746172747570202569200054656D703AF8
:101EAC002025692C20006578705F733A2025692CF9
:101EBC002073323A2025692C2066783A2025690A4D
:101ECC00004F6E2D436F756E7465723A2025693B19
:101EDC00200A004F66662D436F756E7465723A204A
:0E1EEC0025693B200A00F420002402000000BB
:00000001FF
