:100000000C94B5000C946C010C94D2000C94D200AA
:100010000C94D2000C94D2000C94D2000C94D20018
:100020000C94D2000C94D4000C94D2000C94D20006
:100030000C94D2000C94EB000C94D2000C94D200DF
:100040000C9408010C94D2000C94E3010C9411025E
:100050000C94D2000C94D2000C94D2000C94D200D8
:100060000C94D2000C94D2006E616E00696E660032
:1000700000407A10F35A00A0724E18090010A5D45F
:10008000E80000E87648170000E40B54020000CABC
:100090009A3B000000E1F505000080969800000002
:1000A00040420F000000A086010000001027000061
:1000B0000000E803000000006400000000000A00E7
:1000C000000000000100000000002C76D888DC67EA
:1000D0004F0823DFC1DFAE59E1B1B796E5E3E45342
:1000E000C63AE651997696E8E6C28426EB898C9B5F
:1000F00062ED407C6FFCEFBC9C9F40F2BAA56FA5FF
:10010000F490055A2AF75C936B6CF9676DC11BFC80
:10011000E0E40D47FEF520E6B500D0ED902E03009B
:10012000943577050080841E080000204E0A0000E8
:1001300000C80C333333330F986E12831141EF8DA7
:100140002114893BE65516CFFEE6DB18D1844B38E7
:100150001BF77C1D901DA4BBE424203284725E2218
:100160008100C9F124ECA1E53D2711241FBECFEF8A
:10017000D4E0DEBFCDBF11E0A0E0B1E0E0EAF0E204
:1001800002C005900D92A43AB107D9F712E0A4EA93
:10019000B1E001C01D92A530B107E1F70E94AF04A4
:1001A0000C944E100C9400001F920F920FB60F92F9
:1001B00011248F93DF93CF93CDB7DEB780910001E9
:1001C0008F5F80930001CF91DF918F910F900FBED1
:1001D0000F901F9018951F920F920FB60F92112437
:1001E000EF93FF93DF93CF93CDB7DEB7E1E8F0E075
:1001F0001082E5E8F0E01082E4E8F0E01082CF91B0
:10020000DF91FF91EF910F900FBE0F901F90189507
:100210001F920F920FB60F9211242F933F934F937B
:100220005F938F939F93AF93BF93EF93FF93DF936E
:10023000CF930F92CDB7DEB719828091A5018F5F62
:100240008093A5018091D8018330C9F48091A501E4
:10025000482F50E08981282F30E086E090E0022E80
:1002600002C0880F991F0A94E2F7841795073CF49F
:10027000A8E2B0E0E8E2F0E0808188608C938091B1
:10028000A501482F50E08981282F30E08AE090E0D6
:10029000022E02C0880F991F0A94E2F7841795076F
:1002A0004CF41092A501A8E2B0E0E8E2F0E0808111
:1002B000877F8C930F90CF91DF91FF91EF91BF914A
:1002C000AF919F918F915F914F913F912F910F909F
:1002D0000FBE0F901F9018951F920F920FB60F929E
:1002E00011242F938F939F93EF93FF93DF93CF93DB
:1002F00000D00F92CDB7DEB7E5E8F0E090818091B5
:10030000A601982BE4E8F0E08081892B882309F08E
:100310004BC081E08093A6011982EDE3F0E01082EA
:1003200078941B821A8211C0E9E2F0E08081882F64
:1003300090E084709070009719F089818F5F8983B5
:100340008A819B8101969B838A838A819B8127E096
:10035000803D920748F389818436E0F4E4E8F0E0D8
:1003600081E08083E1E8F0E082E080838091D80141
:10037000882F90E0009761F48091A401882321F0F8
:1003800083E08093D80106C081E08093D80102C049
:100390001092D801ECE3F0E081E08083EDE3F0E03F
:1003A00081E080831092A6010F900F900F90CF9163
:1003B000DF91FF91EF919F918F912F910F900FBE41
:1003C0000F901F9018951F920F920FB60F92112445
:1003D0008F939F93EF93FF93DF93CF930F92CDB7BC
:1003E000DEB7E6ECF0E0808189838091AA01882F56
:1003F00090E08F719070FC01E954FE4F89818083F9
:100400008091AA018F5F8093AA010F90CF91DF9115
:10041000FF91EF919F918F910F900FBE0F901F90C2
:1004200018951F920F920FB60F9211248F939F93DE
:10043000AF93BF93EF93FF93DF93CF93CDB7DEB727
:100440009091D7018091DA01981799F0A6ECB0E06D
:100450008091DA01882F90E08F719070FC01E55255
:10046000FE4F80818C938091DA018F5F8093DA0157
:1004700007C0A1ECB0E0E1ECF0E080818F7D8C93CF
:10048000CF91DF91FF91EF91BF91AF919F918F91AC
:100490000F900FBE0F901F901895DF93CF93CDB79D
:1004A000DEB79091D7018091DA01292F281B822F86
:1004B000CF91DF910895DF93CF9300D00F92CDB706
:1004C000DEB789837B836A830E944D02282F30E048
:1004D00080E290E0821B930B83309105ACF3809116
:1004E000D701882F90E08F719070FC01E552FE4F8C
:1004F000898180838091D7018F5F8093D701A1ECA0
:10050000B0E0E1ECF0E0808180628C9380E090E0EC
:100510000F900F900F90CF91DF910895DF93CF93BD
:10052000CDB7DEB79091AA018091D901292F281B60
:10053000822FCF91DF910895DF93CF9300D00F9258
:10054000CDB7DEB79B838A830E948E028823E1F3B6
:100550008091D901882F90E08F719070FC01E9544F
:10056000FE4F808189838091D9018F5F8093D9016B
:100570008981882F90E00F900F900F90CF91DF919D
:100580000895DF93CF93CDB7DEB7E4ECF0E08CE0D5
:1005900090E091838083E1ECF0E088E98083E2ECF5
:1005A000F0E086E080838BE592E02CE932E0B9014F
:1005B0000E94FF0D7894CF91DF910895DF93CF9340
:1005C0000F92CDB7DEB700D0EDB7FEB7319681E020
:1005D00091E0918380830E94770E0F900F90198293
:1005E0001EC08981882F90E0880F991FFC01E55576
:1005F000FE4F2081318100D000D0EDB7FEB731969B
:1006000088E091E091838083338322830E94770E78
:100610000F900F900F900F9089818F5F8983898150
:100620008630F8F28AE090E00E948C0E0F90CF9115
:10063000DF910895DF93CF9300D00F92CDB7DEB74F
:100640009B838A838091AB019091AC01009779F5EF
:100650008A819B819093B6018093B5018091B50109
:100660009091B6019093B4018093B3018091B3014E
:100670009091B4019093B2018093B1018091B10146
:100680009091B2019093B0018093AF018091AF013E
:100690009091B0019093AE018093AD018091AD0136
:1006A0009091AE019093AC018093AB0159C0198237
:1006B00019C08981482F50E08981882F90E00196E8
:1006C000880F991FFC01E555FE4F20813181CA0139
:1006D000880F991FFC01E555FE4F318320838981E6
:1006E0008F5F89838981853020F38A819B819093F4
:1006F000B6018093B5012091B5013091B60180918A
:10070000B3019091B401A901481B590BCA019C0186
:10071000220F331FC901880F991F880F991FB90134
:10072000680F791F4091A8015091A901CA01880F53
:10073000991F9C01220F331F220F331F220F331FDB
:10074000820F931F840F951F860F971F24E130E0BF
:10075000B9010E94C70CCB019093A9018093A80115
:100760000F900F900F90CF91DF910895DF93CF936B
:1007700000D000D000D0CDB7DEB72091B5013091C8
:10078000B6018091AB019091AC01A901481B590BB6
:10079000CA019E838D832091B3013091B401809171
:1007A000AD019091AE01A901481B590BCA019C8370
:1007B0008B832091B1013091B2018091AF01909172
:1007C000B001A901481B590BCA019A8389832D8165
:1007D0003E81C901880F991FAC01420F531F2B8125
:1007E0003C81C901880F991F880F991F820F931FA1
:1007F000480F591F29813A81C901880F991F820F1B
:10080000931F9C01220F331F220F331F820F931F50
:10081000840F951F29E030E0B9010E94C70CCB017D
:1008200026960FB6F894DEBF0FBECDBFCF91DF91F5
:100830000895DF93CF93CDB7DEB72091B501309106
:10084000B6018091B3019091B401A901481B590BE5
:10085000CA01CF91DF910895DF93CF93CDB7DEB773
:100860002F970FB6F894DEBF0FBECDBF8D8784EBF8
:100870000E9415078D850E94980785EB0E945807F6
:100880008C838C81882319F085EB0E9458070E9485
:10089000BF078B830E94BF078A838A81882F90E0DD
:1008A000982F88279C018B81882F90E0820F931FBF
:1008B0009E838D830E94BF0789830E9421098D81B9
:1008C0009E8199231CF41F861E860DC08D819E81FA
:1008D00025E030E0B9010E94B30CCB019C012B5AFA
:1008E0003A403F872E878E859F852F960FB6F894C6
:1008F000DEBF0FBECDBFCF91DF910895DF93CF93C1
:100900000F92CDB7DEB789838981882389F09091D2
:10091000A7018981891721F08CE091E00E94930E54
:10092000A5E2B0E0E5E2F0E0808180648C9310C045
:100930009091A7018981891721F08AE191E00E94B5
:10094000930EA5E2B0E0E5E2F0E080818F7B8C932E
:1009500089818093A7010F90CF91DF910895DF9354
:10096000CF93CDB7DEB767970FB6F894DEBF0FBE53
:10097000CDBFE4E2F0E080EC8083E7E2F0E088E0E5
:100980008083EAE2F0E088E18083E5E2F0E08FE353
:100990008083E8E2F0E087EF8083EBE2F0E087EE2F
:1009A0008083E4E6F0E02081A89588E190E029E2E8
:1009B0000FB6F894A895809360000FBE2093600056
:1009C0000E94C1020E94060710920001E1EBF0E0D4
:1009D00087E08083E0E7F0E081E08083E4E4F0E01A
:1009E0001082E5E4F0E083E08083EEE6F0E081E071
:1009F0008083E0E8F0E01082E1E8F0E01082E2E8D5
:100A0000F0E01082EFE6F0E081E08083E9E6F0E0DC
:100A100082E08083EDE3F0E081E0808389E291E091
:100A20000E94930EABE2B0E0EBE2F0E080818061E7
:100A30008C93ABE2B0E0EBE2F0E08081877F8C93B7
:100A400080E00E947E041092D8011E861D861886C2
:100A50008FEF8F8383E08E831D821A8219827894B0
:100A60008091000180310CF45FC1A89510920001C3
:100A700018868D859E8595958795959587959595ED
:100A8000879595958795988B8F871E861D868F8570
:100A90009889009769F400D0EDB7FEB7319680E3EE
:100AA00091E0918380830E94770E0F900F900BC18D
:100AB0008E818823F1F08E81282F30E000D000D085
:100AC000EDB7FEB731968DE391E091838083338358
:100AD00022830E94770E0F900F900F900F908E81BF
:100AE00081508E8387E00E942C04988B8F871A8612
:100AF000198600D000D0EDB7FEB7319689E491E0B9
:100B0000918380838F859889938382830E94770E57
:100B10000F900F900F900F908F8598890E941A0365
:100B20000E94B6039C878B878F8598898C5692404C
:100B300027EE3FEFB9010E94C70CCB019C838B834A
:100B40008B819C81992314F41C821B822B853C850C
:100B50008B819C8182179307ACF429813A818B8524
:100B60009C85820F931F880F991F880F991F880FEC
:100B7000991F2B813C81B9010E94C70CCB019A833C
:100B8000898316C089819A819D8B8C8B8C899D89E4
:100B9000992334F42C893D892D5F3F4F3D8B2C8B5D
:100BA0008C899D8995958795959587959A83898355
:100BB00029853A858FE190E0289FA001299F500D5B
:100BC000389F500D11248B859C859C01220F331F6B
:100BD000C901880F991F880F991F820F931F840FD7
:100BE000951F9F8B8E8B8E899F89992334F42E8934
:100BF0003F89215E3F4F3F8B2E8B8E899F89959534
:100C000087959595879595958795959587959595CC
:100C100087959A8789878DB79EB70A970FB6F894FC
:100C20009EBF0FBE8DBFEDB7FEB7319684E591E054
:100C3000918380838B859C859383828389859A8524
:100C4000958384838B819C819783868389819A8114
:100C5000918780870E94770E2DB73EB7265F3F4F62
:100C60000FB6F8943EBF0FBE2DBF0E941904992302
:100C70004CF189859A858E32910534F489819A8167
:100C800031E0853F9307F4F08D818F5F8D838D81F7
:100C9000282F30E000D000D0EDB7FEB7319688E7BE
:100CA00091E091838083338322830E94770E0F909B
:100CB0000F900F900F908D81823028F083E0809309
:100CC000A40101C01D828091A401882311F18091AB
:100CD000A40181508093A4018091D801813019F43E
:100CE00083E08093D8018091A401282F30E000D0C8
:100CF00000D0EDB7FEB731968AE891E0918380830A
:100D0000338322830E94770E0F900F900F900F90E5
:100D10002AC08091D801833031F51A8619861A824B
:100D200019821092D8011FC080910001282F33270B
:100D300027FD30958F81882F90E02817390799F08B
:100D4000809100018F838885803168F488858F5F6A
:100D5000888787E00E942C049C018D859E85820FE8
:100D6000931F9E878D878091D801282F30E03A8B82
:100D7000298B89899A8981309105E9F029893A89F5
:100D80002330310551F189899A890097E1F580E096
:100D90000E947E04ABE2B0E0EBE2F0E08081806193
:100DA0008C93ABE2B0E0EBE2F0E08081877F8C9344
:100DB0001092A40155CE81E00E947E04ABE2B0E027
:100DC000EBE2F0E0808180618C93ABE2B0E0EBE29B
:100DD000F0E0808188608C9343CE80E00E947E04A6
:100DE000ABE2B0E0EBE2F0E080818F7E8C93ABE28F
:100DF000B0E0EBE2F0E0808188608C931A8619867F
:100E00001A8219822DCE1092D8012ACEDF93CF9369
:100E1000CDB7DEB7E8EBF0E088E48083E8EBF0E004
:100E20008AE08083CF91DF910895DF93CF9300D044
:100E30000F92CDB7DEB78A83ECEBF0E01082ECEBDB
:100E4000F0E084EA8083ECEBF0E080818823DCF73B
:100E5000E9EBF0E08081882F90E0887F9070883007
:100E6000910519F081E08B831CC0EBEBF0E08A81E7
:100E70008083ECEBF0E084E88083ECEBF0E08081B1
:100E80008823DCF7E9EBF0E08081887F8983898122
:100E9000883131F08981803419F081E08B8301C081
:100EA0001B828B810F900F900F90CF91DF9108954F
:100EB000DF93CF9300D00F92CDB7DEB78A83ECEBF0
:100EC000F0E084EA8083ECEBF0E080818823DCF7BB
:100ED000E9EBF0E08081882F90E0887F907080318E
:100EE000910519F081E08B831CC0EBEBF0E08A8167
:100EF0008083ECEBF0E084E88083ECEBF0E0808131
:100F00008823DCF7E9EBF0E08081887F89838981A1
:100F1000883131F08981803419F081E08B8301C000
:100F20001B828B810F900F900F90CF91DF910895CE
:100F3000DF93CF9300D0CDB7DEB78983EBEBF0E042
:100F400089818083ECEBF0E084E88083ECEBF0E0D7
:100F500080818823DCF7E9EBF0E08081882F90E046
:100F6000887F90708832910519F081E08A8301C0F2
:100F70001A828A810F900F90CF91DF910895DF93AD
:100F8000CF93CDB7DEB7ECEBF0E084EC8083ECEBF5
:100F9000F0E080818823DCF7EBEBF0E08081CF91FB
:100FA000DF910895DF93CF93CDB7DEB7ECEBF0E0A0
:100FB00084E88083ECEBF0E080818823DCF7EBEBC6
:100FC000F0E08081CF91DF910895DF93CF93CDB78B
:100FD000DEB728970FB6F894DEBF0FBECDBF8B8368
:100FE0007D836C835F834E838B810E9415078823EA
:100FF00019F081E0888721C01A82198214C02C81DF
:101000003D8189819A81F901E80FF91F80810E9451
:101010009807882319F081E088870FC089819A8119
:1010200001969A83898329813A818E819F8128172D
:10103000390728F30E9421091886888528960FB65B
:10104000F894DEBF0FBECDBFCF91DF9108950F930F
:101050001F93DF93CF93CDB7DEB728970FB6F894E1
:10106000DEBF0FBECDBF8B837D836C835F834E83DA
:101070008B8181600E941507882319F081E08887A1
:101080002EC01A82198210C02C813D8189819A81DB
:101090008901080F191F0E94BF07F8018083898109
:1010A0009A8101969A8389838E819F819C01215028
:1010B000304089819A818217930730F38E819F8116
:1010C0009C01215030408C819D818C01020F131FA7
:1010D0000E94D207F80180830E9421091886888522
:1010E00028960FB6F894DEBF0FBECDBFCF91DF912B
:1010F0001F910F910895DF93CF93CDB7DEB7299756
:101100000FB6F894DEBF0FBECDBF8B836C835E83BA
:101110004D8338872F838B810E941507882319F010
:1011200081E0898724C08C810E9498071A821982E5
:1011300014C02D813E8189819A81F901E80FF91F40
:1011400080810E949807882319F081E089870FC069
:1011500089819A8101969A83898329813A818F8135
:1011600098852817390728F30E942109198689854F
:1011700029960FB6F894DEBF0FBECDBFCF91DF9199
:1011800008950F931F93DF93CF93CDB7DEB72997C1
:101190000FB6F894DEBF0FBECDBF8B836C835E832A
:1011A0004D8338872F838B810E941507882319F080
:1011B00081E089873AC08C810E9498078B81816089
:1011C0000E941507882319F0E1E0E9872EC01A82F2
:1011D000198210C02D813E8189819A818901080F71
:1011E000191F0E94BF07F801808389819A810196A7
:1011F0009A8389838F8198859C0121503040898111
:101200009A818217930730F38F8198859C01215032
:1012100030408D819E818C01020F131F0E94D207E6
:10122000F80180830E9421091986898529960FB6C5
:10123000F894DEBF0FBECDBFCF91DF911F910F910C
:101240000895DF93CF93CDB7DEB7ECEBF0E084E900
:101250008083CF91DF910895A1E1B0E0E2E3F9E06E
:101260000C94DA0C3C017F876E876A01FC011782BF
:101270001682838181FD03C06FEF7FEF6FC39E01F4
:101280002F5F3F4F398B288BF3012381EE85FF853C
:1012900023FD859123FF8191FF87EE87882309F441
:1012A0005AC3853251F4EE85FF8523FD859123FFD6
:1012B0008191FF87EE87853229F490E0B3010E9487
:1012C0004B0EE2CF982F10E0882499241032B0F40E
:1012D0009B3269F09C3228F4903251F0933271F4D1
:1012E0000BC09D3239F0903349F4116028C0126070
:1012F000146025C0186023C0106121C017FD2AC0EA
:10130000892F80538A3078F416FF06C0FAE09F9E3A
:10131000902C1124980E13C03AE0839E802C112447
:10132000880E10620CC09E3221F416FD14C31064A6
:1013300006C09C3611F4106802C0983659F4EE8548
:10134000FF8523FD959123FF9191FF87EE879923D8
:1013500009F0BCCF892F8554833020F4812F806120
:10136000905E07C0892F8556833008F09FC1812F7A
:101370008F7E86FD02C076E0972E6FE3F62EF82270
:10138000953619F4F0E4FF2A07C0963619F420E8E0
:10139000F22A02C091109A94F7FE0AC03BE3391575
:1013A00018F45CE3B52E02C0B92CB39427E009C051
:1013B00047E0491520F4BB2447E0942EF7CF292DB0
:1013C000BB24C60104969D878C87F60160817181DC
:1013D00082819381AE014F5F5F4F0B2D0E94110DF3
:1013E0006C010981202E332400FF04C003FD02C0DC
:1013F0001DE209C0F1FE02C01BE205C0F2FC02C002
:1014000010E001C010E2C1018C709070892BB9F11D
:10141000112311F483E001C084E0881510F08824C2
:101420000AC0881AF3FC07C080E290E0B3010E9472
:101430004B0E8A94C9F7112329F0812F90E0B30154
:101440000E944B0E23FE03C008E610E00EC00CE61F
:1014500010E00BC0E114F10409F0805290E0B301F8
:101460000E944B0E0F5F1F4F05C0EF2CFF24F0E1D1
:10147000EF22FF24F8018491882361F714C1F7FE5D
:1014800012C0BC0C24FE04C08A81813309F4BA94D2
:101490001B141CF0BB24B3942DC0F8E0FB1550F5D1
:1014A00038E0B32E27C0F6FC25C0892D90E08C15BE
:1014B0009D054CF02CEFC2162FEFD20624F030E839
:1014C000F32A01C09A94992049F0E2E0F0E0EC0F91
:1014D000FD1FE90DF11D80818033A1F3F7FE0AC0E5
:1014E000B92CB394892D90E0C816D90614F099242C
:1014F00001C09C18F7FC03C025E030E009C01C14B3
:101500001D041CF021E030E003C096012F5F3F4F27
:10151000112311F02F5F3F4F992029F0892D90E082
:101520000196280F391F882D90E02817390714F0ED
:10153000882401C0821A4F2C5524C20189709070F2
:10154000892B39F008C080E290E0B3010E944B0E75
:101550008A948820C1F7112329F0812F90E0B301EC
:101560000E944B0E43FE07C008C080E390E0B30129
:101570000E944B0E8A948820C1F7F7FE46C0860170
:10158000D7FE02C000E010E076010894E11CF11CD7
:10159000E01AF10A41E050E04C0F5D1FE40EF51E29
:1015A00026014B185108892D90E0AA24BB24A81AC3
:1015B000B90A5FEF0F3F150729F48EE290E0B301FF
:1015C0000E944B0EC016D10634F0401651061CF492
:1015D000F701808101C080E3015010400894E11CB4
:1015E000F11C0A151B052CF090E0B3010E944B0E74
:1015F000E0CF0C151D0539F49A81963318F4953314
:1016000011F424FE81E390E04BC08A81813309F01C
:101610000F7E90E0B3010E944B0E9920A1F08EE264
:1016200090E0B3010E944B0E12E0E1E0F0E0EC0F1D
:10163000FD1FE10FF11D1F5F808190E0B3010E944B
:101640004B0E9A9491F744FC03C085E690E002C0EB
:1016500085E490E0B3010E944B0ED7FC05C0C11495
:10166000D10441F404FF06C0D094C194D108D394AE
:101670008DE201C08BE290E0B3010E944B0E80E34B
:1016800005C08F5F26EF3FEFC20ED31E3AE0C316B0
:10169000D104BCF790E0B3010E944B0EC601C09686
:1016A000B3010E944B0ECC84DD8452C1933631F0DD
:1016B000933799F0933509F059C023C0F601808122
:1016C00089835E010894A11CB11C22E030E0C20EA7
:1016D000D31E21E0E22EF12C12C0F601A080B180D1
:1016E00016FD03C06FEF7FEF02C0692D70E022E0AE
:1016F00030E0C20ED31EC5010E94F40D7C011F779D
:1017000013C0F601A080B18016FD03C06FEF7FEF1C
:1017100002C0692D70E022E030E0C20ED31EC50188
:101720000E94E90D7C01106813FF07C01BC080E216
:1017300090E0B3010E944B0E8A94882D90E0E81649
:10174000F906A8F30FC0F50117FD859117FF8191E8
:101750005F0190E0B3010E944B0E81108A940894BF
:10176000E108F108E114F10471F7F2C0943611F0C8
:10177000993689F517FF08C0F60120813181428131
:10178000538184E090E00AC0F601808191819C0140
:10179000442737FD4095542F82E090E0C80ED91EB3
:1017A0009FE6F92EF12257FF09C0509540953095DC
:1017B00021953F4F4F4F5F4F90E8F92ACA01B90179
:1017C000AE014F5F5F4F2AE030E00E94C80EE82E66
:1017D000E889EE1A41C0953721F41F7E2AE030E0F7
:1017E0001CC0197F9F3661F0903720F4983509F0BE
:1017F000B2C00FC0903739F0983709F0ACC004C0C0
:1018000028E030E00AC0106114FD146020E130E0EF
:1018100004C014FD166020E132E017FF08C0F60195
:10182000608171818281938144E050E008C0F601BB
:1018300080819181BC0180E090E042E050E0C40EE4
:10184000D51EAE014F5F5F4F0E94C80EE82E58892B
:10185000E51A8FE7F82EF122F6FE0BC08EEFF82284
:10186000E91438F4F4FE07C0F2FC05C09FEEF9223B
:1018700002C01E2D01C0192DF4FE0DC0FE01EE0D9B
:10188000F11D8081803319F4E9EEFE2208C01F5F4C
:10189000F2FE05C003C08F2D867809F01F5F0F2D63
:1018A000F3FC14C0F0FE0FC0181510F09E2C0BC0F6
:1018B0009E2C980C911A182D06C080E290E0B3017E
:1018C0000E944B0E1F5F1815C0F304C0181510F4CA
:1018D000811A01C0882404FF0FC080E390E0B301A7
:1018E0000E944B0E02FF1DC001FD03C088E790E07F
:1018F0000EC088E590E00BC0802F867891F001FF44
:1019000002C08BE201C080E2F7FC8DE290E0B301FF
:101910000E944B0E06C080E390E0B3010E944B0E84
:101920009A94E914C0F3EA94E1E0F0E0EC0FFD1FB3
:10193000EE0DF11D808190E0B3010E944B0EEE2070
:1019400091F706C080E290E0B3010E944B0E8A94AA
:101950008820C1F799CCF30166817781CB0161962C
:10196000E2E10C94F60CAA1BBB1B51E107C0AA1FB5
:10197000BB1FA617B70710F0A61BB70B881F991F30
:101980005A95A9F780959095BC01CD01089597FBD4
:10199000092E07260AD077FD04D0E5DF06D0002007
:1019A0001AF4709561957F4F0895F6F7909581959B
:1019B0009F4F08952F923F924F925F926F927F9226
:1019C0008F929F92AF92BF92CF92DF92EF92FF924F
:1019D0000F931F93CF93DF93CDB7DEB7CA1BDB0BFB
:1019E0000FB6F894DEBF0FBECDBF09942A883988A0
:1019F00048885F846E847D848C849B84AA84B984A7
:101A0000C884DF80EE80FD800C811B81AA81B981B2
:101A1000CE0FD11D0FB6F894DEBF0FBECDBFED01C6
:101A20000895283008F027E03327DA01990F311D97
:101A300087FD916000966105710539F432602E5F73
:101A40003D9330E32A95E1F708959F3F30F08038C9
:101A50007105610509F03C5F3C5F3D93913008F0F2
:101A60008068911DDF93CF931F930F93FF92EF92A6
:101A7000192F987F9695E92F96959695E90FFF2750
:101A8000E653FF4F99273327EE24FF24A701E701F0
:101A900005900894079428F4360FE71EF81E491F96
:101AA000511D660F771F881F991F0694A1F7059097
:101AB000079428F4E70EF81E491F561FC11D770F23
:101AC000881F991F661F0694A1F70590079428F4B4
:101AD000F80E491F561FC71FD11D880F991F661F7B
:101AE000771F0694A1F70590079420F4490F561F1D
:101AF000C71FD81F990F661F771F881F0694A9F765
:101B000084911095177041F0D695C79557954795D4
:101B1000F794E7941A95C1F7E0E7F0E06894159020
:101B2000159135916591959105907FE27395E11836
:101B3000F10A430B560BC90BD009C0F7E10CF11E9B
:101B4000431F561FC91FD01D7EF4703311F48A95B0
:101B5000E6CFE894015030F0080F0AF4002702178E
:101B600008F4202F2395022F7A3328F079E37D9310
:101B70002A95E9F710C07D932A9589F606949795E2
:101B80006795379517951794E118F10A430B560B93
:101B9000C90BD00998F023957E9173957A3308F09C
:101BA00070E37C932013B8F77E9170617D9330F0E1
:101BB000839571E37D9370E32A95E1F71124EF900B
:101BC000FF900F911F91CF91DF91992787FD9095FD
:101BD0000895FC010590615070400110D8F7809580
:101BE00090958E0F9F1F0895FC01615070400190E9
:101BF0000110D8F7809590958E0F9F1F08950F9331
:101C00001F93CF93DF938C01EB01009731F46115A3
:101C1000710519F420E030E038C081E090E06EE01A
:101C200070E00E94260FFC019C01009771F180E892
:101C30008383209771F0D387C28781E88383809163
:101C4000FB019091FC01892B21F4F093FC01E093BE
:101C5000FB0101151105C9F011870087838182609E
:101C600083838091FD019091FE01892B71F4F093A3
:101C7000FE01E093FD018091FF0190910002892B0C
:101C800021F4F0930002E093FF01C901DF91CF91AD
:101C90001F910F9108950F931F93CF93DF938C01A2
:101CA000EB018B8181FF1BC082FF0DC02E813F8124
:101CB0008C819D812817390764F4E881F9810193AB
:101CC000F983E88306C0E885F985802F0995892B7B
:101CD00031F48E819F8101969F838E8302C00FEF26
:101CE0001FEFC801DF91CF911F910F910895A0E0E0
:101CF000B0E0EDE7FEE00C94EA0CFE013596619150
:101D000071918091FD019091FE01AF010E942C091B
:101D10002096E2E00C94060D6091FD017091FE01A9
:101D20000E944B0E08950F931F93CF93DF938C0166
:101D3000E091FD01F091FE01838181FF21C0C0E0AF
:101D4000D0E00DC0E091FD01F091FE0120853185CC
:101D5000BF01F9010995892B11F0CFEFDFEFF801F1
:101D600081918F01882371F7E091FD01F091FE01CF
:101D7000208531858AE0BF01F9010995892B11F091
:101D8000CFEFDFEFCE01DF91CF911F910F9108953B
:101D9000FA01AA27283051F1203181F1E8946F939C
:101DA0006E7F6E5F7F4F8F4F9F4FAF4FB1E03ED042
:101DB000B4E03CD0670F781F891F9A1FA11D680FE0
:101DC000791F8A1F911DA11D6A0F711D811D911D13
:101DD000A11D20D009F468943F912AE0269F112488
:101DE0003019305D3193DEF6CF010895462F4770EC
:101DF000405D4193B3E00FD0C9F7F6CF462F4F7047
:101E0000405D4A3318F0495D31FD4052419302D0A4
:101E1000A9F7EACFB4E0A69597958795779567954A
:101E2000BA95C9F700976105710508959B01AC014A
:101E30000A2E06945795479537952795BA95C9F771
:101E4000620F731F841F951FA01D08950F931F938A
:101E5000CF93DF93689F8001699F100D789F100DCD
:101E60001124C8010E94420FEC01009729F060E0A4
:101E700070E0A8010E944710CE01DF91CF911F9121
:101E80000F910895CF93DF93BC018230910510F438
:101E900062E070E0A0910302B0910402ED01E0E085
:101EA000F0E040E050E021C08881998186179707D3
:101EB00069F48A819B81309719F09383828304C0EF
:101EC0009093040280930302FE0134C068177907DF
:101ED00038F44115510519F08417950708F4AC0141
:101EE000FE018A819B819C01E9012097E9F6411559
:101EF0005105A9F1CA01861B970B049708F4BA0192
:101F0000E0E0F0E02AC08D919C911197841795072D
:101F1000F9F46417750781F412968D919C911397CB
:101F2000309719F09383828304C0909304028093C6
:101F30000302FD0132964FC0CA01861B970BFD01BB
:101F4000E80FF91F6193719302978D939C9343C09F
:101F5000FD01828193819C01D9011097A1F68091A6
:101F6000010290910202892B41F480919F0190918E
:101F7000A00190930202809301024091A10150912F
:101F8000A2014115510541F44DB75EB780919D0105
:101F900090919E01481B590B209101023091020241
:101FA00024173507B0F4CA01821B930B86179707D5
:101FB00080F0AB014E5F5F4F8417950750F0420FE2
:101FC000531F5093020240930102F90161937193F0
:101FD00002C0E0E0F0E0CF01DF91CF910895CF9310
:101FE000DF93009709F450C0EC0122971B821A82FC
:101FF000A0910302B0910402109709F140E050E073
:10200000AC17BD0708F1BB83AA83FE012191319172
:10201000E20FF31FAE17BF0779F48D919C911197D2
:10202000280F391F2E5F3F4F3983288312968D91D9
:102030009C9113979B838A834115510571F4D0932A
:102040000402C093030220C012968D919C911397B5
:10205000AD01009711F0DC01D3CFFA01D383C28325
:1020600021913191E20FF31FCE17DF0769F48881C8
:102070009981280F391F2E5F3F4FFA01318320834A
:102080008A819B8193838283DF91CF910895DC01C4
:1020900001C06D9341505040E0F70895F894FFCF90
:1020A000F441727261793A00202569003E3E3E207B
:1020B00052656C616973204F4E003E3E3E20526572
:1020C0006C616973204F4646000A53746172740054
:1020D0004572726F722054656D703D3000537461AB
:1020E00072747570202569200054656D703A202542
:1020F000692C2000736C5F7261773A2025692C206F
:10210000736C3A2025692C20663A2025692C2069B9
:102110006E743A2025690A004F6E2D436F756E74F8
:1021200065723A2025693B200A004F66662D436F91
:10213000756E7465723A2025693B200A00200005FF
:042140000200000099
:00000001FF
