:100000000C94B5000C9400030C94D2000C94D20014
:100010000C94D2000C94D2000C94D2000C94D20018
:100020000C94D2000C94D4000C94D2000C94D20006
:100030000C94D2000C94E5000C94D2000C94D200E5
:100040000C94F5000C94D2000C9443010C946201C2
:100050000C94D2000C94D2000C94D2000C94D200D8
:100060000C94D2000C94D2006E616E00696E660032
:1000700000407A10F35A00A0724E18090010A5D45F
:10008000E80000E87648170000E40B54020000CABC
:100090009A3B000000E1F505000080969800000002
:1000A00040420F000000A086010000001027000061
:1000B0000000E803000000006400000000000A00E7
:1000C000000000000100000000002C76D888DC67EA
:1000D0004F0823DFC1DFAE59E1B1B796E5E3E45342
:1000E000C63AE651997696E8E6C28426EB898C9B5F
:1000F00062ED407C6FFCEFBC9C9F40F2BAA56FA5FF
:10010000F490055A2AF75C936B6CF9676DC11BFC80
:10011000E0E40D47FEF520E6B500D0ED902E03009B
:10012000943577050080841E080000204E0A0000E8
:1001300000C80C333333330F986E12831141EF8DA7
:100140002114893BE65516CFFEE6DB18D1844B38E7
:100150001BF77C1D901DA4BBE424203284725E2218
:100160008100C9F124ECA1E53D2711241FBECFEF8A
:10017000D4E0DEBFCDBF11E0A0E0B1E0E8EDFDE1ED
:1001800002C005900D92A63CB107D9F712E0A6EC8B
:10019000B1E001C01D92AA32B107E1F70E945E04EE
:1001A0000C94EA0E0C9400001F920F920FB60F925F
:1001B00011248F938091BF018F5F8093BF018F9136
:1001C0000F900FBE0F901F9018951F920F920FB6B1
:1001D0000F921124109281001092850010928400D9
:1001E0000F900FBE0F901F9018951F920F920FB691
:1001F0000F9211242F933F934F938F939F93EF93DD
:10020000FF938091CC01282F2F5F2093CC01809108
:10021000CB01382F3F5F3093CB014091FD0143303C
:1002200049F4822F90E007972CF0E8E2F0E080811B
:1002300088608083822F90E00B973CF01092CC0175
:10024000E8E2F0E08081877F8083423039F43937FB
:1002500028F0EBE2F0E080818F7E8083383838F040
:100260001092CB01EBE2F0E0808180618083FF910E
:10027000EF919F918F914F913F912F910F900FBED2
:100280000F901F9018951F920F920FB60F92112486
:100290008F93EF93FF938091C600E091CF01F0E040
:1002A000EF71F070E452FE4F80838091CF018F5F39
:1002B0008093CF01FF91EF918F910F900FBE0F9020
:1002C0001F9018951F920F920FB60F9211248F93C3
:1002D0009F93EF93FF939091FC018091FF019817FA
:1002E00081F0E091FF01F0E0EF71F070E050FE4F1F
:1002F00080818093C6008091FF018F5F8093FF0112
:1003000005C0E1ECF0E080818F7D8083FF91EF916B
:100310009F918F910F900FBE0F901F901895809115
:10032000FC019091FF01891B08951F93CF93DF93E8
:10033000182FC0E2D0E00E948F019E01281B3109D6
:1003400023303105C4F3E091FC01F0E0EF71F0706F
:10035000E050FE4F10838091FC018F5F8093FC0181
:10036000E1ECF0E080818062808380E090E0DF91CA
:10037000CF911F9108958091CF019091FE01891B2B
:1003800008950E94BB018823E1F3E091FE01F0E0B3
:10039000EF71F070E452FE4F80819091FE019F5FFB
:1003A0009093FE0190E00895482F592F8091D0013D
:1003B0009091D101892BE1F4EAEDF1E04083518382
:1003C000DF0112974C9311965C93DF0114974C93C5
:1003D00011965C93DF0116974C9311965C93DF01A5
:1003E00018974C9311965C933A97408351830895E4
:1003F000E0EDF1E02AED31E08281938181939193E8
:10040000E217F307C9F7242F352F3093DB01209330
:10041000DA018091D8019091D901281B390BC901CB
:10042000880F991F220F331F220F331F220F331FF4
:10043000820F931F6091CD017091CE019B01220F1D
:10044000331FA901440F551F440F551F440F551F5B
:10045000240F351F260F371F820F931F64E170E0B2
:100460000E94630B7093CE016093CD010895A8EDB7
:10047000B1E0FD01219131918091D2019091D301A0
:10048000281B390BC901880F991F880F991F820FEC
:10049000931F1897408151812D913C911197421BD8
:1004A000530B9A01220F331F240F351F820F931F06
:1004B00016964D915C91179714962D913C91159736
:1004C000421B530B9A01220F331F240F351FA90122
:1004D000440F551F440F551F240F351F820F931FC4
:1004E00069E070E00E94630B862F972F089520919A
:1004F000DA013091DB018091D8019091D901281B5C
:10050000390B822F932F0895E5E2F0E020812068D7
:10051000208364E170E00E944F0B862F972F009795
:1005200061F020E030E048E853E1FA013197F1F75B
:100530002F5F3F4F28173907C0F3E5E2F0E08081D5
:100540008F7780830895F894A895833089F084305C
:1005500028F4813041F0823071F514C0843069F0A4
:10056000863049F51CC088E790E00E94840223C0D1
:100570008EE591E00E9484021EC082E593E00E9415
:10058000840219C080E590E00E94840280E29EE42B
:100590000197F1F780E590E00E9484020CC084E6A8
:1005A00090E00E94840288EC9FEA0197F1F78EE5C3
:1005B00091E00E948402789408951F93182F882355
:1005C00071F08091C901181721F080E091E00E943C
:1005D0002F0DE5E2F0E08081806480830DC0809182
:1005E000C901882321F08EE091E00E942F0DE5E201
:1005F000F0E080818F7B80831093C9011F91089563
:100600001F920F920FB60F9211242F933F934F9387
:100610005F936F937F938F939F93AF93BF93EF936A
:10062000FF9380918500209184009091CA01892BCD
:10063000822B09F06EC081E08093CA01A8951DBA93
:10064000789420E030E040E050E0E9E2F0E08081A2
:1006500082FF02C04F5F5F4F2F5F3F4F83E0283E16
:100660003807A9F7483C510508F04EC081E0809357
:10067000840082E0809381008091FD01882309F04D
:100680003DC081E08093FD010E94DD02EBE2F0E0DD
:100690008081806180838081886080834A9916C0D0
:1006A00020E030E044EC59E0E9E2F0E02F5F3F4F1A
:1006B000CA010197F1F7808182FD05C081E02C32EB
:1006C0003807A1F707C02C52314020F481E0809315
:1006D000FD011AC082E08093FD018DE191E00E944E
:1006E0002F0DEBE2F0E080818F7E80838081886037
:1006F000808386E090E00E94A30206C089E391E037
:100700000E942F0D1092FD0181E08CBB8DBB1092D9
:10071000CA01FF91EF91BF91AF919F918F917F910E
:100720006F915F914F913F912F910F900FBE0F905E
:100730001F9018951F93CF93DF93182F84EB0E947F
:100740008306812F0E94D10685EB0E94AA0688238A
:1007500019F085EB0E94AA060E94E406182F0E9459
:10076000E406382F20E0E901C10FD11D0E94E40604
:100770000E94FA06DD231CF460E070E007C0CE01A1
:1007800065E070E00E944F0B6B5A7A40862F972FDE
:10079000DF91CF911F910895CF92DF92EF92FF9258
:1007A0000F931F9300D08EE391E0ADB7BEB71296C2
:1007B0009C938E9311970E94130D00D0EDB7FEB756
:1007C00031960F2EF5E4EF2EF1E0FF2EF02DF182A1
:1007D000E0820F2EF0EDCF2EF1E0DF2EF02DD601CE
:1007E0008D919D918D01938382830E94130DEDB7AE
:1007F000FEB73196F182E082D8018D919C9193836E
:1008000082830E94130DEDB7FEB73196F182E0822C
:10081000D60114968D919C911597938382830E94A3
:10082000130DEDB7FEB73196F182E082D601169630
:100830008D919C911797938382830E94130DEDB73E
:10084000FEB73196F182E082D60118968D919C9187
:100850001997938382830E94130DEDB7FEB73196EB
:10086000F182E082D6011A968D919C911B97938319
:1008700082830E94130D0F900F900F900F908AE0CB
:1008800090E00E94280D1F910F91FF90EF90DF9054
:10089000CF9008958CE090E09093C5008093C400C1
:1008A00088E98093C10086E08093C20085E991E0E9
:1008B00061EC71E00E949B0C789408952F923F9216
:1008C0004F925F926F927F928F929F92AF92BF9260
:1008D000CF92DF92EF92FF920F931F93CF93DF930C
:1008E00080EC84B988E087B988E18AB98FE385B95B
:1008F00087EF88B90BE210E087EEF80180838091E2
:100900006400A89529E288E190E00FB6F894A895D4
:10091000809360000FBE209360000E944A040E94F2
:100920007C061092BF0187E08093B10091E0909324
:10093000700014BC83E085BD90936E00109280001F
:10094000109281001092820090936F0082E0809359
:1009500069009DBB89E491E00E942F0DF801808120
:10096000806180838081877F808380E00E94DD02B8
:100970001092FD017894C0E0D0E0EE24FF2410E056
:1009800033243A940F2EF3E08F2EF02D9924CC24AB
:10099000DD240F2EFBE2AF2EBB24F02D662477243E
:1009A0000F2EF3E02F2EF02D0F2EF8EA4F2EF1E64A
:1009B0005F2EF02D4091BF0140310CF453C1A8953A
:1009C000CE01612F70E00E94630B862F972FEC0100
:1009D0001092BF01209761F400D022E531E0EDB71D
:1009E000FEB7328321830E94130D0F900F900AC12E
:1009F0008820B9F000D000D0EDB7FEB731968FE572
:100A000091E091838083828213820E94130D8A94E5
:100A10000F900F900F900F9087E00E949A03EC01C7
:100A2000730100D000D0EDB7FEB731962BE631E070
:100A300031832083D383C2830E94130D0F900F90C4
:100A40000F900F90CE010E94D4010E9437028C01BA
:100A5000CE018C56924067EE7FEF0E94630B862F8B
:100A6000972FEC01DD230CF4E301C017D10784F4C8
:100A7000C601800F911F880F991F880F991F880F3B
:100A8000991FBE010E94630B862F972F6C0109C02E
:100A9000C601DD200CF403966C01D594C794D5945F
:100AA000C7943FEF063F13071CF406EF1FEF02C089
:100AB00011231CF59801220F331FC801880F991FBD
:100AC000880F991F880F991F280F391FC701880F9A
:100AD000991F880F991F880F991F8E199F09280F3A
:100AE000391F332314F4295F3F4F7901F594E794BC
:100AF000F594E794F594E79426C0EFE1F0E0EE9EDC
:100B0000C001EF9E900DFE9E900D11249801220FC2
:100B1000331FA801440F551F440F551F440F551F85
:100B2000240F351F280F391F332314F4215E3F4F44
:100B30007901F594E794F594E794F594E794F594A6
:100B4000E794F594E7942DB73EB72A5030400FB69E
:100B5000F8943EBF0FBE2DBFEDB7FEB7319686E7C6
:100B600091E09183808313830283F582E482D783AB
:100B7000C683D186C0860E94130DEDB7FEB73A96A4
:100B80000FB6F894FEBF0FBEEDBFF8E3EF16F10409
:100B90003CF425EFC21621E0D20614F4992432C0A9
:100BA00000D000D0EDB7FEB731968AE991E091838D
:100BB0008083928213820E94130D0F900F900F90EA
:100BC0000F908091FD01823049F4939493E099163F
:100BD000C9F481E00E94A302992414C00E94770204
:100BE000992384F09394E2E0E91548F42092C60139
:100BF00084E00E94A3029924689491F803C0822D96
:100C00000E94A3028091C6018823F1F0982F915091
:100C10009093C6018091FD01813011F42092FD0175
:100C200000D000D0EDB7FEB731962CEA31E0318329
:100C30002083928313820E94130DE30110E00F9032
:100C40000F900F900F9020C08091FD01833019F01C
:100C5000E30110E019C01092FD01E301730110E0FF
:100C600063011DC0242F332727FD3095832D90E08D
:100C70002817390749F0342E103130F41F5F87E010
:100C80000E949A03C80FD91F8091FD018130A9F0FD
:100C9000813028F08230A9F0833041F51AC080E01D
:100CA0000E94DD02F5018081806180838081877FE1
:100CB00080831092C60199241BC0F5018081806158
:100CC000808381E00E94DD02F5018081886080835D
:100CD0000FC080E00E94DD02F50180818F7E80835D
:100CE0008081886080837301630102C01092FD01DE
:100CF000C2010197F1F75ECEE8EBF0E088E4808373
:100D00008AE080830895982FECEBF0E0108284EA6B
:100D1000808380818823ECF78091B900887F8830B8
:100D200011F081E008959093BB0084E88093BC00AB
:100D3000ECEBF0E080818823ECF78091B900982FEC
:100D4000987F983111F480E0089580E0903409F0A4
:100D500081E00895982F84EA8093BC00ECEBF0E0EA
:100D600080818823ECF78091B900887F803111F071
:100D700081E008959093BB0084E88093BC00ECEB85
:100D8000F0E080818823ECF78091B900982F987F5C
:100D9000983111F480E0089580E0903409F081E00A
:100DA00008958093BB0084E88093BC00ECEBF0E0F6
:100DB00080818823ECF78091B90090E0887F8832A9
:100DC00009F091E0892F089584EC8093BC00ECEB4E
:100DD000F0E080818823ECF78091BB00089584E8DF
:100DE0008093BC00ECEBF0E080818823ECF78091ED
:100DF000BB00089584E98093BC000895CF92DF92F0
:100E0000EF92FF920F931F93CF93DF93182F062F2C
:100E10007A0169010E948306882321F5802F0E94B0
:100E2000D106812F81600E9483068823D9F4860130
:100E30000150104061F0C0E0D0E00E94E406F701EC
:100E4000EC0FFD1F80832196C017D107B0F30E94DD
:100E5000EF06F701EC0DFD1D319780830E94FA0625
:100E600080E001C081E0DF91CF911F910F91FF9051
:100E7000EF90DF90CF900895DF92EF92FF920F9363
:100E80001F93CF93DF93D62E7A0189010E948306A8
:100E90008823C1F48D2D0E94D1060115110571F032
:100EA000C0E0D0E0F701EC0FFD1F80810E94D10669
:100EB000882341F42196C017D107A0F30E94FA06B7
:100EC00080E001C081E0DF91CF911F910F91FF90F1
:100ED000EF90DF900895CF92DF92EF92FF920F9301
:100EE0001F93CF93DF937B016A0181600E94830689
:100EF000882311F081E01AC086010150104061F092
:100F0000C0E0D0E00E94E406F701EC0FFD1F8083F3
:100F10002196C017D107B0F30E94EF06F701EC0D40
:100F2000FD1D319780830E94FA0680E0DF91CF910A
:100F30001F910F91FF90EF90DF90CF900895EF9267
:100F4000FF920F931F93CF93DF937B018A010E943F
:100F500083068823A9F40115110571F0C0E0D0E0E3
:100F6000F701EC0FFD1F80810E94D106882341F418
:100F70002196C017D107A0F30E94FA0680E001C0B5
:100F800081E0DF91CF911F910F91FF90EF90089535
:100F9000A1E1B0E0EEECF7E00C94760B3C017F872A
:100FA0006E876A01FC0117821682838181FD03C06E
:100FB0006FEF7FEF6FC39E012F5F3F4F398B288B01
:100FC000F3012381EE85FF8523FD859123FF819128
:100FD000FF87EE87882309F45AC3853251F4EE85E2
:100FE000FF8523FD859123FF8191FF87EE87853261
:100FF00029F490E0B3010E94E70CE2CF982F10E0B3
:10100000882499241032B0F49B3269F09C3228F481
:10101000903251F0933271F40BC09D3239F090331D
:1010200049F4116028C01260146025C0186023C004
:10103000106121C017FD2AC0892F80538A3078F4AF
:1010400016FF06C0FAE09F9E902C1124980E13C044
:101050003AE0839E802C1124880E10620CC09E32D0
:1010600021F416FD14C3106406C09C3611F41068F8
:1010700002C0983659F4EE85FF8523FD959123FF34
:101080009191FF87EE87992309F0BCCF892F855472
:10109000833020F4812F8061905E07C0892F8556B0
:1010A000833008F09FC1812F8F7E86FD02C076E0DD
:1010B000972E6FE3F62EF822953619F4F0E4FF2A06
:1010C00007C0963619F420E8F22A02C091109A94CB
:1010D000F7FE0AC03BE3391518F45CE3B52E02C0F5
:1010E000B92CB39427E009C047E0491520F4BB248C
:1010F00047E0942EF7CF292DBB24C60104969D8787
:101100008C87F6016081718182819381AE014F5F8E
:101110005F4F0B2D0E94AD0B6C010981202E3324F3
:1011200000FF04C003FD02C01DE209C0F1FE02C0C1
:101130001BE205C0F2FC02C010E001C010E2C101D8
:101140008C709070892BB9F1112311F483E001C0E8
:1011500084E0881510F088240AC0881AF3FC07C0C0
:1011600080E290E0B3010E94E70C8A94C9F7112352
:1011700029F0812F90E0B3010E94E70C23FE03C009
:1011800008E610E00EC00CE610E00BC0E114F1041C
:1011900009F0805290E0B3010E94E70C0F5F1F4FEF
:1011A00005C0EF2CFF24F0E1EF22FF24F801849129
:1011B000882361F714C1F7FE12C0BC0C24FE04C0E2
:1011C0008A81813309F4BA941B141CF0BB24B394B4
:1011D0002DC0F8E0FB1550F538E0B32E27C0F6FC23
:1011E00025C0892D90E08C159D054CF02CEFC21682
:1011F0002FEFD20624F030E8F32A01C09A94992008
:1012000049F0E2E0F0E0EC0FFD1FE90DF11D8081F7
:101210008033A1F3F7FE0AC0B92CB394892D90E076
:10122000C816D90614F0992401C09C18F7FC03C015
:1012300025E030E009C01C141D041CF021E030E062
:1012400003C096012F5F3F4F112311F02F5F3F4FD7
:10125000992029F0892D90E00196280F391F882DBB
:1012600090E02817390714F0882401C0821A4F2C07
:101270005524C20189709070892B39F008C080E232
:1012800090E0B3010E94E70C8A948820C1F71123F3
:1012900029F0812F90E0B3010E94E70C43FE07C0C4
:1012A00008C080E390E0B3010E94E70C8A94882094
:1012B000C1F7F7FE46C08601D7FE02C000E010E08D
:1012C00076010894E11CF11CE01AF10A41E050E0BB
:1012D0004C0F5D1FE40EF51E26014B185108892D99
:1012E00090E0AA24BB24A81AB90A5FEF0F3F1507A4
:1012F00029F48EE290E0B3010E94E70CC016D106FB
:1013000034F0401651061CF4F701808101C080E3DF
:10131000015010400894E11CF11C0A151B052CF02B
:1013200090E0B3010E94E70CE0CF0C151D0539F4E5
:101330009A81963318F4953311F424FE81E390E0FA
:101340004BC08A81813309F00F7E90E0B3010E9487
:10135000E70C9920A1F08EE290E0B3010E94E70C27
:1013600012E0E1E0F0E0EC0FFD1FE10FF11D1F5F67
:10137000808190E0B3010E94E70C9A9491F744FCBD
:1013800003C085E690E002C085E490E0B3010E94CE
:10139000E70CD7FC05C0C114D10441F404FF06C01A
:1013A000D094C194D108D3948DE201C08BE290E037
:1013B000B3010E94E70C80E305C08F5F26EF3FEF8B
:1013C000C20ED31E3AE0C316D104BCF790E0B301BD
:1013D0000E94E70CC601C096B3010E94E70CCC84C2
:1013E000DD8452C1933631F0933799F0933509F08B
:1013F00059C023C0F601808189835E010894A11C35
:10140000B11C22E030E0C20ED31E21E0E22EF12C0E
:1014100012C0F601A080B18016FD03C06FEF7FEF10
:1014200002C0692D70E022E030E0C20ED31EC5017B
:101430000E94900C7C011F7713C0F601A080B18040
:1014400016FD03C06FEF7FEF02C0692D70E022E050
:1014500030E0C20ED31EC5010E94850C7C011068CD
:1014600013FF07C01BC080E290E0B3010E94E70CAD
:101470008A94882D90E0E816F906A8F30FC0F501CC
:1014800017FD859117FF81915F0190E0B3010E94E4
:10149000E70C81108A940894E108F108E114F10442
:1014A00071F7F2C0943611F0993689F517FF08C02C
:1014B000F601208131814281538184E090E00AC0AD
:1014C000F601808191819C01442737FD4095542F7E
:1014D00082E090E0C80ED91E9FE6F92EF12257FF58
:1014E00009C050954095309521953F4F4F4F5F4F24
:1014F00090E8F92ACA01B901AE014F5F5F4F2AE0B7
:1015000030E00E94640DE82EE889EE1A41C095375C
:1015100021F41F7E2AE030E01CC0197F9F3661F065
:10152000903720F4983509F0B2C00FC0903739F0E9
:10153000983709F0ACC004C028E030E00AC0106160
:1015400014FD146020E130E004C014FD166020E1B9
:1015500032E017FF08C0F6016081718182819381BA
:1015600044E050E008C0F60180819181BC0180E038
:1015700090E042E050E0C40ED51EAE014F5F5F4FD9
:101580000E94640DE82E5889E51A8FE7F82EF122A3
:10159000F6FE0BC08EEFF822E91438F4F4FE07C013
:1015A000F2FC05C09FEEF92202C01E2D01C0192DCC
:1015B000F4FE0DC0FE01EE0DF11D8081803319F4A3
:1015C000E9EEFE2208C01F5FF2FE05C003C08F2DAA
:1015D000867809F01F5F0F2DF3FC14C0F0FE0FC0DA
:1015E000181510F09E2C0BC09E2C980C911A182DDB
:1015F00006C080E290E0B3010E94E70C1F5F18155F
:10160000C0F304C0181510F4811A01C0882404FF27
:101610000FC080E390E0B3010E94E70C02FF1DC001
:1016200001FD03C088E790E00EC088E590E00BC0A4
:10163000802F867891F001FF02C08BE201C080E22A
:10164000F7FC8DE290E0B3010E94E70C06C080E356
:1016500090E0B3010E94E70C9A94E914C0F3EA9475
:10166000E1E0F0E0EC0FFD1FEE0DF11D808190E058
:10167000B3010E94E70CEE2091F706C080E290E0F3
:10168000B3010E94E70C8A948820C1F799CCF3013A
:1016900066817781CB016196E2E10C94920BAA1BE3
:1016A000BB1B51E107C0AA1FBB1FA617B70710F04D
:1016B000A61BB70B881F991F5A95A9F7809590957F
:1016C000BC01CD01089597FB092E07260AD077FDAE
:1016D00004D0E5DF06D000201AF4709561957F4FA5
:1016E0000895F6F7909581959F4F08952F923F9218
:1016F0004F925F926F927F928F929F92AF92BF9222
:10170000CF92DF92EF92FF920F931F93CF93DF93CD
:10171000CDB7DEB7CA1BDB0B0FB6F894DEBF0FBE2A
:10172000CDBF09942A88398848885F846E847D8477
:101730008C849B84AA84B984C884DF80EE80FD8079
:101740000C811B81AA81B981CE0FD11D0FB6F894EF
:10175000DEBF0FBECDBFED010895283008F027E0B1
:101760003327DA01990F311D87FD916000966105DD
:10177000710539F432602E5F3D9330E32A95E1F72D
:1017800008959F3F30F080387105610509F03C5F96
:101790003C5F3D93913008F08068911DDF93CF93BB
:1017A0001F930F93FF92EF92192F987F9695E92F31
:1017B00096959695E90FFF27E653FF4F9927332714
:1017C000EE24FF24A701E70105900894079428F46C
:1017D000360FE71EF81E491F511D660F771F881F21
:1017E000991F0694A1F70590079428F4E70EF81EB8
:1017F000491F561FC11D770F881F991F661F06942A
:10180000A1F70590079428F4F80E491F561FC71F2B
:10181000D11D880F991F661F771F0694A1F70590A9
:10182000079420F4490F561FC71FD81F990F661F32
:10183000771F881F0694A9F784911095177041F0BF
:10184000D695C79557954795F794E7941A95C1F79C
:10185000E0E7F0E0689415901591359165919591C8
:1018600005907FE27395E118F10A430B560BC90B03
:10187000D009C0F7E10CF11E431F561FC91FD01D30
:101880007EF4703311F48A95E6CFE894015030F07D
:10189000080F0AF40027021708F4202F2395022FBF
:1018A0007A3328F079E37D932A95E9F710C07D9388
:1018B0002A9589F606949795679537951795179405
:1018C000E118F10A430B560BC90BD00998F0239588
:1018D0007E9173957A3308F070E37C932013B8F708
:1018E0007E9170617D9330F0839571E37D9370E319
:1018F0002A95E1F71124EF90FF900F911F91CF915E
:10190000DF91992787FD90950895FC01059061501E
:1019100070400110D8F7809590958E0F9F1F089505
:10192000FC016150704001900110D8F780959095AE
:101930008E0F9F1F08950F931F93CF93DF938C01FA
:10194000EB01009731F46115710519F420E030E0E6
:1019500038C081E090E06EE070E00E94C20DFC01B2
:101960009C01009771F180E88383209771F0D38701
:10197000C28781E883838091200290912102892B84
:1019800021F4F0932102E093200201151105C9F022
:1019900011870087838182608383809122029091E6
:1019A0002302892B71F4F0932302E09322028091A9
:1019B000240290912502892B21F4F0932502E093D3
:1019C0002402C901DF91CF911F910F9108950F93C8
:1019D0001F93CF93DF938C01EB018B8181FF1BC0A1
:1019E00082FF0DC02E813F818C819D812817390790
:1019F00064F4E881F9810193F983E88306C0E885FE
:101A0000F985802F0995892B31F48E819F8101966C
:101A10009F838E8302C00FEF1FEFC801DF91CF912C
:101A20001F910F910895A0E0B0E0E9E1FDE00C9472
:101A3000860BFE0135966191719180912202909101
:101A40002302AF010E94C8072096E2E00C94A20B8B
:101A500060912202709123020E94E70C08950F9377
:101A60001F93CF93DF938C01E0912202F091230228
:101A7000838181FF21C0C0E0D0E00DC0E09122024F
:101A8000F091230220853185BF01F9010995892B49
:101A900011F0CFEFDFEFF80181918F01882371F70B
:101AA000E0912202F0912302208531858AE0BF0176
:101AB000F9010995892B11F0CFEFDFEFCE01DF910E
:101AC000CF911F910F910895FA01AA27283051F163
:101AD000203181F1E8946F936E7F6E5F7F4F8F4F5F
:101AE0009F4FAF4FB1E03ED0B4E03CD0670F781FBE
:101AF000891F9A1FA11D680F791F8A1F911DA11DA3
:101B00006A0F711D811D911DA11D20D009F46894DB
:101B10003F912AE0269F11243019305D3193DEF683
:101B2000CF010895462F4770405D4193B3E00FD039
:101B3000C9F7F6CF462F4F70405D4A3318F0495D24
:101B400031FD4052419302D0A9F7EACFB4E0A69507
:101B50009795879577956795BA95C9F70097610529
:101B6000710508959B01AC010A2E0694579547957F
:101B700037952795BA95C9F7620F731F841F951F74
:101B8000A01D08950F931F93CF93DF93689F80014B
:101B9000699F100D789F100D1124C8010E94DE0D61
:101BA000EC01009729F060E070E0A8010E94E30ECC
:101BB000CE01DF91CF911F910F910895CF93DF93C5
:101BC000BC018230910510F462E070E0A09128021F
:101BD000B0912902ED01E0E0F0E040E050E021C0EA
:101BE000888199818617970769F48A819B8130974C
:101BF00019F09383828304C0909329028093280272
:101C0000FE0134C06817790738F44115510519F001
:101C10008417950708F4AC01FE018A819B819C0121
:101C2000E9012097E9F641155105A9F1CA01861B82
:101C3000970B049708F4BA01E0E0F0E02AC08D9118
:101C40009C91119784179507F9F46417750781F42F
:101C500012968D919C911397309719F093838283FC
:101C600004C09093290280932802FD0132964FC050
:101C7000CA01861B970BFD01E80FF91F6193719351
:101C800002978D939C9343C0FD01828193819C01B7
:101C9000D9011097A1F68091260290912702892BF5
:101CA00041F48091C2019091C301909327028093E7
:101CB00026024091C4015091C5014115510541F4DE
:101CC0004DB75EB78091C0019091C101481B590B7F
:101CD000209126023091270224173507B0F4CA015B
:101CE000821B930B8617970780F0AB014E5F5F4F07
:101CF0008417950750F0420F531F509327024093CB
:101D00002602F9016193719302C0E0E0F0E0CF0197
:101D1000DF91CF910895CF93DF93009709F450C0DE
:101D2000EC0122971B821A82A0912802B09129020D
:101D3000109709F140E050E0AC17BD0708F1BB83F4
:101D4000AA83FE0121913191E20FF31FAE17BF0765
:101D500079F48D919C911197280F391F2E5F3F4F79
:101D60003983288312968D919C9113979B838A8344
:101D70004115510571F4D0932902C093280220C067
:101D800012968D919C911397AD01009711F0DC0193
:101D9000D3CFFA01D383C28321913191E20FF31F94
:101DA000CE17DF0769F488819981280F391F2E5FCC
:101DB0003F4FFA01318320838A819B819383828301
:101DC000DF91CF910895DC0101C06D9341505040E7
:081DD000E0F70895F894FFCF3D
:101DD8003E3E3E2052656C616973204F4E003E3E88
:101DE8003E2052656C616973204F46460054656D0C
:101DF80070657261747572652050726F7465637472
:101E0800696F6E204F666621000A78587800417223
:101E18007261793A00202569000A0A537461727464
:101E28000A004572726F722054656D703D30005320
:101E3800746172747570202569200054656D703A5C
:101E48002025692C2000736C5F7261773A20256920
:101E58002C20736C3A2025692C20663A2025692CA1
:101E680020696E743A2025690A004F6E2D436F75FC
:101E78006E7465723A2025693B200A004F66662D0C
:101E8800436F756E7465723A2025693B200A00F429
:061E980020002A020000F8
:00000001FF
