:100000000C94B5000C944F010C94D2000C94D200C7
:100010000C94D2000C94D2000C94D2000C94D20018
:100020000C94D2000C94D4000C94D2000C94D20006
:100030000C94D2000C94D2000C94D2000C94D200F8
:100040000C94EB000C94D2000C94F4010C9422025A
:100050000C94D2000C94D2000C94D2000C94D200D8
:100060000C94D2000C94D2006E616E00696E660032
:1000700000407A10F35A00A0724E18090010A5D45F
:10008000E80000E87648170000E40B54020000CABC
:100090009A3B000000E1F505000080969800000002
:1000A00040420F000000A086010000001027000061
:1000B0000000E803000000006400000000000A00E7
:1000C000000000000100000000002C76D888DC67EA
:1000D0004F0823DFC1DFAE59E1B1B796E5E3E45342
:1000E000C63AE651997696E8E6C28426EB898C9B5F
:1000F00062ED407C6FFCEFBC9C9F40F2BAA56FA5FF
:10010000F490055A2AF75C936B6CF9676DC11BFC80
:10011000E0E40D47FEF520E6B500D0ED902E03009B
:10012000943577050080841E080000204E0A0000E8
:1001300000C80C333333330F986E12831141EF8DA7
:100140002114893BE65516CFFEE6DB18D1844B38E7
:100150001BF77C1D901DA4BBE424203284725E2218
:100160008100C9F124ECA1E53D2711241FBECFEF8A
:10017000D4E0DEBFCDBF12E0A0E0B1E0EEEBF1E2F3
:1001800002C005900D92AE35B107D9F712E0AEE589
:10019000B2E001C01D92A03CB107E1F70E94FB0450
:1001A0000C94DD100C9400001F920F920FB60F926A
:1001B00011248F93DF93CF93CDB7DEB780910001E9
:1001C0008F5F80930001CF91DF918F910F900FBED1
:1001D0000F901F9018951F920F920FB60F92112437
:1001E0002F933F934F935F938F939F93AF93BF93BF
:1001F000EF93FF93DF93CF930F92CDB7DEB71982C2
:10020000809160028F5F80936002809193028330BF
:10021000C9F480916002482F50E08981282F30E096
:1002200087E090E0022E02C0880F991F0A94E2F73F
:10023000841795073CF4A8E2B0E0E8E2F0E08081A2
:1002400088608C9380916002482F50E08981282F2C
:1002500030E08FE090E0022E02C0880F991F0A94D0
:10026000E2F7841795074CF410926002A8E2B0E020
:10027000E8E2F0E08081877F8C930F90CF91DF914F
:10028000FF91EF91BF91AF919F918F915F914F91AE
:100290003F912F910F900FBE0F901F9018951F92B6
:1002A0000F920FB60F9211242F933F934F935F93AA
:1002B0006F937F938F939F93AF93BF93EF93FF932E
:1002C000DF93CF9300D000D0CDB7DEB7809161022D
:1002D000882329F088E590E00E941B0F6EC081E022
:1002E000809361021982EDE3F0E01082789400D0EF
:1002F000EDB7FEB7319689E091E0918380830E944B
:10030000060F0F900F901A820FC0E9E2F0E0808193
:10031000882F90E084709070009719F089818F5F2A
:1003200089838A818F5F8A838A818A3F70F389817A
:10033000282F30E000D000D0EDB7FEB731968CE02A
:1003400091E091838083338322830E94060F0F9074
:100350000F900F900F908981843608F58091930259
:10036000282F30E03C832B838B819C81009731F0D8
:100370002B813C812130310569F00FC080915E02F4
:10038000882321F083E08093930209C081E0809369
:10039000930205C01092930202C01092930281E171
:1003A00091E00E94220FECE3F0E081E08083EDE336
:1003B000F0E081E08083109261020F900F900F9027
:1003C0000F90CF91DF91FF91EF91BF91AF919F91EE
:1003D0008F917F916F915F914F913F912F910F90EE
:1003E0000FBE0F901F9018951F920F920FB60F928D
:1003F00011248F939F93EF93FF93DF93CF930F92EB
:10040000CDB7DEB7E6ECF0E08081898380916502AC
:10041000882F90E08F719070FC01EE58FD4F89811C
:100420008083809165028F5F809365020F90CF91EA
:10043000DF91FF91EF919F918F910F900FBE0F90E1
:100440001F9018951F920F920FB60F9211248F9341
:100450009F93AF93BF93EF93FF93DF93CF93CDB76A
:10046000DEB79091920280919502981799F0A6ECD0
:10047000B0E080919502882F90E08F719070FC0120
:10048000EA56FD4F80818C93809195028F5F809317
:10049000950207C0A1ECB0E0E1ECF0E080818F7D37
:1004A0008C93CF91DF91FF91EF91BF91AF919F918D
:1004B0008F910F900FBE0F901F901895DF93CF93E1
:1004C000CDB7DEB79091920280919502292F281B1B
:1004D000822FCF91DF910895DF93CF9300D00F92B9
:1004E000CDB7DEB789837B836A830E945E02282FA3
:1004F00030E080E290E0821B930B83309105ACF3F7
:1005000080919202882F90E08F719070FC01EA56E2
:10051000FD4F89818083809192028F5F8093920248
:10052000A1ECB0E0E1ECF0E0808180628C9380E0AF
:1005300090E00F900F900F90CF91DF910895DF938F
:10054000CF93CDB7DEB79091650280919402292FA9
:10055000281B822FCF91DF910895DF93CF9300D096
:100560000F92CDB7DEB79B838A830E949F028823B8
:10057000E1F380919402882F90E08F719070FC01DC
:10058000EE58FD4F80818983809194028F5F809324
:1005900094028981882F90E00F900F900F90CF9157
:1005A000DF910895DF93CF93CDB7DEB7E4ECF0E0B1
:1005B0008CE090E091838083E1ECF0E088E9808337
:1005C000E2ECF0E086E080838CE692E02DEA32E017
:1005D000B9010E948E0E7894CF91DF910895DF9338
:1005E000CF930F92CDB7DEB700D0EDB7FEB73196FF
:1005F00085E191E0918380830E94060F0F900F9018
:1006000019821EC08981882F90E0880F991FFC01F4
:10061000EA59FD4F2081318100D000D0EDB7FEB7FF
:1006200031968CE191E091838083338322830E9411
:10063000060F0F900F900F900F9089818F5F898325
:1006400089818630F8F28AE090E00E941B0F0F90BB
:10065000CF91DF910895DF93CF9300D00F92CDB764
:10066000DEB79B838A838091660290916702009730
:1006700079F58A819B8190937102809370028091B9
:1006800070029091710290936F0280936E0280913C
:100690006E0290916F0290936D0280936C02809134
:1006A0006C0290916D0290936B0280936A0280912C
:1006B0006A0290916B029093690280936802809124
:1006C000680290916902909367028093660259C014
:1006D000198219C08981482F50E08981882F90E0C4
:1006E0000196880F991FFC01EA59FD4F2081318145
:1006F000CA01880F991FFC01EA59FD4F31832083FD
:1007000089818F5F89838981873020F38A819B81EA
:100710009093710280937002209170023091710267
:1007200080916E0290916F02A901481B590BCA017A
:100730009C01220F331FC901880F991F880F991F31
:10074000B901680F791F4091630250916402CA0198
:10075000880F991F9C01220F331F220F331F220F76
:10076000331F820F931F840F951F860F971F24E15D
:1007700030E0B9010E94560DCB0190936402809342
:1007800063020F900F900F90CF91DF910895DF9348
:10079000CF9300D000D000D0CDB7DEB7209170024B
:1007A000309171028091660290916702A901481B05
:1007B000590BCA019E838D8320916E0230916F0286
:1007C0008091680290916902A901481B590BCA01E6
:1007D0009C838B8320916C0230916D0280916A0220
:1007E00090916B02A901481B590BCA019A83898316
:1007F0002D813E81C901880F991FAC01420F531F03
:100800002B813C81C901880F991F880F991F820F86
:10081000931F480F591F29813A81C901880F991FD9
:10082000820F931F9C01220F331F220F331F820F51
:10083000931F840F951F29E030E0B9010E94560DE7
:10084000CB0126960FB6F894DEBF0FBECDBFCF9179
:10085000DF910895DF93CF93CDB7DEB727970FB61B
:10086000F894DEBF0FBECDBF8E836F831D821C82C6
:10087000209170023091710280916E0290916F020E
:10088000820F931F959587959B838A838F81282F4D
:1008900030E08E81992787FD9095AC01249FC0019F
:1008A000259F900D349F900D11249C018A819B817E
:1008B000820F931F27960FB6F894DEBF0FBECDBFF1
:1008C000CF91DF910895DF93CF93CDB7DEB72F9708
:1008D0000FB6F894DEBF0FBECDBF8D8784EB0E94AC
:1008E000A4078D850E94270885EB90E00E94E7070A
:1008F0008C838C81882321F085EB90E00E94E707B0
:100900000E944E088B830E944E088A838A81882F1A
:1009100090E0982F88279C018B81882F90E0820F90
:10092000931F9E838D830E944E0889830E94B00985
:100930008D819E8199231CF41F861E860DC08D819A
:100940009E8125E030E0B9010E94420DCB019C015F
:100950002B5A3A403F872E878E859F852F960FB65C
:10096000F894DEBF0FBECDBFCF91DF910895DF9326
:10097000CF9300D0CDB7DEB79A83898389819A81DE
:100980000097A9F080916202282F30E089819A8136
:100990002817390721F080E291E00E94220FA5E29A
:1009A000B0E0E5E2F0E0808180648C9314C0809137
:1009B0006202282F30E089819A812817390721F0B7
:1009C0008EE291E00E94220FA5E2B0E0E5E2F0E0C5
:1009D00080818F7B8C938981809362020F900F902E
:1009E000CF91DF910895DF93CF93CDB7DEB70000AD
:1009F000CF91DF910895DF93CF93CDB7DEB76597A1
:100A00000FB6F894DEBF0FBECDBFE4E2F0E080EC9D
:100A10008083E7E2F0E088E08083EAE2F0E088E1CA
:100A20008083E5E2F0E08FE38083E8E2F0E087EFA7
:100A30008083EBE2F0E087EE8083E4E6F0E0208163
:100A4000A89588E190E029E20FB6F894A8958093E4
:100A500060000FBE209360000E94D2020E949507A2
:100A600010920001E1EBF0E087E08083E0E7F0E046
:100A700081E08083E4E4F0E01082E5E4F0E083E0EC
:100A80008083EEE6F0E081E08083E9E6F0E082E05A
:100A90008083EDE3F0E081E08083ABE2B0E0EBE265
:100AA000F0E0808180618C93ABE2B0E0EBE2F0E0BB
:100AB0008081877F8C938DE391E00E94220F80E0FC
:100AC00090E00E94B704109293021C828FEF8B83F8
:100AD0001C861B868CE99FEF98878F837894809182
:100AE000000180310CF4AFC1A895109200011C8266
:100AF0008B859C85929582958F7089279F70892719
:100B00009E878D871C861B868D859E85009769F440
:100B100000D0EDB7FEB7319684E491E091838083F5
:100B20000E94060F0F900F9044C18F8198859923E2
:100B30003CF418861F8287E00E9463049E878D879D
:100B400000D000D0EDB7FEB7319681E591E09183FA
:100B500080838D859E85938382830E94060F0F90EC
:100B60000F900F900F908D859E850E942B030E9401
:100B7000C7039E838D832F813885C901880F991FF4
:100B8000820F931F9C01220F331F220F331FAC01D2
:100B9000420F531F8D819E819C01220F331FC9017B
:100BA000880F991F880F991F820F931F840F951F1D
:100BB0009D8B8C8B8C899D89992334F42C893D895C
:100BC000215F3F4F3D8B2C8B8C899D899595879517
:100BD00095958795959587959595879598878F8312
:100BE00020916302309164028DB79EB708970FB6CB
:100BF000F8949EBF0FBE8DBFEDB7FEB731968CE562
:100C000091E0918380838D819E81938382838F8104
:100C1000988595838483378326830E94060F2DB79A
:100C20003EB7285F3F4F0FB6F8943EBF0FBE2DBFB3
:100C30008F8165E00E942A049A87898786E00E9456
:100C400063049C0100D000D0EDB7FEB7319683E875
:100C500091E091838083338322830E94060F0F905B
:100C60000F900F900F908D859E8531E0813E930708
:100C7000B0F08F8198858F3191050CF49AC08BE08C
:100C800080935E0200D0EDB7FEB7319680E991E027
:100C9000918380830E94060F0F900F908AC08D85EC
:100CA0009E8521E0833C9207B0F08F819885833345
:100CB00091050CF47EC08BE080935E0200D0EDB70E
:100CC000FEB731968EEA91E0918380830E94060FF1
:100CD0000F900F906EC08D859E8531E0813993070E
:100CE000E8F08F8198858D3391050CF462C08BE01C
:100CF00080935E0200D000D0EDB7FEB731968CEC49
:100D000091E0918380838F819885938382830E9471
:100D1000060F0F900F900F900F904BC08D859E8502
:100D200021E08F359207B0F08F819885813591054C
:100D30000CF43FC08BE080935E0200D0EDB7FEB7AD
:100D400031968AEE91E0918380830E94060F0F9086
:100D50000F902FC08D859E8531E08D329307A8F0CE
:100D60008F8198858937910524F18BE080935E020D
:100D700000D0EDB7FEB7319688E092E09183808392
:100D80000E94060F0F900F9014C08F819885813AB2
:100D900091057CF08BE080935E0200D0EDB7FEB74A
:100DA000319686E292E0918380830E94060F0F9035
:100DB0000F9080915E02882311F180915E02815034
:100DC00080935E0280919302813019F483E08093D6
:100DD000930280915E02282F30E000D000D0EDB762
:100DE000FEB7319689E492E0918380833383228336
:100DF0000E94060F0F900F900F900F9046C029850C
:100E00003A8580910501909106011A8A28173907C1
:100E100010F481E08A8B2091070130910801198A32
:100E20008D859E858217930710F491E0998B8A89AE
:100E300029898223882349F180919302833029F5FF
:100E40001092930222C080910001282F332727FDA2
:100E500030958B81882F90E028173907B1F0809169
:100E600000018B838C81803180F487E00E946304D1
:100E70009A8389838C818F5F8C832B853C858981C4
:100E80009A81820F931F9C878B8780919302282FD2
:100E900030E0388B2F878F85988981309105E1F07C
:100EA0002F8538892330310551F18F859889009736
:100EB000C9F580E090E00E94B704ABE2B0E0EBE25D
:100EC000F0E0808180618C93ABE2B0E0EBE2F0E097
:100ED0008081877F8C9303CE81E090E00E94B704ED
:100EE000ABE2B0E0EBE2F0E0808180618C93ABE2BA
:100EF000B0E0EBE2F0E0808188608C93F0CD80E0A0
:100F000090E00E94B704ABE2B0E0EBE2F0E0808159
:100F10008F7E8C93ABE2B0E0EBE2F0E08081886002
:100F20008C93DDCD10929302DACDDF93CF93CDB7C2
:100F3000DEB7E8EBF0E088E48083E8EBF0E08AE0FD
:100F40008083CF91DF910895DF93CF9300D00F92EC
:100F5000CDB7DEB78A83ECEBF0E01082ECEBF0E08B
:100F600084EA8083ECEBF0E080818823DCF7E9EB16
:100F7000F0E08081882F90E0887F90708830910524
:100F800019F081E08B831CC0EBEBF0E08A81808359
:100F9000ECEBF0E084E88083ECEBF0E080818823E8
:100FA000DCF7E9EBF0E08081887F898389818831F3
:100FB00031F08981803419F081E08B8301C01B827C
:100FC0008B810F900F900F90CF91DF910895DF9359
:100FD000CF9300D00F92CDB7DEB78A83ECEBF0E071
:100FE00084EA8083ECEBF0E080818823DCF7E9EB96
:100FF000F0E08081882F90E0887F907080319105AB
:1010000019F081E08B831CC0EBEBF0E08A818083D8
:10101000ECEBF0E084E88083ECEBF0E08081882367
:10102000DCF7E9EBF0E08081887F89838981883172
:1010300031F08981803419F081E08B8301C01B82FB
:101040008B810F900F900F90CF91DF910895DF93D8
:10105000CF9300D0CDB7DEB78983EBEBF0E0898189
:101060008083ECEBF0E084E88083ECEBF0E08081BF
:101070008823DCF7E9EBF0E08081882F90E0887F1F
:1010800090708832910519F081E08A8301C01A823C
:101090008A810F900F90CF91DF910895DF93CF93C6
:1010A000CDB7DEB7ECEBF0E084EC8083ECEBF0E066
:1010B00080818823DCF7EBEBF0E08081CF91DF913A
:1010C0000895DF93CF93CDB7DEB7ECEBF0E084E883
:1010D0008083ECEBF0E080818823DCF7EBEBF0E041
:1010E0008081CF91DF910895DF93CF93CDB7DEB7A5
:1010F00028970FB6F894DEBF0FBECDBF8B837D83DC
:101100006C835F834E838B810E94A407882319F030
:1011100081E0888721C01A82198214C02C813D8108
:1011200089819A81F901E80FF91F80810E942708BF
:10113000882319F081E088870FC089819A81019600
:101140009A83898329813A818E819F812817390763
:1011500028F30E94B0091886888528960FB6F8945F
:10116000DEBF0FBECDBFCF91DF9108950F931F93C8
:10117000DF93CF93CDB7DEB728970FB6F894DEBFD5
:101180000FBECDBF8B837D836C835F834E838B814A
:1011900081600E94A407882319F081E088872EC00F
:1011A0001A82198210C02C813D8189819A8189011E
:1011B000080F191F0E944E08F801808389819A81C7
:1011C00001969A8389838E819F819C0121503040B2
:1011D00089819A818217930730F38E819F819C01C8
:1011E000215030408C819D818C01020F131F0E9481
:1011F0006108F80180830E94B009188688852896C6
:101200000FB6F894DEBF0FBECDBFCF91DF911F9117
:101210000F910895DF93CF93CDB7DEB729970FB61F
:10122000F894DEBF0FBECDBF8B836C835E834D838E
:1012300038872F838B810E94A407882319F081E0CF
:10124000898724C08C810E9427081A82198214C0C1
:101250002D813E8189819A81F901E80FF91F8081F2
:101260000E942708882319F081E089870FC08981AF
:101270009A8101969A83898329813A818F81988501
:101280002817390728F30E94B009198689852996FD
:101290000FB6F894DEBF0FBECDBFCF91DF9108959A
:1012A0000F931F93DF93CF93CDB7DEB729970FB678
:1012B000F894DEBF0FBECDBF8B836C835E834D83FE
:1012C00038872F838B810E94A407882319F081E03F
:1012D00089873AC08C810E9427088B8181600E9497
:1012E000A407882319F0E1E0E9872EC01A82198249
:1012F00010C02D813E8189819A818901080F191FB3
:101300000E944E08F801808389819A8101969A8310
:1013100089838F8198859C012150304089819A81F1
:101320008217930730F38F8198859C0121503040BC
:101330008D819E818C01020F131F0E946108F801AC
:1013400080830E94B0091986898529960FB6F89482
:10135000DEBF0FBECDBFCF91DF911F910F910895DA
:10136000DF93CF93CDB7DEB7ECEBF0E084E9808379
:10137000CF91DF910895A1E1B0E0E1ECF9E00C94A8
:10138000690D3C017F876E876A01FC011782168216
:10139000838181FD03C06FEF7FEF6FC39E012F5FDD
:1013A0003F4F398B288BF3012381EE85FF8523FD89
:1013B000859123FF8191FF87EE87882309F45AC323
:1013C000853251F4EE85FF8523FD859123FF8191C0
:1013D000FF87EE87853229F490E0B3010E94DA0E90
:1013E000E2CF982F10E0882499241032B0F49B3279
:1013F00069F09C3228F4903251F0933271F40BC0B2
:101400009D3239F0903349F4116028C012601460A5
:1014100025C0186023C0106121C017FD2AC0892F84
:1014200080538A3078F416FF06C0FAE09F9E902C15
:101430001124980E13C03AE0839E802C1124880E4C
:1014400010620CC09E3221F416FD14C3106406C055
:101450009C3611F4106802C0983659F4EE85FF8569
:1014600023FD959123FF9191FF87EE87992309F042
:10147000BCCF892F8554833020F4812F8061905E0A
:1014800007C0892F8556833008F09FC1812F8F7E3A
:1014900086FD02C076E0972E6FE3F62EF822953691
:1014A00019F4F0E4FF2A07C0963619F420E8F22A6E
:1014B00002C091109A94F7FE0AC03BE3391518F464
:1014C0005CE3B52E02C0B92CB39427E009C047E015
:1014D000491520F4BB2447E0942EF7CF292DBB24D7
:1014E000C60104969D878C87F60160817181828197
:1014F0009381AE014F5F5F4F0B2D0E94A00D6C01D9
:101500000981202E332400FF04C003FD02C01DE228
:1015100009C0F1FE02C01BE205C0F2FC02C010E0EF
:1015200001C010E2C1018C709070892BB9F11123B8
:1015300011F483E001C084E0881510F088240AC00B
:10154000881AF3FC07C080E290E0B3010E94DA0E33
:101550008A94C9F7112329F0812F90E0B3010E94EA
:10156000DA0E23FE03C008E610E00EC00CE610E021
:101570000BC0E114F10409F0805290E0B3010E9425
:10158000DA0E0F5F1F4F05C0EF2CFF24F0E1EF22B2
:10159000FF24F8018491882361F714C1F7FE12C07B
:1015A000BC0C24FE04C08A81813309F4BA941B1454
:1015B0001CF0BB24B3942DC0F8E0FB1550F538E0C7
:1015C000B32E27C0F6FC25C0892D90E08C159D0513
:1015D0004CF02CEFC2162FEFD20624F030E8F32A9D
:1015E00001C09A94992049F0E2E0F0E0EC0FFD1F71
:1015F000E90DF11D80818033A1F3F7FE0AC0B92CFB
:10160000B394892D90E0C816D90614F0992401C02E
:101610009C18F7FC03C025E030E009C01C141D0431
:101620001CF021E030E003C096012F5F3F4F1123F3
:1016300011F02F5F3F4F992029F0892D90E00196FE
:10164000280F391F882D90E02817390714F08824B7
:1016500001C0821A4F2C5524C20189709070892BC9
:1016600039F008C080E290E0B3010E94DA0E8A945B
:101670008820C1F7112329F0812F90E0B3010E9447
:10168000DA0E43FE07C008C080E390E0B3010E9479
:10169000DA0E8A948820C1F7F7FE46C08601D7FE8D
:1016A00002C000E010E076010894E11CF11CE01A91
:1016B000F10A41E050E04C0F5D1FE40EF51E2601DB
:1016C0004B185108892D90E0AA24BB24A81AB90A06
:1016D0005FEF0F3F150729F48EE290E0B3010E94FF
:1016E000DA0EC016D10634F0401651061CF4F7018C
:1016F000808101C080E3015010400894E11CF11C7E
:101700000A151B052CF090E0B3010E94DA0EE0CF21
:101710000C151D0539F49A81963318F4953311F49C
:1017200024FE81E390E04BC08A81813309F00F7E73
:1017300090E0B3010E94DA0E9920A1F08EE290E0D1
:10174000B3010E94DA0E12E0E1E0F0E0EC0FFD1FC1
:10175000E10FF11D1F5F808190E0B3010E94DA0E5E
:101760009A9491F744FC03C085E690E002C085E4BA
:1017700090E0B3010E94DA0ED7FC05C0C114D10479
:1017800041F404FF06C0D094C194D108D3948DE2F3
:1017900001C08BE290E0B3010E94DA0E80E305C045
:1017A0008F5F26EF3FEFC20ED31E3AE0C316D1047F
:1017B000BCF790E0B3010E94DA0EC601C096B301F7
:1017C0000E94DA0ECC84DD8452C1933631F0933717
:1017D00099F0933509F059C023C0F60180818983BF
:1017E0005E010894A11CB11C22E030E0C20ED31EA1
:1017F00021E0E22EF12C12C0F601A080B18016FD8E
:1018000003C06FEF7FEF02C0692D70E022E030E08F
:10181000C20ED31EC5010E94830E7C011F7713C028
:10182000F601A080B18016FD03C06FEF7FEF02C00C
:10183000692D70E022E030E0C20ED31EC5010E9487
:10184000780E7C01106813FF07C01BC080E290E097
:10185000B3010E94DA0E8A94882D90E0E816F9060A
:10186000A8F30FC0F50117FD859117FF81915F0166
:1018700090E0B3010E94DA0E81108A940894E10886
:10188000F108E114F10471F7F2C0943611F09936C1
:1018900089F517FF08C0F60120813181428153810B
:1018A00084E090E00AC0F601808191819C01442788
:1018B00037FD4095542F82E090E0C80ED91E9FE678
:1018C000F92EF12257FF09C050954095309521958A
:1018D0003F4F4F4F5F4F90E8F92ACA01B901AE015F
:1018E0004F5F5F4F2AE030E00E94570FE82EE889F3
:1018F000EE1A41C0953721F41F7E2AE030E01CC06B
:10190000197F9F3661F0903720F4983509F0B2C006
:101910000FC0903739F0983709F0ACC004C028E008
:1019200030E00AC0106114FD146020E130E004C012
:1019300014FD166020E132E017FF08C0F601608157
:1019400071818281938144E050E008C0F60180817A
:101950009181BC0180E090E042E050E0C40ED51ED1
:10196000AE014F5F5F4F0E94570FE82E5889E51A6E
:101970008FE7F82EF122F6FE0BC08EEFF822E91465
:1019800038F4F4FE07C0F2FC05C09FEEF92202C055
:101990001E2D01C0192DF4FE0DC0FE01EE0DF11D2E
:1019A0008081803319F4E9EEFE2208C01F5FF2FE49
:1019B00005C003C08F2D867809F01F5F0F2DF3FC43
:1019C00014C0F0FE0FC0181510F09E2C0BC09E2CFA
:1019D000980C911A182D06C080E290E0B3010E9485
:1019E000DA0E1F5F1815C0F304C0181510F4811A21
:1019F00001C0882404FF0FC080E390E0B3010E947F
:101A0000DA0E02FF1DC001FD03C088E790E00EC0A2
:101A100088E590E00BC0802F867891F001FF02C02E
:101A20008BE201C080E2F7FC8DE290E0B3010E94FE
:101A3000DA0E06C080E390E0B3010E94DA0E9A94B9
:101A4000E914C0F3EA94E1E0F0E0EC0FFD1FEE0DC5
:101A5000F11D808190E0B3010E94DA0EEE2091F733
:101A600006C080E290E0B3010E94DA0E8A948820DA
:101A7000C1F799CCF30166817781CB016196E2E1F0
:101A80000C94850DAA1BBB1B51E107C0AA1FBB1FED
:101A9000A617B70710F0A61BB70B881F991F5A95FA
:101AA000A9F780959095BC01CD01089597FB092E6B
:101AB00007260AD077FD04D0E5DF06D000201AF40F
:101AC000709561957F4F0895F6F7909581959F4F9A
:101AD00008952F923F924F925F926F927F928F92D2
:101AE0009F92AF92BF92CF92DF92EF92FF920F93AD
:101AF0001F93CF93DF93CDB7DEB7CA1BDB0B0FB6B7
:101B0000F894DEBF0FBECDBF09942A883988488873
:101B10005F846E847D848C849B84AA84B984C88409
:101B2000DF80EE80FD800C811B81AA81B981CE0F00
:101B3000D11D0FB6F894DEBF0FBECDBFED010895E5
:101B4000283008F027E03327DA01990F311D87FD8F
:101B5000916000966105710539F432602E5F3D9306
:101B600030E32A95E1F708959F3F30F08038710502
:101B7000610509F03C5F3C5F3D93913008F080685F
:101B8000911DDF93CF931F930F93FF92EF92192F25
:101B9000987F9695E92F96959695E90FFF27E6533E
:101BA000FF4F99273327EE24FF24A701E701059073
:101BB0000894079428F4360FE71EF81E491F511D9C
:101BC000660F771F881F991F0694A1F70590079449
:101BD00028F4E70EF81E491F561FC11D770F881FF6
:101BE000991F661F0694A1F70590079428F4F80E34
:101BF000491F561FC71FD11D880F991F661F771FCA
:101C00000694A1F70590079420F4490F561FC71FAB
:101C1000D81F990F661F771F881F0694A9F7849114
:101C20001095177041F0D695C79557954795F7943D
:101C3000E7941A95C1F7E0E7F0E0689415901591E4
:101C400035916591959105907FE27395E118F10AC0
:101C5000430B560BC90BD009C0F7E10CF11E431F13
:101C6000561FC91FD01D7EF4703311F48A95E6CF3C
:101C7000E894015030F0080F0AF40027021708F426
:101C8000202F2395022F7A3328F079E37D932A952C
:101C9000E9F710C07D932A9589F606949795679584
:101CA000379517951794E118F10A430B560BC90B9A
:101CB000D00998F023957E9173957A3308F070E3FC
:101CC0007C932013B8F77E9170617D9330F08395FB
:101CD00071E37D9370E32A95E1F71124EF90FF9073
:101CE0000F911F91CF91DF91992787FD90950895CE
:101CF000FC010590615070400110D8F780959095D7
:101D00008E0F9F1F0895FC016150704001900110DB
:101D1000D8F7809590958E0F9F1F08950F931F936E
:101D2000CF93DF938C01EB01009731F461157105BE
:101D300019F420E030E038C081E090E06EE070E01F
:101D40000E94B50FFC019C01009771F180E883832C
:101D5000209771F0D387C28781E883838091B60290
:101D60009091B702892B21F4F093B702E093B60269
:101D700001151105C9F01187008783818260838373
:101D80008091B8029091B902892B71F4F093B90255
:101D9000E093B8028091BA029091BB02892B21F4A2
:101DA000F093BB02E093BA02C901DF91CF911F917A
:101DB0000F9108950F931F93CF93DF938C01EB0145
:101DC0008B8181FF1BC082FF0DC02E813F818C81E2
:101DD0009D812817390764F4E881F9810193F9831B
:101DE000E88306C0E885F985802F0995892B31F4B1
:101DF0008E819F8101969F838E8302C00FEF1FEF1C
:101E0000C801DF91CF911F910F910895A0E0B0E03C
:101E1000ECE0FFE00C94790DFE0135966191719133
:101E20008091B8029091B902AF010E94BB0920963F
:101E3000E2E00C94950D6091B8027091B9020E9495
:101E4000DA0E08950F931F93CF93DF938C01E091E7
:101E5000B802F091B902838181FF21C0C0E0D0E0D7
:101E60000DC0E091B802F091B90220853185BF0123
:101E7000F9010995892B11F0CFEFDFEFF80181917E
:101E80008F01882371F7E091B802F091B9022085A3
:101E900031858AE0BF01F9010995892B11F0CFEF57
:101EA000DFEFCE01DF91CF911F910F910895FA01DD
:101EB000AA27283051F1203181F1E8946F936E7F89
:101EC0006E5F7F4F8F4F9F4FAF4FB1E03ED0B4E07A
:101ED0003CD0670F781F891F9A1FA11D680F791FBB
:101EE0008A1F911DA11D6A0F711D811D911DA11DCC
:101EF00020D009F468943F912AE0269F11243019DC
:101F0000305D3193DEF6CF010895462F4770405D76
:101F10004193B3E00FD0C9F7F6CF462F4F70405D25
:101F20004A3318F0495D31FD4052419302D0A9F780
:101F3000EACFB4E0A6959795879577956795BA957A
:101F4000C9F700976105710508959B01AC010A2E40
:101F500006945795479537952795BA95C9F7620F17
:101F6000731F841F951FA01D08950F931F93CF9378
:101F7000DF93689F8001699F100D789F100D1124D9
:101F8000C8010E94D10FEC01009729F060E070E0D9
:101F9000A8010E94D610CE01DF91CF911F910F9121
:101FA0000895CF93DF93BC018230910510F462E075
:101FB00070E0A091BE02B091BF02ED01E0E0F0E060
:101FC00040E050E021C0888199818617970769F425
:101FD0008A819B81309719F09383828304C0909308
:101FE000BF028093BE02FE0134C06817790738F43F
:101FF0004115510519F08417950708F4AC01FE014D
:102000008A819B819C01E9012097E9F641155105E0
:10201000A9F1CA01861B970B049708F4BA01E0E006
:10202000F0E02AC08D919C91119784179507F9F4DF
:102030006417750781F412968D919C9113973097D0
:1020400019F09383828304C09093BF028093BE02F1
:10205000FD0132964FC0CA01861B970BFD01E80FA8
:10206000F91F6193719302978D939C9343C0FD0177
:10207000828193819C01D9011097A1F68091BC02C5
:102080009091BD02892B41F480915A0290915B029C
:102090009093BD028093BC0240915C0250915D021E
:1020A0004115510541F44DB75EB7809158029091AA
:1020B0005902481B590B2091BC023091BD022417D4
:1020C0003507B0F4CA01821B930B8617970780F07F
:1020D000AB014E5F5F4F8417950750F0420F531FBF
:1020E0005093BD024093BC02F9016193719302C009
:1020F000E0E0F0E0CF01DF91CF910895CF93DF933F
:10210000009709F450C0EC0122971B821A82A0911B
:10211000BE02B091BF02109709F140E050E0AC1749
:10212000BD0708F1BB83AA83FE0121913191E20F23
:10213000F31FAE17BF0779F48D919C911197280F6B
:10214000391F2E5F3F4F3983288312968D919C91C2
:1021500013979B838A834115510571F4D093BF0275
:10216000C093BE0220C012968D919C911397AD0131
:10217000009711F0DC01D3CFFA01D383C283219100
:102180003191E20FF31FCE17DF0769F4888199813F
:10219000280F391F2E5F3F4FFA01318320838A8138
:1021A0009B8193838283DF91CF910895DC0101C0ED
:0E21B0006D9341505040E0F70895F894FFCF32
:1021BE00F42C010E01FA00FA00496E002025692068
:1021CE00004F75740041727261793A0020256900E2
:1021DE003E3E3E2052656C616973204F4E003E3E7E
:1021EE003E2052656C616973204F4646000A537457
:1021FE00617274004572726F722054656D703D305D
:10220E000054656D703A2025692C2000736C6F7038
:10221E00655F7261773A2025692C20736C6F70654B
:10222E003A2025692C20736C6F7065323A2025692F
:10223E002C2000416D6269656E743A2025690A0092
:10224E0054656D70657261747572652050726F742D
:10225E006563742052756C652034382C20005465EB
:10226E006D70657261747572652050726F746563FE
:10227E00742052756C652034352C200054656D70B9
:10228E00657261747572652050726F746563742027
:10229E0052756C652034302C200054656D7065725B
:1022AE0061747572652050726F7465637420527517
:1022BE006C652033352C200054656D706572617429
:1022CE007572652050726F746563742052756C65FB
:1022DE002033302C200054656D70657261747572F8
:1022EE00652050726F746563742047656E65726108
:1022FE006C2052756C652C2000436F756E74657280
:0E230E003A2025693B200A002000C002000092
:00000001FF
