:100000000C94B5000C946C010C94D2000C94D200AA
:100010000C94D2000C94D2000C94D2000C94D20018
:100020000C94D2000C94D4000C94D2000C94D20006
:100030000C94D2000C94EB000C94D2000C94D200DF
:100040000C9408010C94D2000C94E3010C9411025E
:100050000C94D2000C94D2000C94D2000C94D200D8
:100060000C94D2000C94D2006E616E00696E660032
:1000700000407A10F35A00A0724E18090010A5D45F
:10008000E80000E87648170000E40B54020000CABC
:100090009A3B000000E1F505000080969800000002
:1000A00040420F000000A086010000001027000061
:1000B0000000E803000000006400000000000A00E7
:1000C000000000000100000000002C76D888DC67EA
:1000D0004F0823DFC1DFAE59E1B1B796E5E3E45342
:1000E000C63AE651997696E8E6C28426EB898C9B5F
:1000F00062ED407C6FFCEFBC9C9F40F2BAA56FA5FF
:10010000F490055A2AF75C936B6CF9676DC11BFC80
:10011000E0E40D47FEF520E6B500D0ED902E03009B
:10012000943577050080841E080000204E0A0000E8
:1001300000C80C333333330F986E12831141EF8DA7
:100140002114893BE65516CFFEE6DB18D1844B38E7
:100150001BF77C1D901DA4BBE424203284725E2218
:100160008100C9F124ECA1E53D2711241FBECFEF8A
:10017000D4E0DEBFCDBF11E0A0E0B1E0ECEDF3E2F2
:1001800002C005900D92A63BB107D9F712E0A6EB8D
:10019000B1E001C01D92A731B107E1F70E94CD0483
:1001A0000C94EC110C9400001F920F920FB60F925A
:1001B00011248F93DF93CF93CDB7DEB780910001E9
:1001C0008F5F80930001CF91DF918F910F900FBED1
:1001D0000F901F9018951F920F920FB60F92112437
:1001E000EF93FF93DF93CF93CDB7DEB7E1E8F0E075
:1001F0001082E5E8F0E01082E4E8F0E01082CF91B0
:10020000DF91FF91EF910F900FBE0F901F90189507
:100210001F920F920FB60F9211242F933F934F937B
:100220005F938F939F93AF93BF93EF93FF93DF936E
:10023000CF930F92CDB7DEB719828091B7018F5F50
:100240008093B7018091EA018330C9F48091B701AE
:10025000482F50E08981282F30E086E090E0022E80
:1002600002C0880F991F0A94E2F7841795073CF49F
:10027000A8E2B0E0E8E2F0E0808188608C938091B1
:10028000B701482F50E08981282F30E08AE090E0C4
:10029000022E02C0880F991F0A94E2F7841795076F
:1002A0004CF41092B701A8E2B0E0E8E2F0E08081FF
:1002B000877F8C930F90CF91DF91FF91EF91BF914A
:1002C000AF919F918F915F914F913F912F910F909F
:1002D0000FBE0F901F9018951F920F920FB60F929E
:1002E00011242F938F939F93EF93FF93DF93CF93DB
:1002F00000D00F92CDB7DEB7E5E8F0E090818091B5
:10030000B801982BE4E8F0E08081892B882309F07C
:100310004BC081E08093B8011982EDE3F0E01082D8
:1003200078941B821A8211C0E9E2F0E08081882F64
:1003300090E084709070009719F089818F5F8983B5
:100340008A819B8101969B838A838A819B8127E096
:10035000803D920748F389818436E0F4E4E8F0E0D8
:1003600081E08083E1E8F0E082E080838091EA012F
:10037000882F90E0009761F48091B601882321F0E6
:1003800083E08093EA0106C081E08093EA0102C025
:100390001092EA01ECE3F0E081E08083EDE3F0E02D
:1003A00081E080831092B8010F900F900F90CF9151
:1003B000DF91FF91EF919F918F912F910F900FBE41
:1003C0000F901F9018951F920F920FB60F92112445
:1003D0008F939F93EF93FF93DF93CF930F92CDB7BC
:1003E000DEB7E6ECF0E0808189838091BC01882F44
:1003F00090E08F719070FC01E753FE4F89818083FC
:100400008091BC018F5F8093BC010F90CF91DF91F1
:10041000FF91EF919F918F910F900FBE0F901F90C2
:1004200018951F920F920FB60F9211248F939F93DE
:10043000AF93BF93EF93FF93DF93CF93CDB7DEB727
:100440009091E9018091EC01981799F0A6ECB0E049
:100450008091EC01882F90E08F719070FC01E35146
:10046000FE4F80818C938091EC018F5F8093EC0133
:1004700007C0A1ECB0E0E1ECF0E080818F7D8C93CF
:10048000CF91DF91FF91EF91BF91AF919F918F91AC
:100490000F900FBE0F901F901895DF93CF93CDB79D
:1004A000DEB79091E9018091EC01292F281B822F62
:1004B000CF91DF910895DF93CF9300D00F92CDB706
:1004C000DEB789837B836A830E944D02282F30E048
:1004D00080E290E0821B930B83309105ACF3809116
:1004E000E901882F90E08F719070FC01E351FE4F7D
:1004F000898180838091E9018F5F8093E901A1EC7C
:10050000B0E0E1ECF0E0808180628C9380E090E0EC
:100510000F900F900F90CF91DF910895DF93CF93BD
:10052000CDB7DEB79091BC018091EB01292F281B3C
:10053000822FCF91DF910895DF93CF9300D00F9258
:10054000CDB7DEB79B838A830E948E028823E1F3B6
:100550008091EB01882F90E08F719070FC01E75340
:10056000FE4F808189838091EB018F5F8093EB0147
:100570008981882F90E00F900F900F90CF91DF919D
:100580000895DF93CF93CDB7DEB7E4ECF0E08CE0D5
:1005900090E091838083E1ECF0E088E98083E2ECF5
:1005A000F0E086E080838BE592E02CE932E0B9014F
:1005B0000E949D0F7894CF91DF910895DF93CF93A0
:1005C0000F92CDB7DEB700D0EDB7FEB7319689E018
:1005D00091E0918380830E9415100F900F901982F3
:1005E0001EC08981882F90E0880F991FFC01E35479
:1005F000FE4F2081318100D000D0EDB7FEB731969B
:1006000080E191E091838083338322830E941510DF
:100610000F900F900F900F9089818F5F8983898150
:100620008630F8F28AE090E00E942A100F90CF9175
:10063000DF910895DF93CF9300D00F92CDB7DEB74F
:100640009B838A838091BD019091BE01009779F5CB
:100650008A819B819093C8018093C7018091C701D3
:100660009091C8019093C6018093C5018091C50106
:100670009091C6019093C4018093C3018091C301FE
:100680009091C4019093C2018093C1018091C101F6
:100690009091C2019093C0018093BF018091BF01EE
:1006A0009091C0019093BE018093BD0159C0198201
:1006B00019C08981482F50E08981882F90E00196E8
:1006C000880F991FFC01E354FE4F20813181CA013C
:1006D000880F991FFC01E354FE4F318320838981E9
:1006E0008F5F89838981853020F38A819B819093F4
:1006F000C8018093C7012091C7013091C801809142
:10070000C5019091C601A901481B590BCA019C0162
:10071000220F331FC901880F991F880F991FB90134
:10072000680F791F4091BA015091BB01CA01880F2F
:10073000991F9C01220F331F220F331F220F331FDB
:10074000820F931F840F951F860F971F24E130E0BF
:10075000B9010E94650ECB019093BB018093BA0151
:100760000F900F900F90CF91DF910895DF93CF936B
:1007700000D000D000D0CDB7DEB72091C7013091B6
:10078000C8018091BD019091BE01A901481B590B80
:10079000CA019E838D832091C5013091C60180914D
:1007A000BF019091C001A901481B590BCA019C834C
:1007B0008B832091C3013091C4018091C10190913C
:1007C000C201A901481B590BCA019A8389832D8153
:1007D0003E81C901880F991FAC01420F531F2B8125
:1007E0003C81C901880F991F880F991F820F931FA1
:1007F000480F591F29813A81C901880F991F820F1B
:10080000931F9C01220F331F220F331F820F931F50
:10081000840F951F29E030E0B9010E94650ECB01DD
:1008200026960FB6F894DEBF0FBECDBFCF91DF91F5
:100830000895DF93CF9300D000D0CDB7DEB78B8380
:100840006C832091C7013091C8018091C5019091BE
:10085000C601820F931F959587959A8389838C8112
:10086000282F30E08B81992787FD9095AC01249F3C
:10087000C001259F900D349F900D11249C0189810A
:100880009A81820F931F0F900F900F900F90CF912E
:10089000DF910895DF93CF93CDB7DEB72F970FB6D3
:1008A000F894DEBF0FBECDBF8D8784EB0E942C076E
:1008B0008D850E94AF0785EB0E946F078C838C812A
:1008C000882319F085EB0E946F070E94D6078B835F
:1008D0000E94D6078A838A81882F90E0982F8827E4
:1008E0009C018B81882F90E0820F931F9E838D83C4
:1008F0000E94D60789830E9438098D819E819923A1
:100900001CF41F861E860DC08D819E8125E030E07F
:10091000B9010E94510ECB019C012B5A3A403F87EE
:100920002E878E859F852F960FB6F894DEBF0FBE5B
:10093000CDBFCF91DF910895DF93CF930F92CDB7C5
:10094000DEB789838981882389F09091B9018981F3
:10095000891721F084E191E00E943110A5E2B0E016
:10096000E5E2F0E0808180648C9310C09091B90141
:100970008981891721F082E291E00E943110A5E27D
:10098000B0E0E5E2F0E080818F7B8C9389818093F9
:10099000B9010F90CF91DF910895DF93CF93CDB739
:1009A000DEB769970FB6F894DEBF0FBECDBFE4E2A5
:1009B000F0E080EC8083E7E2F0E088E08083EAE228
:1009C000F0E088E18083E5E2F0E08FE38083E8E215
:1009D000F0E087EF8083EBE2F0E087EE8083E4E6EF
:1009E000F0E02081A89588E190E029E20FB6F89424
:1009F000A895809360000FBE209360000E94C10202
:100A00000E941D0710920001E1EBF0E087E0808377
:100A1000E0E7F0E081E08083E4E4F0E01082E5E4E8
:100A2000F0E083E08083EEE6F0E081E08083E0E8C0
:100A3000F0E01082E1E8F0E01082E2E8F0E01082FD
:100A4000EFE6F0E081E08083E9E6F0E082E0808399
:100A5000EDE3F0E081E0808381E391E00E943110DA
:100A6000ABE2B0E0EBE2F0E0808180618C93ABE23E
:100A7000B0E0EBE2F0E08081877F8C9380E00E9421
:100A80009C041092EA0118868FEF8F8383E08E8397
:100A90001D821A8219821A8A198A7894809100011B
:100AA00080310CF45CC1A8951092000118868989E8
:100AB0009A89959587959595879595958795959517
:100AC00087959C8B8B8B1A8A198A8B899C890097B6
:100AD00069F400D0EDB7FEB7319688E391E09183D9
:100AE00080830E9415100F900F900CC18E81882377
:100AF000F1F08E81282F30E000D000D0EDB7FEB7A6
:100B0000319685E491E091838083338322830E9430
:100B100015100F900F900F900F908E8181508E8343
:100B200087E00E944A049C8B8B8B1E861D8600D01A
:100B300000D0EDB7FEB7319681E591E091838083D7
:100B40008B899C89938382830E9415100F900F904C
:100B50000F900F908B899C890E941A0386E00E9457
:100B60004A04988B8F878B899C899C012458334039
:100B70008F859889880F991F820F931F27EE3FEF6B
:100B8000B9010E94650ECB019C838B838B819C8174
:100B9000992314F41C821B820E94B6039A878987CA
:100BA00029853A858B819C8182179307ACF4298132
:100BB0003A8189859A85820F931F880F991F880F24
:100BC000991F880F991F2B813C81B9010E94650EE6
:100BD000CB019A83898314C089819A81998F888FE8
:100BE000888D998D992334F4288D398D2F5F3F4F4F
:100BF000398F288F888D998D959587959A838983CC
:100C00008F859889AA2797FDA095BA2FBC01CD01A1
:100C10000E94620DDC01CB01BC01CD012AE939E95A
:100C200049E95EEB0E94EE0DDC01CB01BC01CD0178
:100C300020E030E044EB52E40E94CB0CDC01CB011D
:100C4000BC01CD010E942F0DDC01CB019C878B875D
:100C50008DB79EB70C970FB6F8949EBF0FBE8DBF91
:100C6000EDB7FEB731968CE591E09183808389855D
:100C70009A85938382838D859E85958384838B85D6
:100C80009C85978386838B819C81918780878981CE
:100C90009A81938782870E9415102DB73EB7245FF3
:100CA0003F4F0FB6F8943EBF0FBE2DBF2D853E853A
:100CB0008B859C858217930734F089819A8131E076
:100CC000853F9307F4F08D818F5F8D838D81282F71
:100CD00030E000D000D0EDB7FEB731968BE891E060
:100CE00091838083338322830E9415100F900F908D
:100CF0000F900F908D81843028F086E08093B601AC
:100D000001C01D828091B601882311F18091B60146
:100D100081508093B6018091EA01813019F483E01B
:100D20008093EA018091B601282F30E000D000D0F6
:100D3000EDB7FEB731968DE991E0918380833383DF
:100D400022830E9415100F900F900F900F9026C0D5
:100D50008091EA01833011F51092EA011FC0809161
:100D60000001282F332727FD30958F81882F90E0B1
:100D70002817390799F0809100018F838885803189
:100D800068F488858F5F888787E00E944A049C0109
:100D900089899A89820F931F9A8B898B8091EA01A6
:100DA000282F30E03E8B2D8B8D899E8981309105D7
:100DB000D9F02D893E892330310541F18D899E89F5
:100DC0000097C1F580E00E949C04ABE2B0E0EBE24A
:100DD000F0E0808180618C93ABE2B0E0EBE2F0E088
:100DE0008081877F8C935ACE81E00E949C04ABE285
:100DF000B0E0EBE2F0E0808180618C93ABE2B0E0A8
:100E0000EBE2F0E0808188608C9348CE80E00E9425
:100E10009C04ABE2B0E0EBE2F0E080818F7E8C934B
:100E2000ABE2B0E0EBE2F0E0808188608C931E865C
:100E30001D8634CE1092EA0131CEDF93CF93CDB729
:100E4000DEB7E8EBF0E088E48083E8EBF0E08AE0EE
:100E50008083CF91DF910895DF93CF9300D00F92DD
:100E6000CDB7DEB78A83ECEBF0E01082ECEBF0E07C
:100E700084EA8083ECEBF0E080818823DCF7E9EB07
:100E8000F0E08081882F90E0887F90708830910515
:100E900019F081E08B831CC0EBEBF0E08A8180834A
:100EA000ECEBF0E084E88083ECEBF0E080818823D9
:100EB000DCF7E9EBF0E08081887F898389818831E4
:100EC00031F08981803419F081E08B8301C01B826D
:100ED0008B810F900F900F90CF91DF910895DF934A
:100EE000CF9300D00F92CDB7DEB78A83ECEBF0E062
:100EF00084EA8083ECEBF0E080818823DCF7E9EB87
:100F0000F0E08081882F90E0887F9070803191059B
:100F100019F081E08B831CC0EBEBF0E08A818083C9
:100F2000ECEBF0E084E88083ECEBF0E08081882358
:100F3000DCF7E9EBF0E08081887F89838981883163
:100F400031F08981803419F081E08B8301C01B82EC
:100F50008B810F900F900F90CF91DF910895DF93C9
:100F6000CF9300D0CDB7DEB78983EBEBF0E089817A
:100F70008083ECEBF0E084E88083ECEBF0E08081B0
:100F80008823DCF7E9EBF0E08081882F90E0887F10
:100F900090708832910519F081E08A8301C01A822D
:100FA0008A810F900F90CF91DF910895DF93CF93B7
:100FB000CDB7DEB7ECEBF0E084EC8083ECEBF0E057
:100FC00080818823DCF7EBEBF0E08081CF91DF912B
:100FD0000895DF93CF93CDB7DEB7ECEBF0E084E874
:100FE0008083ECEBF0E080818823DCF7EBEBF0E032
:100FF0008081CF91DF910895DF93CF93CDB7DEB796
:1010000028970FB6F894DEBF0FBECDBF8B837D83CC
:101010006C835F834E838B810E942C07882319F099
:1010200081E0888721C01A82198214C02C813D81F9
:1010300089819A81F901E80FF91F80810E94AF0729
:10104000882319F081E088870FC089819A810196F1
:101050009A83898329813A818E819F812817390754
:1010600028F30E9438091886888528960FB6F894C8
:10107000DEBF0FBECDBFCF91DF9108950F931F93B9
:10108000DF93CF93CDB7DEB728970FB6F894DEBFC6
:101090000FBECDBF8B837D836C835F834E838B813B
:1010A00081600E942C07882319F081E088872EC078
:1010B0001A82198210C02C813D8189819A8189010F
:1010C000080F191F0E94D607F801808389819A8131
:1010D00001969A8389838E819F819C0121503040A3
:1010E00089819A818217930730F38E819F819C01B9
:1010F000215030408C819D818C01020F131F0E9472
:10110000E907F80180830E943809188688852896A7
:101110000FB6F894DEBF0FBECDBFCF91DF911F9108
:101120000F910895DF93CF93CDB7DEB729970FB610
:10113000F894DEBF0FBECDBF8B836C835E834D837F
:1011400038872F838B810E942C07882319F081E038
:10115000898724C08C810E94AF071A82198214C02B
:101160002D813E8189819A81F901E80FF91F8081E3
:101170000E94AF07882319F081E089870FC0898119
:101180009A8101969A83898329813A818F819885F2
:101190002817390728F30E94380919868985299666
:1011A0000FB6F894DEBF0FBECDBFCF91DF9108958B
:1011B0000F931F93DF93CF93CDB7DEB729970FB669
:1011C000F894DEBF0FBECDBF8B836C835E834D83EF
:1011D00038872F838B810E942C07882319F081E0A8
:1011E00089873AC08C810E94AF078B8181600E9401
:1011F0002C07882319F0E1E0E9872EC01A821982B2
:1012000010C02D813E8189819A818901080F191FA3
:101210000E94D607F801808389819A8101969A837A
:1012200089838F8198859C012150304089819A81E2
:101230008217930730F38F8198859C0121503040AD
:101240008D819E818C01020F131F0E94E907F80116
:1012500080830E9438091986898529960FB6F894EB
:10126000DEBF0FBECDBFCF91DF911F910F910895CB
:10127000DF93CF93CDB7DEB7ECEBF0E084E980836A
:10128000CF91DF910895A1E1B0E0E9E4F9E00C9499
:10129000780E3C017F876E876A01FC0117821682F7
:1012A000838181FD03C06FEF7FEF6FC39E012F5FCE
:1012B0003F4F398B288BF3012381EE85FF8523FD7A
:1012C000859123FF8191FF87EE87882309F45AC314
:1012D000853251F4EE85FF8523FD859123FF8191B1
:1012E000FF87EE87853229F490E0B3010E94E90F71
:1012F000E2CF982F10E0882499241032B0F49B326A
:1013000069F09C3228F4903251F0933271F40BC0A2
:101310009D3239F0903349F4116028C01260146096
:1013200025C0186023C0106121C017FD2AC0892F75
:1013300080538A3078F416FF06C0FAE09F9E902C06
:101340001124980E13C03AE0839E802C1124880E3D
:1013500010620CC09E3221F416FD14C3106406C046
:101360009C3611F4106802C0983659F4EE85FF855A
:1013700023FD959123FF9191FF87EE87992309F033
:10138000BCCF892F8554833020F4812F8061905EFB
:1013900007C0892F8556833008F09FC1812F8F7E2B
:1013A00086FD02C076E0972E6FE3F62EF822953682
:1013B00019F4F0E4FF2A07C0963619F420E8F22A5F
:1013C00002C091109A94F7FE0AC03BE3391518F455
:1013D0005CE3B52E02C0B92CB39427E009C047E006
:1013E000491520F4BB2447E0942EF7CF292DBB24C8
:1013F000C60104969D878C87F60160817181828188
:101400009381AE014F5F5F4F0B2D0E94AF0E6C01B9
:101410000981202E332400FF04C003FD02C01DE219
:1014200009C0F1FE02C01BE205C0F2FC02C010E0E0
:1014300001C010E2C1018C709070892BB9F11123A9
:1014400011F483E001C084E0881510F088240AC0FC
:10145000881AF3FC07C080E290E0B3010E94E90F14
:101460008A94C9F7112329F0812F90E0B3010E94DB
:10147000E90F23FE03C008E610E00EC00CE610E002
:101480000BC0E114F10409F0805290E0B3010E9416
:10149000E90F0F5F1F4F05C0EF2CFF24F0E1EF2293
:1014A000FF24F8018491882361F714C1F7FE12C06C
:1014B000BC0C24FE04C08A81813309F4BA941B1445
:1014C0001CF0BB24B3942DC0F8E0FB1550F538E0B8
:1014D000B32E27C0F6FC25C0892D90E08C159D0504
:1014E0004CF02CEFC2162FEFD20624F030E8F32A8E
:1014F00001C09A94992049F0E2E0F0E0EC0FFD1F62
:10150000E90DF11D80818033A1F3F7FE0AC0B92CEB
:10151000B394892D90E0C816D90614F0992401C01F
:101520009C18F7FC03C025E030E009C01C141D0422
:101530001CF021E030E003C096012F5F3F4F1123E4
:1015400011F02F5F3F4F992029F0892D90E00196EF
:10155000280F391F882D90E02817390714F08824A8
:1015600001C0821A4F2C5524C20189709070892BBA
:1015700039F008C080E290E0B3010E94E90F8A943C
:101580008820C1F7112329F0812F90E0B3010E9438
:10159000E90F43FE07C008C080E390E0B3010E945A
:1015A000E90F8A948820C1F7F7FE46C08601D7FE6E
:1015B00002C000E010E076010894E11CF11CE01A82
:1015C000F10A41E050E04C0F5D1FE40EF51E2601CC
:1015D0004B185108892D90E0AA24BB24A81AB90AF7
:1015E0005FEF0F3F150729F48EE290E0B3010E94F0
:1015F000E90FC016D10634F0401651061CF4F7016D
:10160000808101C080E3015010400894E11CF11C6E
:101610000A151B052CF090E0B3010E94E90FE0CF02
:101620000C151D0539F49A81963318F4953311F48D
:1016300024FE81E390E04BC08A81813309F00F7E64
:1016400090E0B3010E94E90F9920A1F08EE290E0B2
:10165000B3010E94E90F12E0E1E0F0E0EC0FFD1FA2
:10166000E10FF11D1F5F808190E0B3010E94E90F3F
:101670009A9491F744FC03C085E690E002C085E4AB
:1016800090E0B3010E94E90FD7FC05C0C114D1045A
:1016900041F404FF06C0D094C194D108D3948DE2E4
:1016A00001C08BE290E0B3010E94E90F80E305C026
:1016B0008F5F26EF3FEFC20ED31E3AE0C316D10470
:1016C000BCF790E0B3010E94E90FC601C096B301D8
:1016D0000E94E90FCC84DD8452C1933631F09337F8
:1016E00099F0933509F059C023C0F60180818983B0
:1016F0005E010894A11CB11C22E030E0C20ED31E92
:1017000021E0E22EF12C12C0F601A080B18016FD7E
:1017100003C06FEF7FEF02C0692D70E022E030E080
:10172000C20ED31EC5010E94920F7C011F7713C009
:10173000F601A080B18016FD03C06FEF7FEF02C0FD
:10174000692D70E022E030E0C20ED31EC5010E9478
:10175000870F7C01106813FF07C01BC080E290E078
:10176000B3010E94E90F8A94882D90E0E816F906EB
:10177000A8F30FC0F50117FD859117FF81915F0157
:1017800090E0B3010E94E90F81108A940894E10867
:10179000F108E114F10471F7F2C0943611F09936B2
:1017A00089F517FF08C0F6012081318142815381FC
:1017B00084E090E00AC0F601808191819C01442779
:1017C00037FD4095542F82E090E0C80ED91E9FE669
:1017D000F92EF12257FF09C050954095309521957B
:1017E0003F4F4F4F5F4F90E8F92ACA01B901AE0150
:1017F0004F5F5F4F2AE030E00E946610E82EE889D4
:10180000EE1A41C0953721F41F7E2AE030E01CC05B
:10181000197F9F3661F0903720F4983509F0B2C0F7
:101820000FC0903739F0983709F0ACC004C028E0F9
:1018300030E00AC0106114FD146020E130E004C003
:1018400014FD166020E132E017FF08C0F601608148
:1018500071818281938144E050E008C0F60180816B
:101860009181BC0180E090E042E050E0C40ED51EC2
:10187000AE014F5F5F4F0E946610E82E5889E51A4F
:101880008FE7F82EF122F6FE0BC08EEFF822E91456
:1018900038F4F4FE07C0F2FC05C09FEEF92202C046
:1018A0001E2D01C0192DF4FE0DC0FE01EE0DF11D1F
:1018B0008081803319F4E9EEFE2208C01F5FF2FE3A
:1018C00005C003C08F2D867809F01F5F0F2DF3FC34
:1018D00014C0F0FE0FC0181510F09E2C0BC09E2CEB
:1018E000980C911A182D06C080E290E0B3010E9476
:1018F000E90F1F5F1815C0F304C0181510F4811A02
:1019000001C0882404FF0FC080E390E0B3010E946F
:10191000E90F02FF1DC001FD03C088E790E00EC083
:1019200088E590E00BC0802F867891F001FF02C01F
:101930008BE201C080E2F7FC8DE290E0B3010E94EF
:10194000E90F06C080E390E0B3010E94E90F9A948A
:10195000E914C0F3EA94E1E0F0E0EC0FFD1FEE0DB6
:10196000F11D808190E0B3010E94E90FEE2091F714
:1019700006C080E290E0B3010E94E90F8A948820BB
:10198000C1F799CCF30166817781CB016196E2E1E1
:101990000C94940E5058BB27AA270ED0E5C0D6D081
:1019A00030F0DBD020F031F49F3F11F41EF4CBC0B7
:1019B0000EF4E095E7FBC1C0E92FE7D080F3BA173A
:1019C000620773078407950718F071F49EF5FFC04E
:1019D0000EF4E0950B2EBA2FA02D0B01B90190014A
:1019E0000C01CA01A0011124FF27591B99F0593F8E
:1019F00050F4503E68F11A16F040A22F232F342FD6
:101A00004427585FF3CF469537952795A795F04023
:101A10005395C9F77EF41F16BA0B620B730B840B38
:101A2000BAF09150A1F0FF0FBB1F661F771F881FF0
:101A3000C2F70EC0BA0F621F731F841F48F4879548
:101A400077956795B795F7959E3F08F0B3CF939537
:101A5000880F08F09927EE0F97958795089504D081
:101A60006894B111B5C0089598D088F09F5790F050
:101A7000B92F9927B751A0F0D1F0660F771F881FB3
:101A8000991F1AF0BA95C9F712C0B13081F09FD0F2
:101A9000B1E008959CC0672F782F8827B85F39F090
:101AA000B93FCCF3869577956795B395D9F73EF412
:101AB00090958095709561957F4F8F4F9F4F0895BA
:101AC000E89409C097FB3EF49095809570956195D8
:101AD0007F4F8F4F9F4F9923A9F0F92F96E9BB278E
:101AE0009395F695879577956795B795F111F8CF0A
:101AF000FAF4BB0F11F460FF1BC06F5F7F4F8F4F75
:101B00009F4F16C0882311F096E911C0772321F06A
:101B10009EE8872F762F05C0662371F096E8862F02
:101B200070E060E02AF09A95660F771F881FDAF759
:101B3000880F9695879597F9089597F99F6780E89C
:101B400070E060E008959FEF80EC089500240A940F
:101B50001616170618060906089500240A94121688
:101B60001306140605060895092E0394000C11F4BB
:101B7000882352F0BB0F40F4BF2B11F460FF04C068
:101B80006F5F7F4F8F4F9F4F089557FD9058440FC1
:101B9000551F59F05F3F71F04795880F97FB991FCC
:101BA00061F09F3F79F08795089512161306140689
:101BB000551FF2CF4695F1DF08C016161706180616
:101BC000991FF1CF86957105610508940895E894F1
:101BD000BB2766277727CB0197F908950BD0C4CF91
:101BE000B5DF28F0BADF18F0952309F0A6CFABCF08
:101BF0001124EECFCADFA0F3959FD1F3950F50E0EB
:101C0000551F629FF001729FBB27F00DB11D639FAE
:101C1000AA27F00DB11DAA1F649F6627B00DA11D54
:101C2000661F829F2227B00DA11D621F739FB00DFA
:101C3000A11D621F839FA00D611D221F749F33276A
:101C4000A00D611D231F849F600D211D822F762F03
:101C50006A2F11249F5750408AF0E1F088234AF000
:101C6000EE0FFF1FBB1F661F771F881F915050404C
:101C7000A9F79E3F510570F060CFAACF5F3FECF30C
:101C8000983EDCF3869577956795B795F795E79538
:101C90009F5FC1F7FE2B880F911D9695879597F949
:101CA0000895AA1BBB1B51E107C0AA1FBB1FA617A3
:101CB000B70710F0A61BB70B881F991F5A95A9F7F5
:101CC00080959095BC01CD01089597FB092E0726BC
:101CD0000AD077FD04D0E5DF06D000201AF4709515
:101CE00061957F4F0895F6F7909581959F4F0895E0
:101CF0002F923F924F925F926F927F928F929F921C
:101D0000AF92BF92CF92DF92EF92FF920F931F9309
:101D1000CF93DF93CDB7DEB7CA1BDB0B0FB6F894BA
:101D2000DEBF0FBECDBF09942A88398848885F84FA
:101D30006E847D848C849B84AA84B984C884DF806B
:101D4000EE80FD800C811B81AA81B981CE0FD11D4F
:101D50000FB6F894DEBF0FBECDBFED010895283059
:101D600008F027E03327DA01990F311D87FD9160D4
:101D700000966105710539F432602E5F3D9330E3C2
:101D80002A95E1F708959F3F30F08038710561058D
:101D900009F03C5F3C5F3D93913008F08068911DF5
:101DA000DF93CF931F930F93FF92EF92192F987F9A
:101DB0009695E92F96959695E90FFF27E653FF4FE5
:101DC00099273327EE24FF24A701E7010590089403
:101DD000079428F4360FE71EF81E491F511D660FA1
:101DE000771F881F991F0694A1F70590079428F480
:101DF000E70EF81E491F561FC11D770F881F991F38
:101E0000661F0694A1F70590079428F4F80E491F61
:101E1000561FC71FD11D880F991F661F771F069475
:101E2000A1F70590079420F4490F561FC71FD81F2C
:101E3000990F661F771F881F0694A9F78491109544
:101E4000177041F0D695C79557954795F794E79445
:101E50001A95C1F7E0E7F0E0689415901591359177
:101E60006591959105907FE27395E118F10A430B16
:101E7000560BC90BD009C0F7E10CF11E431F561FCA
:101E8000C91FD01D7EF4703311F48A95E6CFE89413
:101E9000015030F0080F0AF40027021708F4202F31
:101EA0002395022F7A3328F079E37D932A95E9F779
:101EB00010C07D932A9589F6069497956795379576
:101EC00017951794E118F10A430B560BC90BD0096B
:101ED00098F023957E9173957A3308F070E37C93A4
:101EE0002013B8F77E9170617D9330F0839571E394
:101EF0007D9370E32A95E1F71124EF90FF900F9105
:101F00001F91CF91DF91992787FD90950895FC014E
:101F10000590615070400110D8F7809590958E0F14
:101F20009F1F0895FC016150704001900110D8F787
:101F3000809590958E0F9F1F08950F931F93CF93B9
:101F4000DF938C01EB01009731F46115710519F4F1
:101F500020E030E038C081E090E06EE070E00E9468
:101F6000C410FC019C01009771F180E883832097E5
:101F700071F0D387C28781E8838380910D029091AD
:101F80000E02892B21F4F0930E02E0930D0201154D
:101F90001105C9F011870087838182608383809156
:101FA0000F0290911002892B71F4F0931002E093CC
:101FB0000F028091110290911202892B21F4F0936B
:101FC0001202E0931102C901DF91CF911F910F918D
:101FD00008950F931F93CF93DF938C01EB018B81B7
:101FE00081FF1BC082FF0DC02E813F818C819D81AE
:101FF0002817390764F4E881F9810193F983E883AC
:1020000006C0E885F985802F0995892B31F48E81EA
:102010009F8101969F838E8302C00FEF1FEFC8013F
:10202000DF91CF911F910F910895A0E0B0E0EBE117
:10203000F0E10C94880EFE013596619171918091CA
:102040000F0290911002AF010E9443092096E2E036
:102050000C94A40E60910F02709110020E94E90F7F
:1020600008950F931F93CF93DF938C01E0910F029C
:10207000F0911002838181FF21C0C0E0D0E00DC04B
:10208000E0910F02F091100220853185BF01F90126
:102090000995892B11F0CFEFDFEFF80181918F01C6
:1020A000882371F7E0910F02F091100220853185AD
:1020B0008AE0BF01F9010995892B11F0CFEFDFEF1D
:1020C000CE01DF91CF911F910F910895FA01AA27B8
:1020D000283051F1203181F1E8946F936E7F6E5F6B
:1020E0007F4F8F4F9F4FAF4FB1E03ED0B4E03CD019
:1020F000670F781F891F9A1FA11D680F791F8A1FFC
:10210000911DA11D6A0F711D811D911DA11D20D062
:1021100009F468943F912AE0269F11243019305D1C
:102120003193DEF6CF010895462F4770405D41930D
:10213000B3E00FD0C9F7F6CF462F4F70405D4A335A
:1021400018F0495D31FD4052419302D0A9F7EACF22
:10215000B4E0A6959795879577956795BA95C9F751
:1021600000976105710508959B01AC010A2E069444
:102170005795479537952795BA95C9F7620F731FFD
:10218000841F951FA01D08950F931F93CF93DF9376
:10219000689F8001699F100D789F100D1124C80160
:1021A0000E94E010EC01009729F060E070E0A801C7
:1021B0000E94E511CE01DF91CF911F910F910895FB
:1021C000CF93DF93BC018230910510F462E070E0A0
:1021D000A0911502B0911602ED01E0E0F0E040E0C0
:1021E00050E021C0888199818617970769F48A8118
:1021F0009B81309719F09383828304C090931602D9
:1022000080931502FE0134C06817790738F4411530
:10221000510519F08417950708F4AC01FE018A8175
:102220009B819C01E9012097E9F641155105A9F12F
:10223000CA01861B970B049708F4BA01E0E0F0E0AE
:102240002AC08D919C91119784179507F9F4641712
:10225000750781F412968D919C911397309719F020
:102260009383828304C09093160280931502FD012C
:1022700032964FC0CA01861B970BFD01E80FF91F6C
:102280006193719302978D939C9343C0FD0182816A
:1022900093819C01D9011097A1F68091130290912E
:1022A0001402892B41F48091B2019091B301909373
:1022B0001402809313024091B4015091B50141156D
:1022C000510541F44DB75EB78091B0019091B101D5
:1022D000481B590B20911302309114022417350723
:1022E000B0F4CA01821B930B8617970780F0AB01ED
:1022F0004E5F5F4F8417950750F0420F531F509366
:10230000140240931302F9016193719302C0E0E05B
:10231000F0E0CF01DF91CF910895CF93DF93009745
:1023200009F450C0EC0122971B821A82A091150279
:10233000B0911602109709F140E050E0AC17BD07CC
:1023400008F1BB83AA83FE0121913191E20FF31FB3
:10235000AE17BF0779F48D919C911197280F391F03
:102360002E5F3F4F3983288312968D919C9113974E
:102370009B838A834115510571F4D0931602C09353
:10238000150220C012968D919C911397AD01009774
:1023900011F0DC01D3CFFA01D383C28321913191B3
:1023A000E20FF31FCE17DF0769F488819981280FA8
:1023B000391F2E5F3F4FFA01318320838A819B8131
:1023C00093838283DF91CF910895DC0101C06D93E7
:0C23D00041505040E0F70895F894FFCF12
:1023DC00F42C010E01FA00FA0041727261793A0094
:1023EC00202569003E3E3E2052656C616973204F8A
:1023FC004E003E3E3E2052656C616973204F46464E
:10240C00000A5374617274004572726F72205465C5
:10241C006D703D30005374617274757020256920A5
:10242C000054656D703A2025692C2000736C5F7226
:10243C0061773A2025692C20736C3A2025692C2071
:10244C00735F6D61783A2025692C20663A202569E6
:10245C002C20696E743A2025690A004F6E2D436F4B
:10246C00756E7465723A2025693B200A004F6666CA
:10247C002D436F756E7465723A2025693B200A00F6
:06248C0020001702000011
:00000001FF
