:100000000C94B5000C9400030C94D2000C94D20014
:100010000C94D2000C94D2000C94D2000C94D20018
:100020000C94D2000C94D4000C94D2000C94D20006
:100030000C94D2000C94E5000C94D2000C94D200E5
:100040000C94F5000C94D2000C9443010C946201C2
:100050000C94D2000C94D2000C94D2000C94D200D8
:100060000C94D2000C94D2006E616E00696E660032
:1000700000407A10F35A00A0724E18090010A5D45F
:10008000E80000E87648170000E40B54020000CABC
:100090009A3B000000E1F505000080969800000002
:1000A00040420F000000A086010000001027000061
:1000B0000000E803000000006400000000000A00E7
:1000C000000000000100000000002C76D888DC67EA
:1000D0004F0823DFC1DFAE59E1B1B796E5E3E45342
:1000E000C63AE651997696E8E6C28426EB898C9B5F
:1000F00062ED407C6FFCEFBC9C9F40F2BAA56FA5FF
:10010000F490055A2AF75C936B6CF9676DC11BFC80
:10011000E0E40D47FEF520E6B500D0ED902E03009B
:10012000943577050080841E080000204E0A0000E8
:1001300000C80C333333330F986E12831141EF8DA7
:100140002114893BE65516CFFEE6DB18D1844B38E7
:100150001BF77C1D901DA4BBE424203284725E2218
:100160008100C9F124ECA1E53D2711241FBECFEF8A
:10017000D4E0DEBFCDBF11E0A0E0B1E0EAE4F1E2FF
:1001800002C005900D92A23DB107D9F712E0A2ED91
:10019000B1E001C01D92A633B107E1F70E945D04F2
:1001A0000C94A3100C9400001F920F920FB60F92A4
:1001B00011248F938091CA018F5F8093CA018F9120
:1001C0000F900FBE0F901F9018951F920F920FB6B1
:1001D0000F921124109281001092850010928400D9
:1001E0000F900FBE0F901F9018951F920F920FB691
:1001F0000F9211242F933F934F938F939F93EF93DD
:10020000FF938091D801282F2F5F2093D8018091F0
:10021000D701382F3F5F3093D70140910902433017
:1002200049F4822F90E007972CF0E8E2F0E080811B
:1002300088608083822F90E00B973CF01092D80169
:10024000E8E2F0E08081877F8083423039F43937FB
:1002500028F0EBE2F0E080818F7E8083383838F040
:100260001092D701EBE2F0E0808180618083FF9102
:10027000EF919F918F914F913F912F910F900FBED2
:100280000F901F9018951F920F920FB60F92112486
:100290008F93EF93FF938091C600E091DB01F0E034
:1002A000EF71F070E851FE4F80838091DB018F5F2A
:1002B0008093DB01FF91EF918F910F900FBE0F9014
:1002C0001F9018951F920F920FB60F9211248F93C3
:1002D0009F93EF93FF939091080280910B029817E0
:1002E00081F0E0910B02F0E0EF71F070E45FFD4F00
:1002F00080818093C60080910B028F5F80930B02F8
:1003000005C0E1ECF0E080818F7D8083FF91EF916B
:100310009F918F910F900FBE0F901F901895809115
:10032000080290910B02891B08951F93CF93DF93CE
:10033000182FC0E2D0E00E948F019E01281B3109D6
:1003400023303105C4F3E0910802F0E0EF71F07062
:10035000E45FFD4F1083809108028F5F8093080255
:10036000E1ECF0E080818062808380E090E0DF91CA
:10037000CF911F9108958091DB0190910A02891B12
:1003800008950E94BB018823E1F3E0910A02F0E0A6
:10039000EF71F070E851FE4F808190910A029F5FEB
:1003A00090930A0290E00895482F592F8091DC0124
:1003B0009091DD01892BE1F4E6EEF1E04083518379
:1003C000DF0112974C9311965C93DF0114974C93C5
:1003D00011965C93DF0116974C9311965C93DF01A5
:1003E00018974C9311965C933A97408351830895E4
:1003F000ECEDF1E026EE31E08281938181939193DF
:10040000E217F307C9F7242F352F3093E701209324
:10041000E6018091E4019091E501281B390BC901A7
:10042000880F991F220F331F220F331F220F331FF4
:10043000820F931F6091D9017091DA019B01220F05
:10044000331FA901440F551F440F551F440F551F5B
:10045000240F351F260F371F820F931F64E170E0B2
:100460000E941C0D7093DA016093D9010895A4EEE7
:10047000B1E0FD01219131918091DE019091DF0188
:10048000281B390BC901880F991F880F991F820FEC
:10049000931F1897408151812D913C911197421BD8
:1004A000530B9A01220F331F240F351F820F931F06
:1004B00016964D915C91179714962D913C91159736
:1004C000421B530B9A01220F331F240F351FA90122
:1004D000440F551F440F551F240F351F820F931FC4
:1004E00069E070E00E941C0D862F972F08952091DF
:1004F000E6013091E7018091E4019091E501281B2C
:10050000390B822F932F0895E5E2F0E020812068D7
:10051000208364E170E00E94080D862F972F0097DA
:1005200061F020E030E048E853E1FA013197F1F75B
:100530002F5F3F4F28173907C0F3E5E2F0E08081D5
:100540008F7780830895F894A895833089F084305C
:1005500028F4813041F0823071F514C0843069F0A4
:10056000863049F51CC088E790E00E94840223C0D1
:100570008EE591E00E9484021EC082E593E00E9415
:10058000840219C080E590E00E94840280E29EE42B
:100590000197F1F780E590E00E9484020CC084E6A8
:1005A00090E00E94840288EC9FEA0197F1F78EE5C3
:1005B00091E00E948402789408951F93182F882355
:1005C00071F08091D501181721F080E091E00E9430
:1005D000E80EE5E2F0E08081806480830DC08091C8
:1005E000D501882321F08EE091E00E94E80EE5E23B
:1005F000F0E080818F7B80831093D5011F91089557
:100600001F920F920FB60F9211242F933F934F9387
:100610005F936F937F938F939F93AF93BF93EF936A
:10062000FF9380918500209184009091D601892BC1
:10063000822B09F06DC081E08093D601A8951DBA88
:10064000789420E030E040E050E0E9E2F0E08081A2
:1006500082FF02C04F5F5F4F2F5F3F4F83E0283E16
:100660003807A9F7483C510508F04DC081E0809358
:10067000840082E08093810080910902882309F040
:100680003CC081E0809309020E94DD02EBE2F0E0D1
:100690008081806180838081886080834A9916C0D0
:1006A00020E030E044EC59E0E9E2F0E02F5F3F4F1A
:1006B000CA010197F1F7808182FD05C081E02C32EB
:1006C0003807A1F707C02C52314020F481E0809315
:1006D000090219C082E0809309028DE191E00E9435
:1006E000E80EEBE2F0E080818F7E8083808188607D
:1006F000808386E00E94A30206C089E391E00E9405
:10070000E80E1092090281E08CBB8DBB1092D601DD
:10071000FF91EF91BF91AF919F918F917F916F91D9
:100720005F914F913F912F910F900FBE0F901F90AF
:1007300018951F93CF93DF93182F84EB0E94B50673
:10074000812F0E94030785EB0E94DC06882319F0A5
:1007500085EB0E94DC060E941607182F0E941607E0
:10076000382F20E0E901C10FD11D0E9416070E9419
:100770002C07DD231CF460E070E007C0CE0165E0CB
:1007800070E00E94080D6B5A7A40862F972FDF91F8
:10079000CF911F910895CF92DF92EF92FF920F9326
:1007A0001F9300D08EE391E0ADB7BEB712969C9335
:1007B0008E9311970E94CC0E00D0EDB7FEB7319604
:1007C0000F2EF5E4EF2EF1E0FF2EF02DF182E08206
:1007D0000F2EFCEDCF2EF1E0DF2EF02DD6018D9106
:1007E0009D918D01938382830E94CC0EEDB7FEB75D
:1007F0003196F182E082D8018D919C91938382831E
:100800000E94CC0EEDB7FEB73196F182E082D601A0
:1008100014968D919C911597938382830E94CC0EA0
:10082000EDB7FEB73196F182E082D60116968D9132
:100830009C911797938382830E94CC0EEDB7FEB7ED
:100840003196F182E082D60118968D919C9119978C
:10085000938382830E94CC0EEDB7FEB73196F1826E
:10086000E082D6011A968D919C911B979383828387
:100870000E94CC0E0F900F900F900F908AE090E0A6
:100880000E94E10E1F910F91FF90EF90DF90CF90AB
:1008900008958CE090E09093C5008093C40088E9AF
:1008A0008093C10086E08093C20085E991E061EC0D
:1008B00071E00E94540E789408952F923F924F92C7
:1008C0005F926F927F928F929F92AF92BF92CF92E0
:1008D000DF92EF92FF920F931F93DF93CF9300D09D
:1008E00000D0CDB7DEB780EC84B988E087B988E165
:1008F0008AB98FE385B987EF88B90F2EFBE2EF2E17
:10090000FF24F02D87EEF701808380916400A89585
:1009100029E288E190E00FB6F894A89580936000F2
:100920000FBE209360000E9449040E94AE06109200
:10093000CA0187E08093B10091E09093700014BCED
:1009400083E085BD90936E0010928000109281002C
:100950001092820090936F0082E0809369009DBBAB
:1009600089E491E00E94E80EF70180818061808334
:100970008081877F808380E00E94DD0210920902DF
:100980007894EE24FF24CC24DD2400E044244A940F
:100990000F2EF3E05F2EF02D10E0AA24BB240F2EC3
:1009A000FBE28F2E9924F02D662477240F2EF8EA8F
:1009B0002F2EF1E63F2EF02D4091CA0140310CF46C
:1009C00083C1A895C701602F70E00E941C0D862F7F
:1009D000972F9C838B831092CA01892B61F400D0DE
:1009E00022E531E0EDB7FEB7328321830E94CC0EC1
:1009F0000F900F9038C15520C1F000D000D0EDB756
:100A0000FEB731968FE591E0918380835282138205
:100A10000E94CC0E5A940F900F900F900F9087E089
:100A20000E9499039C838B83630100D000D0EDB7B3
:100A3000FEB731962BE631E0318320838B819C8198
:100A4000938382830E94CC0E0F900F900F900F9093
:100A50008B819C810E94D4010E9437027C0186E038
:100A60000E949903FC018B819C81845893409F01D3
:100A7000220F331F820F931F67EE7FEF0E941C0D22
:100A8000862F972F9C838B83992314F47C826B820F
:100A90002B813C812E153F0584F4C5018E0D9F1DD1
:100AA000880F991F880F991F880F991FB9010E94FD
:100AB0001C0D862F972F5C0109C0C501BB200CF4CB
:100AC00003965C01B594A794B594A79436EFE3160A
:100AD0003FEFF3063CF40F2EF6EFEF2EFFEFFF2E65
:100AE000F02D02C0FF201CF59701220F331FC70114
:100AF000880F991F880F991F880F991F280F391F7A
:100B0000C601880F991F880F991F880F991F8C198C
:100B10009D09280F391F332314F4295F3F4F6901C2
:100B2000D594C794D594C794D594C79426C02FE183
:100B300030E0C29EC001C39E900DD29E900D112444
:100B40009701220F331FA701440F551F440F551F54
:100B5000440F551F240F351F280F391F332314F45A
:100B6000215E3F4F6901D594C794D594C794D5941D
:100B7000C794D594C794D594C794BF01882777FDAF
:100B80008095982F0E94190C2AE939E949E95EEB12
:100B90000E94A50C20E030E044EB52E40E94820B5E
:100BA0000E94E60B7A836983EDB7FEB73C970FB6D8
:100BB000F894FEBF0FBEEDBF319626E731E03183DA
:100BC0002083F382E282D582C482778366838B811D
:100BD0009C8191878087B386A2860E94CC0EEDB758
:100BE000FEB73C960FB6F894FEBF0FBEEDBF29814D
:100BF0003A812C153D053CF035EFA31631E0B306E4
:100C000014F410E030C01F5F00D000D0EDB7FEB785
:100C1000319685EA91E091838083128313820E944A
:100C2000CC0E0F900F900F900F90809109028230A0
:100C300041F41F5F1330B9F481E00E94A30210E079
:100C400012C00E947702992374F01F5F133040F0A6
:100C500093E09093D20184E00E94A30212E003C0CB
:100C600083E00E94A3028091D2018823F9F0982F9B
:100C700091509093D20180910902813019F4E3E000
:100C8000E093090200D000D0EDB7FEB7319627EB14
:100C900031E031832083928313820E94CC0E730152
:100CA00000E00F900F900F900F9020C080910902EC
:100CB000833019F0730100E019C01092090273012A
:100CC000630100E053011DC0242F332727FD309519
:100CD000842D90E02817390749F0442E003130F474
:100CE0000F5F87E00E949903E80EF91E80910902C8
:100CF0008130A9F0813028F08230A9F0833041F5AD
:100D00001AC080E00E94DD02F4018081806180834E
:100D10008081877F80831092D20110E01BC0F40194
:100D200080818061808381E00E94DD02F401808106
:100D3000886080830FC080E00E94DD02F401808122
:100D40008F7E80838081886080836301530102C02D
:100D500010920902C1010197F1F72ECEE8EBF0E005
:100D600088E480838AE080830895982FECEBF0E09C
:100D7000108284EA808380818823ECF78091B90017
:100D8000887F883011F081E008959093BB0084E85B
:100D90008093BC00ECEBF0E080818823ECF780913D
:100DA000B900982F987F983111F480E0089580E081
:100DB000903409F081E00895982F84EA8093BC0074
:100DC000ECEBF0E080818823ECF78091B900887F1C
:100DD000803111F081E008959093BB0084E8809306
:100DE000BC00ECEBF0E080818823ECF78091B90047
:100DF000982F987F983111F480E0089580E0903426
:100E000009F081E008958093BB0084E88093BC00E2
:100E1000ECEBF0E080818823ECF78091B90090E062
:100E2000887F883209F091E0892F089584EC8093BF
:100E3000BC00ECEBF0E080818823ECF78091BB00F4
:100E4000089584E88093BC00ECEBF0E08081882377
:100E5000ECF78091BB00089584E98093BC0008956D
:100E6000CF92DF92EF92FF920F931F93CF93DF9376
:100E7000182F062F7A0169010E94B506882321F5F3
:100E8000802F0E940307812F81600E94B50688236E
:100E9000D9F486010150104061F0C0E0D0E00E941A
:100EA0001607F701EC0FFD1F80832196C017D107AD
:100EB000B0F30E942107F701EC0DFD1D31978083EF
:100EC0000E942C0780E001C081E0DF91CF911F914B
:100ED0000F91FF90EF90DF90CF900895DF92EF9207
:100EE000FF920F931F93CF93DF93D62E7A01890140
:100EF0000E94B5068823C1F48D2D0E9403070115B9
:100F0000110571F0C0E0D0E0F701EC0FFD1F80810A
:100F10000E940307882341F42196C017D107A0F34C
:100F20000E942C0780E001C081E0DF91CF911F91EA
:100F30000F91FF90EF90DF900895CF92DF92EF92A4
:100F4000FF920F931F93CF93DF937B016A01816020
:100F50000E94B506882311F081E01AC08601015075
:100F6000104061F0C0E0D0E00E941607F701EC0FDE
:100F7000FD1F80832196C017D107B0F30E9421077F
:100F8000F701EC0DFD1D319780830E942C0780E056
:100F9000DF91CF911F910F91FF90EF90DF90CF9055
:100FA0000895EF92FF920F931F93CF93DF937B01EE
:100FB0008A010E94B5068823A9F40115110571F074
:100FC000C0E0D0E0F701EC0FFD1F80810E94030715
:100FD000882341F42196C017D107A0F30E942C0763
:100FE00080E001C081E0DF91CF911F910F91FF90D0
:100FF000EF900895A1E1B0E0E0E0F8E00C942F0D4F
:101000003C017F876E876A01FC011782168283810B
:1010100081FD03C06FEF7FEF6FC39E012F5F3F4FD6
:10102000398B288BF3012381EE85FF8523FD859184
:1010300023FF8191FF87EE87882309F45AC3853205
:1010400051F4EE85FF8523FD859123FF8191FF8774
:10105000EE87853229F490E0B3010E94A00EE2CF22
:10106000982F10E0882499241032B0F49B3269F054
:101070009C3228F4903251F0933271F40BC09D32BF
:1010800039F0903349F4116028C01260146025C013
:10109000186023C0106121C017FD2AC0892F80531A
:1010A0008A3078F416FF06C0FAE09F9E902C112437
:1010B000980E13C03AE0839E802C1124880E106293
:1010C0000CC09E3221F416FD14C3106406C09C3679
:1010D00011F4106802C0983659F4EE85FF8523FD9F
:1010E000959123FF9191FF87EE87992309F0BCCF5B
:1010F000892F8554833020F4812F8061905E07C052
:10110000892F8556833008F09FC1812F8F7E86FD01
:1011100002C076E0972E6FE3F62EF822953619F48A
:10112000F0E4FF2A07C0963619F420E8F22A02C03C
:1011300091109A94F7FE0AC03BE3391518F45CE36A
:10114000B52E02C0B92CB39427E009C047E0491579
:1011500020F4BB2447E0942EF7CF292DBB24C601F1
:1011600004969D878C87F6016081718182819381CD
:10117000AE014F5F5F4F0B2D0E94660D6C01098120
:10118000202E332400FF04C003FD02C01DE209C06D
:10119000F1FE02C01BE205C0F2FC02C010E001C07B
:1011A00010E2C1018C709070892BB9F1112311F4F8
:1011B00083E001C084E0881510F088240AC0881AF2
:1011C000F3FC07C080E290E0B3010E94A00E8A9475
:1011D000C9F7112329F0812F90E0B3010E94A00EDE
:1011E00023FE03C008E610E00EC00CE610E00BC0C2
:1011F000E114F10409F0805290E0B3010E94A00EC6
:101200000F5F1F4F05C0EF2CFF24F0E1EF22FF24FA
:10121000F8018491882361F714C1F7FE12C0BC0C59
:1012200024FE04C08A81813309F4BA941B141CF093
:10123000BB24B3942DC0F8E0FB1550F538E0B32E75
:1012400027C0F6FC25C0892D90E08C159D054CF03B
:101250002CEFC2162FEFD20624F030E8F32A01C09B
:101260009A94992049F0E2E0F0E0EC0FFD1FE90DBF
:10127000F11D80818033A1F3F7FE0AC0B92CB3942D
:10128000892D90E0C816D90614F0992401C09C1845
:10129000F7FC03C025E030E009C01C141D041CF05D
:1012A00021E030E003C096012F5F3F4F112311F082
:1012B0002F5F3F4F992029F0892D90E00196280F4C
:1012C000391F882D90E02817390714F0882401C0B1
:1012D000821A4F2C5524C20189709070892B39F0E5
:1012E00008C080E290E0B3010E94A00E8A9488209A
:1012F000C1F7112329F0812F90E0B3010E94A00EC5
:1013000043FE07C008C080E390E0B3010E94A00E36
:101310008A948820C1F7F7FE46C08601D7FE02C036
:1013200000E010E076010894E11CF11CE01AF10ADB
:1013300041E050E04C0F5D1FE40EF51E26014B18F6
:101340005108892D90E0AA24BB24A81AB90A5FEF9E
:101350000F3F150729F48EE290E0B3010E94A00E22
:10136000C016D10634F0401651061CF4F7018081F6
:1013700001C080E3015010400894E11CF11C0A15E3
:101380001B052CF090E0B3010E94A00EE0CF0C15DD
:101390001D0539F49A81963318F4953311F424FE1F
:1013A00081E390E04BC08A81813309F00F7E90E0A9
:1013B000B3010E94A00E9920A1F08EE290E0B3014B
:1013C0000E94A00E12E0E1E0F0E0EC0FFD1FE10F43
:1013D000F11D1F5F808190E0B3010E94A00E9A94DE
:1013E00091F744FC03C085E690E002C085E490E0FC
:1013F000B3010E94A00ED7FC05C0C114D10441F472
:1014000004FF06C0D094C194D108D3948DE201C0EA
:101410008BE290E0B3010E94A00E80E305C08F5FD5
:1014200026EF3FEFC20ED31E3AE0C316D104BCF73D
:1014300090E0B3010E94A00EC601C096B3010E94C5
:10144000A00ECC84DD8452C1933631F0933799F0ED
:10145000933509F059C023C0F601808189835E016C
:101460000894A11CB11C22E030E0C20ED31E21E082
:10147000E22EF12C12C0F601A080B18016FD03C04F
:101480006FEF7FEF02C0692D70E022E030E0C20E06
:10149000D31EC5010E94490E7C011F7713C0F601BF
:1014A000A080B18016FD03C06FEF7FEF02C0692DF1
:1014B00070E022E030E0C20ED31EC5010E943E0E55
:1014C0007C01106813FF07C01BC080E290E0B301ED
:1014D0000E94A00E8A94882D90E0E816F906A8F3E1
:1014E0000FC0F50117FD859117FF81915F0190E015
:1014F000B3010E94A00E81108A940894E108F108BB
:10150000E114F10471F7F2C0943611F0993689F5BF
:1015100017FF08C0F601208131814281538184E0A8
:1015200090E00AC0F601808191819C01442737FD3B
:101530004095542F82E090E0C80ED91E9FE6F92E08
:10154000F12257FF09C050954095309521953F4FA6
:101550004F4F5F4F90E8F92ACA01B901AE014F5FC2
:101560005F4F2AE030E00E941D0FE82EE889EE1A56
:1015700041C0953721F41F7E2AE030E01CC0197F5E
:101580009F3661F0903720F4983509F0B2C00FC053
:10159000903739F0983709F0ACC004C028E030E04B
:1015A0000AC0106114FD146020E130E004C014FD95
:1015B000166020E132E017FF08C0F60160817181FA
:1015C0008281938144E050E008C0F60180819181DE
:1015D000BC0180E090E042E050E0C40ED51EAE01B8
:1015E0004F5F5F4F0E941D0FE82E5889E51A8FE765
:1015F000F82EF122F6FE0BC08EEFF822E91438F433
:10160000F4FE07C0F2FC05C09FEEF92202C01E2DB9
:1016100001C0192DF4FE0DC0FE01EE0DF11D8081FB
:10162000803319F4E9EEFE2208C01F5FF2FE05C008
:1016300003C08F2D867809F01F5F0F2DF3FC14C0B7
:10164000F0FE0FC0181510F09E2C0BC09E2C980CAD
:10165000911A182D06C080E290E0B3010E94A00EFE
:101660001F5F1815C0F304C0181510F4811A01C0CB
:10167000882404FF0FC080E390E0B3010E94A00E15
:1016800002FF1DC001FD03C088E790E00EC088E5A1
:1016900090E00BC0802F867891F001FF02C08BE2B2
:1016A00001C080E2F7FC8DE290E0B3010E94A00E41
:1016B00006C080E390E0B3010E94A00E9A94E91462
:1016C000C0F3EA94E1E0F0E0EC0FFD1FEE0DF11D38
:1016D000808190E0B3010E94A00EEE2091F706C039
:1016E00080E290E0B3010E94A00E8A948820C1F7A6
:1016F00099CCF30166817781CB016196E2E10C948C
:101700004B0D5058BB27AA270ED0E5C0D6D030F0DD
:10171000DBD020F031F49F3F11F41EF4CBC00EF467
:10172000E095E7FBC1C0E92FE7D080F3BA17620765
:1017300073078407950718F071F49EF5FFC00EF447
:10174000E0950B2EBA2FA02D0B01B90190010C01D1
:10175000CA01A0011124FF27591B99F0593F50F4E9
:10176000503E68F11A16F040A22F232F342F442741
:10177000585FF3CF469537952795A795F040539539
:10178000C9F77EF41F16BA0B620B730B840BBAF009
:101790009150A1F0FF0FBB1F661F771F881FC2F774
:1017A0000EC0BA0F621F731F841F48F48795779588
:1017B0006795B795F7959E3F08F0B3CF9395880F3F
:1017C00008F09927EE0F97958795089504D06894AF
:1017D000B111B5C0089598D088F09F5790F0B92FF7
:1017E0009927B751A0F0D1F0660F771F881F991F76
:1017F0001AF0BA95C9F712C0B13081F09FD0B1E0AC
:1018000008959CC0672F782F8827B85F39F0B93FBB
:10181000CCF3869577956795B395D9F73EF4909577
:101820008095709561957F4F8F4F9F4F0895E894F5
:1018300009C097FB3EF490958095709561957F4F18
:101840008F4F9F4F9923A9F0F92F96E9BB279395C6
:10185000F695879577956795B795F111F8CFFAF4D6
:10186000BB0F11F460FF1BC06F5F7F4F8F4F9F4F07
:1018700016C0882311F096E911C0772321F09EE865
:10188000872F762F05C0662371F096E8862F70E0CB
:1018900060E02AF09A95660F771F881FDAF7880FA5
:1018A0009695879597F9089597F99F6780E870E076
:1018B00060E008959FEF80EC089500240A941616C6
:1018C000170618060906089500240A94121613062E
:1018D000140605060895092E0394000C11F48823BC
:1018E00052F0BB0F40F4BF2B11F460FF04C06F5FD8
:1018F0007F4F8F4F9F4F089557FD9058440F551FAE
:1019000059F05F3F71F04795880F97FB991F61F081
:101910009F3F79F087950895121613061406551FF8
:10192000F2CF4695F1DF08C0161617061806991F64
:10193000F1CF86957105610508940895E894BB2759
:1019400066277727CB0197F908950BD0C4CFB5DF71
:1019500028F0BADF18F0952309F0A6CFABCF1124F9
:10196000EECFCADFA0F3959FD1F3950F50E0551F3E
:10197000629FF001729FBB27F00DB11D639FAA27E4
:10198000F00DB11DAA1F649F6627B00DA11D661F33
:10199000829F2227B00DA11D621F739FB00DA11D54
:1019A000621F839FA00D611D221F749F3327A00D0E
:1019B000611D231F849F600D211D822F762F6A2FAA
:1019C00011249F5750408AF0E1F088234AF0EE0F2F
:1019D000FF1FBB1F661F771F881F91505040A9F73C
:1019E0009E3F510570F060CFAACF5F3FECF3983E69
:1019F000DCF3869577956795B795F795E7959F5FA3
:101A0000C1F7FE2B880F911D9695879597F908953C
:101A1000AA1BBB1B51E107C0AA1FBB1FA617B70714
:101A200010F0A61BB70B881F991F5A95A9F7809530
:101A30009095BC01CD01089597FB092E07260AD089
:101A400077FD04D0E5DF06D000201AF4709561958B
:101A50007F4F0895F6F7909581959F4F08952F92A7
:101A60003F924F925F926F927F928F929F92AF922E
:101A7000BF92CF92DF92EF92FF920F931F93CF937B
:101A8000DF93CDB7DEB7CA1BDB0B0FB6F894DEBF12
:101A90000FBECDBF09942A88398848885F846E8438
:101AA0007D848C849B84AA84B984C884DF80EE8082
:101AB000FD800C811B81AA81B981CE0FD11D0FB68B
:101AC000F894DEBF0FBECDBFED010895283008F0B9
:101AD00027E03327DA01990F311D87FD91600096C9
:101AE0006105710539F432602E5F3D9330E32A952C
:101AF000E1F708959F3F30F080387105610509F0E6
:101B00003C5F3C5F3D93913008F08068911DDF930E
:101B1000CF931F930F93FF92EF92192F987F969573
:101B2000E92F96959695E90FFF27E653FF4F9927E2
:101B30003327EE24FF24A701E701059008940794BA
:101B400028F4360FE71EF81E491F511D660F771F38
:101B5000881F991F0694A1F70590079428F4E70EB3
:101B6000F81E491F561FC11D770F881F991F661F3A
:101B70000694A1F70590079428F4F80E491F561F04
:101B8000C71FD11D880F991F661F771F0694A1F7E5
:101B90000590079420F4490F561FC71FD81F990FAF
:101BA000661F771F881F0694A9F7849110951770F8
:101BB00041F0D695C79557954795F794E7941A95B0
:101BC000C1F7E0E7F0E068941590159135916591C3
:101BD000959105907FE27395E118F10A430B560B3E
:101BE000C90BD009C0F7E10CF11E431F561FC91FD6
:101BF000D01D7EF4703311F48A95E6CFE89401503D
:101C000030F0080F0AF40027021708F4202F23955C
:101C1000022F7A3328F079E37D932A95E9F710C0F3
:101C20007D932A9589F6069497956795379517952C
:101C30001794E118F10A430B560BC90BD00998F021
:101C400023957E9173957A3308F070E37C9320138B
:101C5000B8F77E9170617D9330F0839571E37D9349
:101C600070E32A95E1F71124EF90FF900F911F91F7
:101C7000CF91DF91992787FD90950895FC010590FC
:101C8000615070400110D8F7809590958E0F9F1F7E
:101C90000895FC016150704001900110D8F78095C3
:101CA00090958E0F9F1F08950F931F93CF93DF93EF
:101CB0008C01EB01009731F46115710519F420E0F6
:101CC00030E038C081E090E06EE070E00E947B0F71
:101CD000FC019C01009771F180E88383209771F0EB
:101CE000D387C28781E8838380912C0290912D0253
:101CF000892B21F4F0932D02E0932C02011511059C
:101D0000C9F01187008783818260838380912E02CE
:101D100090912F02892B71F4F0932F02E0932E0201
:101D20008091300290913102892B21F4F09331029D
:101D3000E0933002C901DF91CF911F910F91089577
:101D40000F931F93CF93DF938C01EB018B8181FF66
:101D50001BC082FF0DC02E813F818C819D81281781
:101D6000390764F4E881F9810193F983E88306C0B7
:101D7000E885F985802F0995892B31F48E819F8123
:101D800001969F838E8302C00FEF1FEFC801DF9182
:101D9000CF911F910F910895A0E0B0E0E2EDFEE039
:101DA0000C943F0DFE0135966191719180912E0248
:101DB00090912F02AF010E94FA072096E2E00C9466
:101DC0005B0D60912E0270912F020E94A00E08956B
:101DD0000F931F93CF93DF938C01E0912E02F0912C
:101DE0002F02838181FF21C0C0E0D0E00DC0E091CF
:101DF0002E02F0912F0220853185BF01F90109954E
:101E0000892B11F0CFEFDFEFF80181918F0188234B
:101E100071F7E0912E02F0912F02208531858AE042
:101E2000BF01F9010995892B11F0CFEFDFEFCE014A
:101E3000DF91CF911F910F910895FA01AA272830C1
:101E400051F1203181F1E8946F936E7F6E5F7F4F87
:101E50008F4F9F4FAF4FB1E03ED0B4E03CD0670F03
:101E6000781F891F9A1FA11D680F791F8A1F911D56
:101E7000A11D6A0F711D811D911DA11D20D009F4A6
:101E800068943F912AE0269F11243019305D3193E8
:101E9000DEF6CF010895462F4770405D4193B3E0D1
:101EA0000FD0C9F7F6CF462F4F70405D4A3318F078
:101EB000495D31FD4052419302D0A9F7EACFB4E029
:101EC000A6959795879577956795BA95C9F70097E1
:101ED0006105710508959B01AC010A2E0694579582
:101EE000479537952795BA95C9F7620F731F841FD9
:101EF000951FA01D08950F931F93CF93DF93689FA5
:101F00008001699F100D789F100D1124C8010E9457
:101F1000970FEC01009729F060E070E0A8010E94A3
:101F20009C10CE01DF91CF911F910F910895CF9317
:101F3000DF93BC018230910510F462E070E0A09163
:101F40003402B0913502ED01E0E0F0E040E050E015
:101F500021C0888199818617970769F48A819B81BE
:101F6000309719F09383828304C090933502809355
:101F70003402FE0134C06817790738F44115510561
:101F800019F08417950708F4AC01FE018A819B8142
:101F90009C01E9012097E9F641155105A9F1CA0113
:101FA000861B970B049708F4BA01E0E0F0E02AC022
:101FB0008D919C91119784179507F9F46417750713
:101FC00081F412968D919C911397309719F0938319
:101FD000828304C09093350280933402FD013296CF
:101FE0004FC0CA01861B970BFD01E80FF91F6193D3
:101FF000719302978D939C9343C0FD0182819381DD
:102000009C01D9011097A1F6809132029091330280
:10201000892B41F48091CD019091CE0190933302B0
:10202000809332024091CF015091D001411551056A
:1020300041F44DB75EB78091CB019091CC01481B24
:10204000590B209132023091330224173507B0F436
:10205000CA01821B930B8617970780F0AB014E5F76
:102060005F4F8417950750F0420F531F5093330270
:1020700040933202F9016193719302C0E0E0F0E015
:10208000CF01DF91CF910895CF93DF93009709F4AB
:1020900050C0EC0122971B821A82A0913402B091A9
:1020A0003502109709F140E050E0AC17BD0708F188
:1020B000BB83AA83FE0121913191E20FF31FAE177A
:1020C000BF0779F48D919C911197280F391F2E5FCE
:1020D0003F4F3983288312968D919C9113979B8350
:1020E0008A834115510571F4D0933502C0933402AF
:1020F00020C012968D919C911397AD01009711F01D
:10210000DC01D3CFFA01D383C28321913191E20F55
:10211000F31FCE17DF0769F488819981280F391FD3
:102120002E5F3F4FFA01318320838A819B81938305
:102130008283DF91CF910895DC0101C06D934150FE
:0A2140005040E0F70895F894FFCF37
:10214A003E3E3E2052656C616973204F4E003E3E12
:10215A003E2052656C616973204F46460054656D96
:10216A0070657261747572652050726F74656374FC
:10217A00696F6E204F666621000A785878004172AE
:10218A007261793A00202569000A0A5374617274EF
:10219A000A004572726F722054656D703D300053AB
:1021AA00746172747570202569200054656D703AE7
:1021BA002025692C2000736C5F7261773A202569AB
:1021CA002C20736C3A2025692C20735F6D61783A54
:1021DA002025692C20663A2025692C20696E743ADC
:1021EA002025690A004F6E2D436F756E7465723A29
:1021FA002025693B200A004F66662D436F756E7471
:10220A0065723A2025693B200A00F4200036020054
:02221A000000C2
:00000001FF
