:100000000C94B5000C9477030C94D2000C94D2009D
:100010000C94D2000C94D2000C94D2000C94D20018
:100020000C94D2000C94E4000C94D2000C94D200F6
:100030000C94D2000C940F010C94D2000C94D200BA
:100040000C941F010C94D2000C946D010C948C0143
:100050000C94D2000C94D2000C94D2000C94D200D8
:100060000C94D2000C94D2006E616E00696E660032
:1000700000407A10F35A00A0724E18090010A5D45F
:10008000E80000E87648170000E40B54020000CABC
:100090009A3B000000E1F505000080969800000002
:1000A00040420F000000A086010000001027000061
:1000B0000000E803000000006400000000000A00E7
:1000C000000000000100000000002C76D888DC67EA
:1000D0004F0823DFC1DFAE59E1B1B796E5E3E45342
:1000E000C63AE651997696E8E6C28426EB898C9B5F
:1000F00062ED407C6FFCEFBC9C9F40F2BAA56FA5FF
:10010000F490055A2AF75C936B6CF9676DC11BFC80
:10011000E0E40D47FEF520E6B500D0ED902E03009B
:10012000943577050080841E080000204E0A0000E8
:1001300000C80C333333330F986E12831141EF8DA7
:100140002114893BE65516CFFEE6DB18D1844B38E7
:100150001BF77C1D901DA4BBE424203284725E2218
:100160008100C9F124ECA1E53D2711241FBECFEF8A
:10017000D4E0DEBFCDBF12E0A0E0B1E0E2E9F4E3FD
:1001800002C005900D92AC33B107D9F712E0ACE391
:10019000B2E001C01D92A03BB107E1F70E94DA0472
:1001A0000C94471A0C9400008FB7F89420913F02EA
:1001B0003091400240914102509142028FBF622F24
:1001C000732F842F952F08951F920F920FB60F92C1
:1001D00011248F939F93AF93BF9380912B028F5FD6
:1001E00080932B0280913F0290914002A0914102A6
:1001F000B09142028D579F4FAF4FBF4F80933F0248
:1002000090934002A0934102B0934202BF91AF91FC
:100210009F918F910F900FBE0F901F9018951F9276
:100220000F920FB60F921124109281001092850048
:10023000109284000F900FBE0F901F9018951F9280
:100240000F920FB60F9211242F933F934F938F93DA
:100250009F93EF93FF9380914802282F2F5F209365
:10026000480280914702382F3F5F30934702409108
:100270007C02433049F4822F90E007972CF0E8E2AB
:10028000F0E0808188608083822F90E00B973CF0C3
:1002900010924802E8E2F0E08081877F808342305C
:1002A00039F4393728F0EBE2F0E080818F7E8083EB
:1002B000383838F010924702EBE2F0E0808180613C
:1002C0008083FF91EF919F918F914F913F912F915B
:1002D0000F900FBE0F901F9018951F920F920FB6A0
:1002E0000F9211248F93EF93FF938091C600E091BA
:1002F0004E02F0E0EF71F070E55AFD4F808380917F
:100300004E028F5F80934E02FF91EF918F910F907D
:100310000FBE0F901F9018951F920F920FB60F925D
:1003200011248F939F93EF93FF9390917B02809181
:100330007E02981781F0E0917E02F0E0EF71F0709C
:10034000E158FD4F80818093C60080917E028F5FCF
:1003500080937E0205C0E1ECF0E080818F7D808398
:10036000FF91EF919F918F910F900FBE0F901F9073
:10037000189580917B0290917E02891B08951F93AE
:10038000CF93DF93182FC0E2D0E00E94B9019E0105
:10039000281B310923303105C4F3E0917B02F0E0E2
:1003A000EF71F070E158FD4F108380917B028F5FF9
:1003B00080937B02E1ECF0E080818062808380E0CA
:1003C00090E0DF91CF911F91089580914E0290911E
:1003D0007D02891B08950E94E5018823E1F3E091E5
:1003E0007D02F0E0EF71F070E55AFD4F8081909151
:1003F0007D029F5F90937D0290E00895222733272E
:10040000281B390B12F4215F3F4FC9019595879541
:100410009595879595958795959587959C01220F3C
:10042000331F880F991F880F991F880F991F280F56
:10043000391F215B3E4F822F932F089580915902DF
:1004400090915A022091530230915402821B930BD7
:10045000880F991F880F991F880F991F20914402B8
:1004600030914502820F931F880F991F63E070E05F
:100470000E949E16862F972F609344027093450228
:100480000895482F592F80914F0290915002892B47
:10049000E1F4E9E5F2E040835183DF0112974C93E8
:1004A00011965C93DF0114974C9311965C93DF01D6
:1004B00016974C9311965C93DF0118974C93119605
:1004C0005C933A97408351830895EFE4F2E029E585
:1004D00032E08281938181939193E217F307C9F708
:1004E000242F352F30935A022093590280915702BE
:1004F00090915802281B390BC901880F991F220FB0
:10050000331F220F331F220F331F820F931F60915F
:100510004C0270914D029B01220F331FA901440F21
:10052000551F440F551F440F551F240F351F260F0D
:10053000371F820F931F64E170E00E949E16709334
:100540004D0260934C020895A7E5B2E0FD012191B0
:1005500031918091510290915202281B390BC901AF
:10056000880F991F880F991F820F931F189740813A
:1005700051812D913C911197421B530B9A01220FEF
:10058000331F240F351F820F931F16964D915C91D8
:10059000179714962D913C911597421B530B9A0176
:1005A000220F331F240F351FA901440F551F440F7D
:1005B000551F240F351F820F931F69E070E00E94C2
:1005C0009E16862F972F08952091590230915A0236
:1005D0008091570290915802281B390B822F932F3C
:1005E0000895E5E2F0E020812068208364E170E076
:1005F0000E948A16862F972F009761F020E030E046
:1006000040E157E2FA013197F1F72F5F3F4F28178A
:100610003907C0F3E5E2F0E080818F7780830895A9
:100620001F93182F882371F080914302181721F02F
:1006300080E091E00E948C18E5E2F0E08081806427
:1006400080830DC080914302882321F08EE091E0E9
:100650000E948C18E5E2F0E080818F7B808310930C
:1006600043021F910895F894A895833089F084304F
:1006700028F4813041F08230A1F514C0843069F053
:10068000863079F51CC088E790E00E94F10229C00D
:1006900088EC90E00E94F10224C082E593E00E9481
:1006A000F1021FC080E590E00E94F10280E49CE925
:1006B0000197F1F780E590E00E94F10212C084E614
:1006C00090E00E94F10228E037E042E350E0CA01E6
:1006D0000197F1F721503040D1F78EE591E00E946B
:1006E000F10278948DE191E00E948C1808951F9298
:1006F0000F920FB60F9211242F933F934F935F9356
:100700006F937F938F939F93AF93BF93EF93FF93D9
:10071000809185002091840090914602892B822B44
:1007200009F06DC081E080934602A8951DBA7894C7
:1007300020E030E040E050E0E9E2F0E0808182FF3C
:1007400002C04F5F5F4F2F5F3F4F83E0283E380767
:10075000A9F7483C510508F04DC081E08093840022
:1007600082E08093810080917C02882309F03CC064
:1007700081E080937C020E941003EBE2F0E0808134
:10078000806180838081886080834A9916C020E0E0
:1007900030E048E853E1E9E2F0E02F5F3F4FCA0163
:1007A0000197F1F7808182FD05C081E02C32380786
:1007B000A1F707C02C52314020F481E080937C02E5
:1007C00019C082E080937C0282E291E00E948C1842
:1007D000EBE2F0E080818F7E80838081886080837F
:1007E00086E00E94330306C08EE391E00E948C18DD
:1007F00010927C0281E08CBB8DBB10924602FF916F
:10080000EF91BF91AF919F918F917F916F915F9188
:100810004F913F912F910F900FBE0F901F90189501
:100820001F93CF93DF93182F84EB0E943407882304
:1008300039F5812F0E94A307882311F585EB90E0FD
:100840000E949207882321F085EB90E00E94920796
:100850000E94BD07182F0E94BD07382F20E0E90134
:10086000C10FD11D0E94BD070E949507DD2344F0F2
:10087000CE0165E070E00E948A166B5A7A4002C091
:1008800066E970E0862F972FDF91CF911F91089531
:10089000CF92DF92EF92FF920F931F9300D083E4E9
:1008A00091E0ADB7BEB712969C938E9311970E94BC
:1008B000701800D0EDB7FEB731960F2EFAE4EF2E88
:1008C000F1E0FF2EF02DF182E0820F2EFFE4CF2E1B
:1008D000F2E0DF2EF02DD6018D919D918D01938355
:1008E00082830E947018EDB7FEB73196F182E082E4
:1008F000D8018D919C91938382830E947018EDB7EB
:10090000FEB73196F182E082D60114968D919C91CA
:100910001597938382830E947018EDB7FEB73196C6
:10092000F182E082D60116968D919C911797938360
:1009300082830E947018EDB7FEB73196F182E08293
:10094000D60118968D919C911997938382830E946A
:100950007018EDB7FEB73196F182E082D6011A9693
:100960008D919C911B97938382830E9470180F90A6
:100970000F900F900F908AE090E00E9485181F91D1
:100980000F91FF90EF90DF90CF9008958CE090E072
:100990009093C5008093C40088E98093C10086E0ED
:1009A0008093C2008FEB91E06BEE71E00E94F8172C
:1009B000789408952F923F924F925F926F927F9218
:1009C0008F929F92AF92BF92CF92DF92EF92FF925F
:1009D0000F931F93DF93CF93CDB7DEB72A970FB650
:1009E000F894DEBF0FBECDBF80EC84B988E087B934
:1009F00088E18AB98FE385B987EF88B90BE210E007
:100A000087EEF801808380916400A89529E288E14F
:100A100090E00FB6F894A895809360000FBE2093E5
:100A2000600082E090E020E80FB6F8942093610027
:100A3000809361000FBE0E94C6040E942B07109293
:100A40002B0287E08093B10091E09093700014BC7A
:100A500083E085BD90936E0010928000109281001B
:100A60001092820090936F0082E0809369009DBB9A
:100A70008EE491E00E948C18F8018081806180836F
:100A80008081877F808380E00E94100310927C0227
:100A900081E00E94420F6DEC7CEC8CEC9DE30E94A7
:100AA000B60B789400E010E0FF24FFEFFA870F2EDA
:100AB000F3E04F2EF02D6624772455240F2EFBE211
:100AC000AF2EBB24F02D0F2EF0E52F2EF3EC3F2E92
:100AD000F02D40912B0240310CF472C1A895C80151
:100AE0006F2D70E00E949E16862F972F6C0110923A
:100AF0002B02C114D10461F400D087E591E0EDB779
:100B0000FEB7928381830E9470180F900F90D6C019
:100B10004420B1F000D000D0EDB7FEB7319684E6A6
:100B200091E091838083428213820E9470184A94DC
:100B30000F900F900F900F9087E00E9410046C01AF
:100B400000D000D0EDB7FEB7319680E791E09183F9
:100B50008083D382C2820E9470180F900F900F90F2
:100B60000F90C6010E9441020E94A4024C0186E03F
:100B70000E9410040E941E027C01171454F4992351
:100B800014F0739406C094E1590E0F2EF6EF7F2EE9
:100B9000F02DECE3E51524F40F2EFCE35F2EF02D91
:100BA000C6010E94FE01252D332727FD30958901BE
:100BB000080F191F8DB79EB70A970FB6F8949EBFFE
:100BC0000FBE8DBFEDB7FEB731968BE791E09183F5
:100BD000808313830283F582E482872D992787FD22
:100BE000909597838683318720870E947018EDB790
:100BF000FEB73A960FB6F894FEBF0FBEEDBF0E15C6
:100C00001F050CF05AC0639400D000D0EDB7FEB7BA
:100C100031968EE991E091838083628213820E94F3
:100C200070180F900F900F900F9080917C0282307F
:100C300059F493E0691609F041C081E00E94330342
:100C40006624772473943AC00E94E40218161906A9
:100C500094F5EBE0E61528F0F9E0CF16F2E0DF06B8
:100C6000B4F053E050933C0280917C02813019F043
:100C7000662483E027C084E00E94330384EFC81613
:100C800081E0D806D4F466247724739417C094E0E6
:100C9000961530F4862D63E00E947E16992329F084
:100CA000E5EFCE16E1E0DE064CF083E00E94330370
:100CB0007724739403C099200CF4662480913C023D
:100CC0008823F1F0815080933C0280917C02813036
:100CD00019F4F3E0F0937C0200D000D0EDB7FEB73A
:100CE000319680EB91E09183808380913C028283F6
:100CF00013820E9470180F900F900F900F9006C0F3
:100D000080917C02833011F410927C02CE01019616
:100D10000E94420D00D000D0EDB7FEB7319683ECB3
:100D200091E0918380838985828313820E94701869
:100D3000EDB7FEB7319682ED91E091838083898192
:100D40009A81938382830E947018EDB7FEB7319623
:100D500084EE91E0918380838B819C819383828355
:100D60000E947018EDB7FEB7319688EF91E091833D
:100D700080838D819E81938382830E947018EDB75A
:100D8000FEB731968CE092E0918380838F819885C5
:100D9000938382830E9470180F900F900F900F9092
:100DA0000E94F107882321F400E010E0FF241CC01A
:100DB0008BE192E00E948C1800E010E0FF2414C048
:100DC000242F332727FD3095EA858E2F90E02817B2
:100DD000390751F04A87FFE0FF1530F0F39487E0C0
:100DE0000E941004080F191F80917C028130B1F01D
:100DF000813028F08230B1F0833039F51BC080E0BB
:100E00000E941003F5018081806180838081877F4B
:100E1000808310923C026624772419C0F5018081FA
:100E20008061808381E00E941003F50180818860E9
:100E300080830DC080E00E941003F50180818F7EC9
:100E4000808380818860808302C010927C02C1010F
:100E50000197F1F73ECE1092B900E8EBF0E08AEF8F
:100E600080838AE080830895982F84EA8093BC0071
:100E70002EEF3FEFECEBF0E08081882324F021504F
:100E80003040D1F724C08091B900887F883011F0BC
:100E90008031E9F49093BB0084E88093BC002EEF8E
:100EA0003FEFECEBF0E08081882324F021503040CC
:100EB000D1F70DC08091B900982F987F983111F427
:100EC00080E0089580E0903419F081E0089581E099
:100ED0000895CF93DF93282FECEBF0E094EAA9EB91
:100EE000B0E0CBEBD0E034E844E990838081882304
:100EF000ECF78C91887F883011F08031B1F728832E
:100F0000308380818823ECF78C91887F803211F0C8
:100F1000883529F44083808184FDFDCFE6CFDF91C1
:100F2000CF9108950E943407089584E98093BC000E
:100F30002EEF3FEFECEBF0E0808184FF03C0215007
:100F40003040D1F708958093BB0084E88093BC00C3
:100F50002EEF3FEFECEBF0E0808188232CF0215066
:100F60003040D1F791E007C08091B90090E0887FD0
:100F7000883209F091E0892F089584EC8093BC00B9
:100F80002EEF3FEFECEBF0E0808188231CF48091A2
:100F9000BB00089521503040B9F780E0089584E8FF
:100FA0008093BC002EEF3FEFECEBF0E080818823D4
:100FB0001CF48091BB00089521503040B9F780E0C7
:100FC00008951F9310E0812F880F0E9434070E941C
:100FD00095071F5F1038B9F71F910895809134026B
:100FE000089580914B0210924B02089590934A020B
:100FF0008093490208958091490290914A02089590
:10100000282F30E002C0220F331F9A95E2F72F5F9E
:101010003F4F822F932F0895009719F420E030E07E
:1010200022C001979C0140E050E0DA01C9018070C4
:101030000097A105B10519F460E070E00FC060E011
:1010400070E056954795379527956F5F7F4FDA018A
:10105000C90180700097A105B10599F73070962FEE
:101060008827282B392B822F932F0895AF92BF9278
:10107000CF92DF92EF92FF920F931F935C0170E08B
:1010800080E090E020E03FE24AE350E00E945F16FB
:101090006C507E4F8F4F9F4F28EE33E040E050E082
:1010A0000E94B116622F732F842F952F7B018C0124
:1010B00016950795F794E794CC24DD24A6019501B5
:1010C0000E945F16E60EF71E081F191FC801B70120
:1010D00028EE33E040E050E00E94B116842F952FB7
:1010E000622F732F1F910F91FF90EF90DF90CF90A1
:1010F000BF90AF9008956F927F928F929F92AF9220
:10110000BF92CF92DF92EF92FF920F931F933B011A
:101110004C0150E060E070E0CB01BA0120E03FE21A
:101120004AE350E00E945F166C507E4F8F4F9F4FF6
:1011300028EE33E040E050E00E94B116E22EF32E9C
:10114000042F152F57016801D694C794B794A7941C
:10115000C401B30128EE33E040E050E00E945F1686
:10116000A60EB71EC81ED91EC601B501A80197015B
:101170000E94B116842F952F622F732F1F910F910C
:10118000FF90EF90DF90CF90BF90AF909F908F90A7
:101190007F906F900895EF92FF920F931F93CF93DC
:1011A000DF93182FF62EE72E042F809134020E9431
:1011B0003407812F0E94A3078091340281600E942E
:1011C0009207002381F02F2D3E2DE901023020F0FF
:1011D0000E94BD07888303C00E94CF078883015007
:1011E0002196002399F70E949507DF91CF911F91D7
:1011F0000F91FF90EF9008950F931F93CF93DF937C
:10120000182FEB01042F809134020E943407812FA4
:101210000E94A307002329F089910E94A30701508F
:10122000D9F70E949507DF91CF911F910F910895F3
:101230006F927F928F929F92AF92BF92CF92DF92E6
:10124000EF92FF920F931F93182F809134020E9408
:101250003407812F0E94A3078091340281600E948D
:1012600092070E94BD077C010027F7FC0095102F14
:101270001E2D0027FF24EE240E94BD075C010E9462
:10128000BD073C010E94CF07CC24B7FCC094DC2CE6
:101290006501BB24AA24EA28FB280C291D29AA27BA
:1012A00097FDA095BA2FE82AF92A0A2B1B2B0E943A
:1012B0009507882477FC8094982C982C872C762C82
:1012C0006624E628F728082919296E2D7F2D802FFE
:1012D000912F1F910F91FF90EF90DF90CF90BF90D3
:1012E000AF909F908F907F906F900895EF92FF92B4
:1012F0000F931F93182F809134020E943407812F7F
:101300000E94A3078091340281600E9492070E948C
:10131000BD07182F00E00E94CF077C010E949507AF
:101320000E291F29802F912F1F910F91FF90EF9071
:10133000089584E40E947609A0E0B0E0BC01CD01EC
:101340000E94461520E030E040E05CE30E94D415A6
:1013500008951F93182F809134020E943407812F23
:101360000E94A3078091340281600E9492070E942C
:10137000CF07182F0E949507812F1F9108950F9373
:101380001F938C0181E00E94A909982F92959F706C
:101390009170F8019083982F9695969596959170F7
:1013A0009283982F9695969591709183982F929508
:1013B00096959695937091709383881F8827881FC0
:1013C00084831F910F910895882331F480E50E9452
:1013D000A9098F5F880F0895813011F08FEF08956C
:1013E00080E70E94A9098F5F880F08950F931F93CC
:1013F000CF93DF938C01EB0180E00E94E4098883A6
:10140000198286E40E94A90990E001969D838C834D
:1014100068810E9436086A877B878C879D8781E573
:101420000E9476090E9400089F838E8368810E9433
:1014300036086E877F87888B998B81E00E94E4094C
:101440008A831B8281E70E9476090E9400089C0122
:1014500099878887F8018381882339F08E819F815D
:10146000A901481B590B59874887888599856A8146
:101470000E9436086A8B7B8B8C8B9D8BDF91CF9182
:101480001F910F9108950F931F93DF93CF93CDB7C3
:10149000DEB76B970FB6F894DEBF0FBECDBF8E01DF
:1014A0000F5F1F4FC8010E94BF09C801BE016A5FDC
:1014B0007F4F0E94F6098981882329F426E33BE0C7
:1014C00040E050E00AC088899989AA89BB899C01BB
:1014D000AD012C57324F4F4F5F4F8B81882389F0DE
:1014E00088899989AA89BB898E549D4FAF4FBF4F78
:1014F000880F991FAA1FBB1F280F391F4A1F5B1F88
:101500000FC08A81882361F088899989AA89BB895B
:101510008C569D4FAF4FBF4F280F391F4A1F5B1F7F
:101520008C81882361F08C899D89AE89BF898C5616
:101530009D4FAF4FBF4F280F391F4A1F5B1F8D8133
:10154000882361F0888D998DAA8DBB8D8A5D9D4F12
:10155000AF4FBF4F280F391F4A1F5B1F2093A202B6
:101560003093A3024093A4025093A502622F732FDD
:10157000842F952F6B960FB6F894DEBF0FBECDBFAC
:10158000CF91DF911F910F910895DF92EF92FF921B
:101590000F931F93D82E7A018B01809134020E9401
:1015A00034078D2D0E94A307812F9927AA27BB27D7
:1015B0000E94A307C801AA27BB270E94A307BB2735
:1015C000A12F902F8F2D0E94A3078E2D0E94A3077D
:1015D0000E9495071F910F91FF90EF90DF90089563
:1015E000FF920F931F93182FF62E072F809134022E
:1015F0000E943407812F0E94A307802F0E94A30717
:101600008F2D0E94A3070E9495071F910F91FF90B5
:101610000895CF92DF92EF92FF920F931F93DF9383
:10162000CF93CDB7DEB76B970FB6F894DEBF0FBE82
:10163000CDBF6B017C0160322EE4720720E082078F
:1016400020E0920708F482C08E010F5F1F4FC8018F
:101650000E94BF09C801BE016A5F7F4F0E94F60960
:101660008981882329F428EE38E040E050E00AC060
:1016700088899989AA89BB899C01AD012A5C344F6C
:101680004F4F5F4F8B81882389F088899989AA8978
:10169000BB898E549D4FAF4FBF4F880F991FAA1F14
:1016A000BB1F280F391F4A1F5B1F0FC08A81882369
:1016B00061F088899989AA89BB898C569D4FAF4F63
:1016C000BF4F280F391F4A1F5B1F0C81002361F099
:1016D0008C899D89AE89BF898C569D4FAF4FBF4F76
:1016E000280F391F4A1F5B1F8D81882311F481E069
:1016F0002EC0DA01C9018A5D9D4FAF4FBF4FC8169A
:10170000D906EA06FB0610F1A7019601281B390B42
:101710004A0B5B0BCA01B90148850E947B08002374
:1017200021F08C859D85680F791FCB010E940C08E4
:10173000BC0181E70E94F00AC092A202D092A302EB
:10174000E092A402F092A50281E001C080E06B96D5
:101750000FB6F894DEBF0FBECDBFCF91DF911F91C2
:101760000F91FF90EF90DF90CF900895EF92FF924E
:101770000F931F937B018C0120E030E040E050E0AC
:101780000E9416158823E4F0C801B70128EB3EEF4C
:101790004FEF53E40E94D015181694F0C801B7011A
:1017A00020E030E040E053E40E94D4150E941A1576
:1017B0009B01AC0184E4B9010E94F00A81E001C000
:1017C00080E01F910F91FF90EF9008950F931F936A
:1017D000182F062F809134020E943407812F0E9417
:1017E000A307802F0E94A3070E9495071F910F91C6
:1017F0000895682F616080E00E94E60B0E94D4008B
:101800009093A00280939F0217C08091490290910B
:101810004A02892B89F00E94D40020919F023091C6
:10182000A002821B930B2091490230914A02281793
:10183000390710F480E0089583E10E94A90990E03F
:1018400087709070892B09F38BE061E00E94E60BB2
:1018500080E060E00E94E60B81E008950F931F9303
:10186000CF93DF93EC018B0180E861E00E94E60BEF
:101870008FEF61E00E94E60B80E060E00E94E60BE3
:101880008FEF66E00E94E60B83E80E94A909682FAB
:10189000646083E80E94E60B8FEF67E00E94E60B2E
:1018A00081E861E00E94E60B80E861E00E94E60BBF
:1018B00084E96BE60E94E60B83E860E00E94E60B99
:1018C0000E94D4009093A00280939F0217C0809141
:1018D000490290914A02892B89F00E94D4002091FC
:1018E0009F023091A002821B930B209149023091FC
:1018F0004A022817390710F480E035C083E80E94B7
:10190000A909882321F383E861E00E94E60B82E9BC
:101910000E94A909982F9F779883881F8827881F7E
:10192000F801808381E860E00E94E60B8FEF66E0BB
:101930000E94E60B83E80E94A909682F6B7F83E869
:101940000E94E60B8FEF61E00E94E60B80E061E011
:101950000E94E60B8FEF60E00E94E60B80E860E0FB
:101960000E94E60B81E0DF91CF911F910F910895C6
:10197000EF92FF920F931F93DF93CF93CDB7DEB714
:101980002C970FB6F894DEBF0FBECDBF7C010E942E
:10199000D4009093A00280939F0226C080914902B8
:1019A00090914A02892B01F10E94D40020919F025C
:1019B0003091A002821B930B2091490230914A0280
:1019C0002817390788F481E080934B0200D08CE21D
:1019D00092E0EDB7FEB7928381830E9470180FEFFB
:1019E0001FEF0F900F903FC083E10E94A90990E084
:1019F00087709070892B91F2E114F10429F48EE143
:101A00000E9476098C012BC084E1BE016F5F7F4F7D
:101A10004CE00E94CB088981F70180879B8180E0A0
:101A20002C8130E0822B932B978386839F8180E0EB
:101A3000288530E0822B932B93838283998580E0E5
:101A40002A8530E0822B932B958384833B8520E08D
:101A50008C8590E08901082B192B118300838BE082
:101A600061E00E94E60B802F912F2C960FB6F89420
:101A7000DEBF0FBECDBFCF91DF911F910F91FF90C1
:101A8000EF900895CF93DF93EC0180E861E00E942E
:101A9000E60B8FEF61E00E94E60B80E060E00E94C1
:101AA000E60B81E96091A1020E94E60B80E061E013
:101AB0000E94E60B8FEF60E00E94E60B80E860E09A
:101AC0000E94E60B80E061E00E94E60B0E94D400D9
:101AD0009093A00280939F0226C08091490290912A
:101AE0004A02892B01F10E94D40020919F0230917B
:101AF000A002821B930B2091490230914A022817C1
:101B0000390788F481E080934B0200D080E392E0B3
:101B1000EDB7FEB7928381830E9470182FEF3FEFDD
:101B20000F900F9009C080E00E94A90980FDD5CFD9
:101B3000CE010E94B80C9C01822F932FDF91CF9190
:101B4000089580E061E00E94E60B8FEF61E00E9463
:101B5000E60B80E060E00E94E60B81E960E00E9415
:101B6000E60B80E061E00E94E60B8FEF60E00E94F0
:101B7000E60B0895EF92FF920F931F937B018C0168
:101B800080E861E00E94E60B8FEF61E00E94E60BC7
:101B900080E060E00E94E60B81E96091A1020E9472
:101BA000E60B80E061E00E94E60B8FEF60E00E94B0
:101BB000E60B80E860E00E94E60BE114F104010509
:101BC0001105C1F088EF0E947609009749F09C0149
:101BD00040E050E0C801B7010E945F167B018C0114
:101BE00084E0B801A7010E94C50A80E064E00E9479
:101BF000E60B04C080E062E00E94E60B1F910F91AB
:101C0000FF90EF900895DF92EF92FF920F931F9352
:101C1000DF93CF93CDB7DEB76B970FB6F894DEBFE7
:101C20000FBECDBFF82EE62E862F8695D82EDA94DD
:101C30008E010F5F1F4FC8010E94BF09C801BE017E
:101C40006A5F7F4F0E94F609FF2009F04EC08EE0C8
:101C5000E816A1F08E1528F08CE0E81609F003C113
:101C600008C080E1E81679F082E1E81609F0FBC0CF
:101C70000FC087E568E10E94E60B0EC087E560E3D0
:101C80000E94E60B09C087E560E40E94E60B04C0F1
:101C900087E560E50E94E60B86E568E00E94E60BBA
:101CA00080E56D2D0E94E60B6C897D898E899F8968
:101CB0004E2D0E947B08DC01CB010E940C08BC0168
:101CC00081E50E94F00A688979898A899B894E2D6D
:101CD0000E947B0881E06130780710F06FEF01C04F
:101CE000615086E40E94E60BA3C081E0F81609F07B
:101CF000BAC08AE0E81669F18E1528F088E0E81687
:101D000009F0B1C009C08CE0E81609F43FC08EE0CC
:101D1000E81609F0A8C057C088E460E10E94E60B0D
:101D200087E468E00E94E60B82E362E00E94E60B33
:101D300080E36CE00E94E60B8FEF61E00E94E60B0F
:101D400080E360E30E94E60B8FEF60E00E94E60B09
:101D500056C088E468E20E94E60B87E468E00E94CF
:101D6000E60B82E363E00E94E60B80E369E00E94F9
:101D7000E60B8FEF61E00E94E60B80E360E20E94D9
:101D8000E60B8FEF60E00E94E60B39C088E468E361
:101D90000E94E60B87E468E00E94E60B82E363E0C2
:101DA0000E94E60B80E368E00E94E60B8FEF61E0A3
:101DB0000E94E60B80E360E20E94E60B8FEF60E09A
:101DC0000E94E60B1CC088E468E40E94E60B87E4EE
:101DD00068E00E94E60B82E363E00E94E60B80E38A
:101DE00067E00E94E60B8FEF61E00E94E60B80E364
:101DF00060E20E94E60B8FEF60E00E94E60B80E756
:101E00006D2D0E94E60B688D798D8A8D9B8D4E2DF0
:101E10000E947B088C81882321F08C859D85680F2A
:101E2000791FCB010E940C08BC0181E70E94F00AD7
:101E30006091A2027091A3028091A4029091A502E8
:101E40000E94090B81E00E94A909182F81E062E03D
:101E50000E94E60B80E00E94F90B81E0612F0E9456
:101E6000E60B81E001C080E06B960FB6F894DEBF10
:101E70000FBECDBFCF91DF911F910F91FF90EF90DB
:101E8000DF9008950F931F93DF93CF93CDB7DEB705
:101E900028970FB6F894DEBF0FBECDBF882341F060
:101EA00089E80E94A909682F616089E80E94E60B11
:101EB00088E860E00E94E60B80E861E00E94E60BA3
:101EC0008FEF61E00E94E60B80E060E00E94E60B8D
:101ED00081E90E94A9098093A10280E061E00E944B
:101EE000E60B8FEF60E00E94E60B80E860E00E9466
:101EF000E60B80E60E94A909682F626180E60E94D5
:101F0000E60B60E070E080E89EE30E94B60B81E0A3
:101F10006FEF0E94E60BCE010196BE016E5F7F4F10
:101F20000E942E0C882309F4E3C180EBBE016D5F93
:101F30007F4F46E00E94CB088FEF61E00E94E60BE6
:101F40008FE460E00E94E60B8EE46CE20E94E60BF8
:101F50008FEF60E00E94E60B86EB64EB0E94E60BDD
:101F60008A81882311F470E001C07CE060E040E0E9
:101F700050E0DE01139601E010E0942F471718F0AF
:101F800089816817B1F4892F869586958695FD011C
:101F9000E80FF11DCA0187709070980102C0220FEE
:101FA000331F8A95E2F7C9018095208182238083BF
:101FB00013C0842F869586958695FD01E80FF11D47
:101FC000808190E09A012770307002C095958795C6
:101FD0002A95E2F780FD6F5F4F5F5F4F40335105F9
:101FE00061F680EBBE016D5F7F4F46E00E94FC080A
:101FF0008FEF61E00E94E60B80E060E00E94E60B5C
:102000008FEF60E00E94E60B89E060E00E94E60B43
:1020100080E160E00E94E60B81E160E00E94E60B57
:1020200084E261E00E94E60B85E26FEF0E94E60B1E
:1020300085E760E00E94E60B8FEF61E00E94E60B0F
:102040008EE46CE20E94E60B88E460E00E94E60BFE
:1020500080E360E20E94E60B8FEF60E00E94E60BF7
:1020600080E369E00E94E60B84E560E00E94E60BF5
:1020700081E364E00E94E60B82E363E00E94E60BEA
:1020800080E463E80E94E60B86E465E20E94E60BCA
:1020900080E660E00E94E60B87E260E00E94E60BCB
:1020A00080E566E00E94E60B81E560E00E94E60BB9
:1020B00082E566E90E94E60B86E568E00E94E60B91
:1020C00087E560E30E94E60B81E660E00E94E60B94
:1020D00082E660E00E94E60B84E660E00E94E60B88
:1020E00085E660E00E94E60B86E660EA0E94E60B69
:1020F0008FEF61E00E94E60B82E262E30E94E60B52
:1021000087E464E10E94E60B89E46FEF0E94E60B2E
:102110008AE460E00E94E60B8FEF60E00E94E60B2D
:102120008AE76AE00E94E60B8BE760E00E94E60B1C
:1021300088E761E20E94E60B8FEF61E00E94E60B08
:1021400083E264E30E94E60B82E460E00E94E60B17
:1021500084E46FEF0E94E60B85E466E20E94E60BE2
:1021600086E465E00E94E60B80E460E40E94E60BF2
:102170008EE066E00E94E60B80E26AE10E94E60BD8
:1021800083E460E40E94E60B8FEF60E00E94E60BC0
:1021900084E363E00E94E60B85E364E40E94E60BBF
:1021A0008FEF61E00E94E60B81E364E00E94E60BA2
:1021B0008BE469E00E94E60B8CE465E00E94E60B8C
:1021C0008DE464E00E94E60B8FEF60E00E94E60B76
:1021D00084E460E00E94E60B85E460E20E94E60B86
:1021E00087E468E00E94E60B88E468E20E94E60B60
:1021F00087E660E00E94E60B80E764E00E94E60B61
:1022000081E761E00E94E60B82E76EEF0E94E60B39
:1022100086E760E00E94E60B87E760E00E94E60B3D
:102220008FEF61E00E94E60B8DE061E00E94E60B1B
:102230008FEF60E00E94E60B80E861E00E94E60B11
:1022400081E068EF0E94E60B8FEF61E00E94E60BF1
:102250008EE861E00E94E60B80E061E00E94E60B00
:102260008FEF60E00E94E60B80E860E00E94E60BE2
:102270008AE064E00E94E60B84E80E94A909682FC6
:102280006F7E84E80E94E60B8BE061E00E94E60B23
:102290000E94430A6093A2027093A3028093A40257
:1022A0009093A50281E068EE0E94E60B6091A20285
:1022B0007091A3028091A4029091A5020E94090B43
:1022C00081E061E00E94E60B80E40E94F90B882324
:1022D00079F081E062E00E94E60B80E00E94F90B59
:1022E000882331F081E068EE0E94E60B81E001C0B6
:1022F00080E028960FB6F894DEBF0FBECDBFCF9119
:10230000DF911F910F9108951F93182F682F6695E5
:102310008AE80E94E60B109334021F910895A1E110
:10232000B0E0E5E9F1E10C94D3163C017F876E87BC
:102330006A01FC0117821682838181FD03C06FEF61
:102340007FEF6FC39E012F5F3F4F398B288BF301C7
:102350002381EE85FF8523FD859123FF8191FF87F2
:10236000EE87882309F45AC3853251F4EE85FF8540
:1023700023FD859123FF8191FF87EE87853229F424
:1023800090E0B3010E944418E2CF982F10E0882417
:1023900099241032B0F49B3269F09C3228F49032C8
:1023A00051F0933271F40BC09D3239F0903349F4FF
:1023B000116028C01260146025C0186023C010612D
:1023C00021C017FD2AC0892F80538A3078F416FF68
:1023D00006C0FAE09F9E902C1124980E13C03AE09C
:1023E000839E802C1124880E10620CC09E3221F432
:1023F00016FD14C3106406C09C3611F4106802C0A8
:10240000983659F4EE85FF8523FD959123FF919130
:10241000FF87EE87992309F0BCCF892F855483303D
:1024200020F4812F8061905E07C0892F855683300C
:1024300008F09FC1812F8F7E86FD02C076E0972E27
:102440006FE3F62EF822953619F4F0E4FF2A07C060
:10245000963619F420E8F22A02C091109A94F7FEF9
:102460000AC03BE3391518F45CE3B52E02C0B92C61
:10247000B39427E009C047E0491520F4BB2447E0A6
:10248000942EF7CF292DBB24C60104969D878C87F7
:10249000F6016081718182819381AE014F5F5F4F50
:1024A0000B2D0E940A176C010981202E332400FF96
:1024B00004C003FD02C01DE209C0F1FE02C01BE220
:1024C00005C0F2FC02C010E001C010E2C1018C7036
:1024D0009070892BB9F1112311F483E001C084E0DD
:1024E000881510F088240AC0881AF3FC07C080E21F
:1024F00090E0B3010E9444188A94C9F7112329F08F
:10250000812F90E0B3010E94441823FE03C008E627
:1025100010E00EC00CE610E00BC0E114F10409F06D
:10252000805290E0B3010E9444180F5F1F4F05C016
:10253000EF2CFF24F0E1EF22FF24F801849188239F
:1025400061F714C1F7FE12C0BC0C24FE04C08A81DE
:10255000813309F4BA941B141CF0BB24B3942DC02E
:10256000F8E0FB1550F538E0B32E27C0F6FC25C087
:10257000892D90E08C159D054CF02CEFC2162FEFA5
:10258000D20624F030E8F32A01C09A94992049F049
:10259000E2E0F0E0EC0FFD1FE90DF11D80818033DA
:1025A000A1F3F7FE0AC0B92CB394892D90E0C816A8
:1025B000D90614F0992401C09C18F7FC03C025E04B
:1025C00030E009C01C141D041CF021E030E003C001
:1025D00096012F5F3F4F112311F02F5F3F4F99203E
:1025E00029F0892D90E00196280F391F882D90E061
:1025F0002817390714F0882401C0821A4F2C55245B
:10260000C20189709070892B39F008C080E290E097
:10261000B3010E9444188A948820C1F7112329F03D
:10262000812F90E0B3010E94441843FE07C008C008
:1026300080E390E0B3010E9444188A948820C1F797
:10264000F7FE46C08601D7FE02C000E010E076012A
:102650000894E11CF11CE01AF10A41E050E04C0F33
:102660005D1FE40EF51E26014B185108892D90E0E0
:10267000AA24BB24A81AB90A5FEF0F3F150729F453
:102680008EE290E0B3010E944418C016D10634F0E7
:10269000401651061CF4F701808101C080E301500F
:1026A00010400894E11CF11C0A151B052CF090E069
:1026B000B3010E944418E0CF0C151D0539F49A812E
:1026C000963318F4953311F424FE81E390E04BC067
:1026D0008A81813309F00F7E90E0B3010E94441893
:1026E0009920A1F08EE290E0B3010E94441812E01C
:1026F000E1E0F0E0EC0FFD1FE10FF11D1F5F8081B5
:1027000090E0B3010E9444189A9491F744FC03C0EE
:1027100085E690E002C085E490E0B3010E94441891
:10272000D7FC05C0C114D10441F404FF06C0D09405
:10273000C194D108D3948DE201C08BE290E0B30143
:102740000E94441880E305C08F5F26EF3FEFC20E62
:10275000D31E3AE0C316D104BCF790E0B3010E9447
:102760004418C601C096B3010E944418CC84DD848D
:1027700052C1933631F0933799F0933509F059C02F
:1027800023C0F601808189835E010894A11CB11CDD
:1027900022E030E0C20ED31E21E0E22EF12C12C066
:1027A000F601A080B18016FD03C06FEF7FEF02C07D
:1027B000692D70E022E030E0C20ED31EC5010E94F8
:1027C000ED177C011F7713C0F601A080B18016FDC4
:1027D00003C06FEF7FEF02C0692D70E022E030E0B0
:1027E000C20ED31EC5010E94E2177C01106813FFC0
:1027F00007C01BC080E290E0B3010E9444188A9495
:10280000882D90E0E816F906A8F30FC0F50117FD32
:10281000859117FF81915F0190E0B3010E944418F8
:1028200081108A940894E108F108E114F10471F729
:10283000F2C0943611F0993689F517FF08C0F601F9
:10284000208131814281538184E090E00AC0F60109
:10285000808191819C01442737FD4095542F82E06F
:1028600090E0C80ED91E9FE6F92EF12257FF09C04D
:1028700050954095309521953F4F4F4F5F4F90E8D1
:10288000F92ACA01B901AE014F5F5F4F2AE030E07B
:102890000E94C118E82EE889EE1A41C0953721F44C
:1028A0001F7E2AE030E01CC0197F9F3661F0903710
:1028B00020F4983509F0B2C00FC0903739F098373E
:1028C00009F0ACC004C028E030E00AC0106114FD7B
:1028D000146020E130E004C014FD166020E132E015
:1028E00017FF08C0F601608171818281938144E005
:1028F00050E008C0F60180819181BC0180E090E049
:1029000042E050E0C40ED51EAE014F5F5F4F0E9403
:10291000C118E82E5889E51A8FE7F82EF122F6FE45
:102920000BC08EEFF822E91438F4F4FE07C0F2FC75
:1029300005C09FEEF92202C01E2D01C0192DF4FE24
:102940000DC0FE01EE0DF11D8081803319F4E9EE1A
:10295000FE2208C01F5FF2FE05C003C08F2D8678DF
:1029600009F01F5F0F2DF3FC14C0F0FE0FC0181507
:1029700010F09E2C0BC09E2C980C911A182D06C09E
:1029800080E290E0B3010E9444181F5F1815C0F365
:1029900004C0181510F4811A01C0882404FF0FC068
:1029A00080E390E0B3010E94441802FF1DC001FDC6
:1029B00003C088E790E00EC088E590E00BC0802F50
:1029C000867891F001FF02C08BE201C080E2F7FC43
:1029D0008DE290E0B3010E94441806C080E390E0CD
:1029E000B3010E9444189A94E914C0F3EA94E1E018
:1029F000F0E0EC0FFD1FEE0DF11D808190E0B301C2
:102A00000E944418EE2091F706C080E290E0B301E6
:102A10000E9444188A948820C1F799CCF3016681FA
:102A20007781CB016196E2E10C94EF166CD008F44B
:102A300081E0089594D088F09F5790F0B92F99279E
:102A4000B751A0F0D1F0660F771F881F991F1AF0B9
:102A5000BA95C9F712C0B13081F09BD0B1E00895AA
:102A600098C0672F782F8827B85F39F0B93FCCF32B
:102A7000869577956795B395D9F73EF490958095AF
:102A8000709561957F4F8F4F9F4F0895E89409C0CF
:102A900097FB3EF490958095709561957F4F8F4F91
:102AA0009F4F9923A9F0F92F96E9BB279395F695A7
:102AB000879577956795B795F111F8CFFAF4BB0F25
:102AC00011F460FF1BC06F5F7F4F8F4F9F4F16C089
:102AD000882311F096E911C0772321F09EE8872F13
:102AE000762F05C0662371F096E8862F70E060E0CF
:102AF0002AF09A95660F771F881FDAF7880F969548
:102B0000879597F90895990F0008550FAA0BE0E8EB
:102B1000FEEF16161706E807F907C0F0121613069F
:102B2000E407F50798F0621B730B840B950B39F4DF
:102B30000A2661F0232B242B252B21F408950A2645
:102B400009F4A140A6958FEF811D811D089557FDC1
:102B50009058440F551F59F05F3F71F04795880F0B
:102B600097FB991F61F09F3F79F0879508951216A2
:102B700013061406551FF2CF4695F1DF08C016164E
:102B800017061806991FF1CF8695710561050894FF
:102B90000895E894BB2766277727CB0197F9089516
:102BA000B2DF08F48FEF08950BD078C069D028F019
:102BB0006ED018F0952309F05AC05FC01124EACFF7
:102BC000C6DFA0F3959FD1F3950F50E0551F629F8C
:102BD000F001729FBB27F00DB11D639FAA27F00D76
:102BE000B11DAA1F649F6627B00DA11D661F829F9D
:102BF0002227B00DA11D621F739FB00DA11D621F82
:102C0000839FA00D611D221F749F3327A00D611D9E
:102C1000231F849F600D211D822F762F6A2F112480
:102C20009F5750408AF0E1F088234AF0EE0FFF1FD3
:102C3000BB1F661F771F881F91505040A9F79E3F0A
:102C4000510570F014C0A6CF5F3FECF3983EDCF363
:102C5000869577956795B795F795E7959F5FC1F747
:102C6000FE2B880F911D9695879597F9089597F9F2
:102C70009F6780E870E060E008959FEF80EC089522
:102C800000240A941616170618060906089500244B
:102C90000A9412161306140605060895092E0394C5
:102CA000000C11F4882352F0BB0F40F4BF2B11F439
:102CB00060FF04C06F5F7F4F8F4F9F4F0895629FEB
:102CC000D001739FF001829FE00DF11D649FE00D24
:102CD000F11D929FF00D839FF00D749FF00D659F85
:102CE000F00D9927729FB00DE11DF91F639FB00D84
:102CF000E11DF91FBD01CF0111240895991B79E051
:102D000004C0991F961708F0961B881F7A95C9F77B
:102D100080950895AA1BBB1B51E107C0AA1FBB1FCA
:102D2000A617B70710F0A61BB70B881F991F5A9557
:102D3000A9F780959095BC01CD01089597FB092EC8
:102D400007260AD077FD04D0E5DF06D000201AF46C
:102D5000709561957F4F0895F6F7909581959F4FF7
:102D60000895A1E21A2EAA1BBB1BFD010DC0AA1FCC
:102D7000BB1FEE1FFF1FA217B307E407F50720F0E4
:102D8000A21BB30BE40BF50B661F771F881F991F5F
:102D90001A9469F760957095809590959B01AC01A8
:102DA000BD01CF0108952F923F924F925F926F9293
:102DB0007F928F929F92AF92BF92CF92DF92EF92CB
:102DC000FF920F931F93CF93DF93CDB7DEB7CA1B4C
:102DD000DB0B0FB6F894DEBF0FBECDBF09942A8877
:102DE000398848885F846E847D848C849B84AA841F
:102DF000B984C884DF80EE80FD800C811B81AA81AC
:102E0000B981CE0FD11D0FB6F894DEBF0FBECDBF76
:102E1000ED010895283008F027E03327DA01990FF3
:102E2000311D87FD916000966105710539F43260AE
:102E30002E5F3D9330E32A95E1F708959F3F30F0F0
:102E400080387105610509F03C5F3C5F3D9391302E
:102E500008F08068911DDF93CF931F930F93FF922B
:102E6000EF92192F987F9695E92F96959695E90FF1
:102E7000FF27E653FF4F99273327EE24FF24A701AE
:102E8000E70105900894079428F4360FE71EF81E12
:102E9000491F511D660F771F881F991F0694A1F7C0
:102EA0000590079428F4E70EF81E491F561FC11D10
:102EB000770F881F991F661F0694A1F70590079446
:102EC00028F4F80E491F561FC71FD11D880F991FE0
:102ED000661F771F0694A1F70590079420F4490F09
:102EE000561FC71FD81F990F661F771F881F06948C
:102EF000A9F784911095177041F0D695C79557950D
:102F00004795F794E7941A95C1F7E0E7F0E06894E5
:102F10001590159135916591959105907FE2739586
:102F2000E118F10A430B560BC90BD009C0F7E10CAD
:102F3000F11E431F561FC91FD01D7EF4703311F4BC
:102F40008A95E6CFE894015030F0080F0AF4002784
:102F5000021708F4202F2395022F7A3328F079E303
:102F60007D932A95E9F710C07D932A9589F60694FA
:102F700097956795379517951794E118F10A430BC4
:102F8000560BC90BD00998F023957E9173957A332F
:102F900008F070E37C932013B8F77E9170617D9305
:102FA00030F0839571E37D9370E32A95E1F7112466
:102FB000EF90FF900F911F91CF91DF91992787FD9F
:102FC00090950895FC010590615070400110D8F76C
:102FD000809590958E0F9F1F0895FC016150704061
:102FE00001900110D8F7809590958E0F9F1F08953E
:102FF0000F931F93CF93DF938C01EB01009731F474
:103000006115710519F420E030E038C081E090E0EE
:103010006EE070E00E941F19FC019C01009771F1A5
:1030200080E88383209771F0D387C28781E8838308
:103030008091A6029091A702892B21F4F093A70218
:10304000E093A60201151105C9F01187008783815D
:10305000826083838091A8029091A902892B71F4E8
:10306000F093A902E093A8028091AA029091AB028A
:10307000892B21F4F093AB02E093AA02C901DF91FE
:10308000CF911F910F9108950F931F93CF93DF93CB
:103090008C01EB018B8181FF1BC082FF0DC02E8153
:1030A0003F818C819D812817390764F4E881F9817B
:1030B0000193F983E88306C0E885F985802F099597
:1030C000892B31F48E819F8101969F838E8302C06C
:1030D0000FEF1FEFC801DF91CF911F910F9108955E
:1030E000A0E0B0E0E6E7F8E10C94E316FE013596C7
:1030F000619171918091A8029091A902AF010E9403
:103100008F112096E2E00C94FF166091A802709156
:10311000A9020E94441808950F931F93CF93DF9341
:103120008C01E091A802F091A902838181FF21C066
:10313000C0E0D0E00DC0E091A802F091A902208586
:103140003185BF01F9010995892B11F0CFEFDFEF30
:10315000F80181918F01882371F7E091A802F09125
:10316000A902208531858AE0BF01F9010995892BE3
:1031700011F0CFEFDFEFCE01DF91CF911F910F91D3
:103180000895FA01AA27283051F1203181F1E894FD
:103190006F936E7F6E5F7F4F8F4F9F4FAF4FB1E04A
:1031A0003ED0B4E03CD0670F781F891F9A1FA11D45
:1031B000680F791F8A1F911DA11D6A0F711D811D46
:1031C000911DA11D20D009F468943F912AE0269F0B
:1031D00011243019305D3193DEF6CF010895462F6A
:1031E0004770405D4193B3E00FD0C9F7F6CF462F4B
:1031F0004F70405D4A3318F0495D31FD40524193B4
:1032000002D0A9F7EACFB4E0A69597958795779570
:103210006795BA95C9F700976105710508959B01F7
:10322000AC010A2E06945795479537952795BA9580
:10323000C9F7620F731F841F951FA01D08950F9378
:103240001F93CF93DF93689F8001699F100D789F34
:10325000100D1124C8010E943B19EC01009729F0C0
:1032600060E070E0A8010E94401ACE01DF91CF918A
:103270001F910F910895CF93DF93BC018230910588
:1032800010F462E070E0A091AE02B091AF02ED01E7
:10329000E0E0F0E040E050E021C0888199818617AD
:1032A000970769F48A819B81309719F09383828311
:1032B00004C09093AF028093AE02FE0134C0681741
:1032C000790738F44115510519F08417950708F46A
:1032D000AC01FE018A819B819C01E9012097E9F6FE
:1032E00041155105A9F1CA01861B970B049708F4F3
:1032F000BA01E0E0F0E02AC08D919C91119784170B
:103300009507F9F46417750781F412968D919C91D5
:103310001397309719F09383828304C09093AF0280
:103320008093AE02FD0132964FC0CA01861B970BF7
:10333000FD01E80FF91F6193719302978D939C93A0
:1033400043C0FD01828193819C01D9011097A1F6B0
:103350008091AC029091AD02892B41F480913702AB
:10336000909138029093AD028093AC024091390263
:1033700050913A024115510541F44DB75EB7809125
:10338000350290913602481B590B2091AC023091C6
:10339000AD0224173507B0F4CA01821B930B8617C0
:1033A000970780F0AB014E5F5F4F8417950750F091
:1033B000420F531F5093AD024093AC02F901619349
:1033C000719302C0E0E0F0E0CF01DF91CF9108956A
:1033D000CF93DF93009709F450C0EC0122971B8232
:1033E0001A82A091AE02B091AF02109709F140E0AD
:1033F00050E0AC17BD0708F1BB83AA83FE01219101
:103400003191E20FF31FAE17BF0779F48D919C91B4
:103410001197280F391F2E5F3F4F3983288312964B
:103420008D919C9113979B838A834115510571F46B
:10343000D093AF02C093AE0220C012968D919C91A2
:103440001397AD01009711F0DC01D3CFFA01D383BC
:10345000C28321913191E20FF31FCE17DF0769F488
:1034600088819981280F391F2E5F3F4FFA013183E0
:1034700020838A819B8193838283DF91CF910895FA
:10348000DC0101C06D9341505040E0F70895F8947D
:02349000FFCF6C
:103492003E3E3E2052656C616973204F4E003E3EB7
:1034A2003E2052656C616973204F46460042656555
:1034B200700054656D70657261747572652050722A
:1034C2006F74656374696F6E204F666621000A78B7
:1034D20058780041727261793A00202569000A0A1F
:1034E20053746172740A004572726F722054656D72
:1034F200703D30005374617274757020256920002C
:1035020054656D703A2025692C20006578705F73D0
:103512003A2025692C2073323A2025692C206263D7
:103522003A2025692C2066783A2025690A004F6ED8
:103532002D436F756E7465723A2025693B200A002F
:103542004F66662D436F756E7465723A2025693B2E
:10355200200A00537461747573202020202025787E
:103562000A00446973743A20202020202025752007
:103572006D6D0A00536967436F756E743A2020259A
:1035820075204D4350530A00416D6269436F756E59
:10359200743A202575204D4350530A0053706164DC
:1035A200436F756E743A2025750A0021212120543B
:1035B200696D656F75742021212100F454326D000C
:0C35C20054316D00522000B002000000E7
:00000001FF
