:100000000C94B5000C9400030C94D2000C94D20014
:100010000C94D2000C94D2000C94D2000C94D20018
:100020000C94D2000C94D4000C94D2000C94D20006
:100030000C94D2000C94E5000C94D2000C94D200E5
:100040000C94F5000C94D2000C9443010C946201C2
:100050000C94D2000C94D2000C94D2000C94D200D8
:100060000C94D2000C94D2006E616E00696E660032
:1000700000407A10F35A00A0724E18090010A5D45F
:10008000E80000E87648170000E40B54020000CABC
:100090009A3B000000E1F505000080969800000002
:1000A00040420F000000A086010000001027000061
:1000B0000000E803000000006400000000000A00E7
:1000C000000000000100000000002C76D888DC67EA
:1000D0004F0823DFC1DFAE59E1B1B796E5E3E45342
:1000E000C63AE651997696E8E6C28426EB898C9B5F
:1000F00062ED407C6FFCEFBC9C9F40F2BAA56FA5FF
:10010000F490055A2AF75C936B6CF9676DC11BFC80
:10011000E0E40D47FEF520E6B500D0ED902E03009B
:10012000943577050080841E080000204E0A0000E8
:1001300000C80C333333330F986E12831141EF8DA7
:100140002114893BE65516CFFEE6DB18D1844B38E7
:100150001BF77C1D901DA4BBE424203284725E2218
:100160008100C9F124ECA1E53D2711241FBECFEF8A
:10017000D4E0DEBFCDBF11E0A0E0B1E0E4E6F1E203
:1001800002C005900D92AA3DB107D9F712E0AAED81
:10019000B1E001C01D92AE33B107E1F70E945D04EA
:1001A0000C94B0100C9400001F920F920FB60F9297
:1001B00011248F938091D2018F5F8093D2018F9110
:1001C0000F900FBE0F901F9018951F920F920FB6B1
:1001D0000F921124109281001092850010928400D9
:1001E0000F900FBE0F901F9018951F920F920FB691
:1001F0000F9211242F933F934F938F939F93EF93DD
:10020000FF938091E001282F2F5F2093E0018091E0
:10021000DF01382F3F5F3093DF01409111024330FF
:1002200049F4822F90E007972CF0E8E2F0E080811B
:1002300088608083822F90E00B973CF01092E00161
:10024000E8E2F0E08081877F8083423039F43937FB
:1002500028F0EBE2F0E080818F7E8083383838F040
:100260001092DF01EBE2F0E0808180618083FF91FA
:10027000EF919F918F914F913F912F910F900FBED2
:100280000F901F9018951F920F920FB60F92112486
:100290008F93EF93FF938091C600E091E301F0E02C
:1002A000EF71F070E051FE4F80838091E3018F5F2A
:1002B0008093E301FF91EF918F910F900FBE0F900C
:1002C0001F9018951F920F920FB60F9211248F93C3
:1002D0009F93EF93FF9390911002809113029817D0
:1002E00081F0E0911302F0E0EF71F070EC5EFD4FF1
:1002F00080818093C600809113028F5F80931302E8
:1003000005C0E1ECF0E080818F7D8083FF91EF916B
:100310009F918F910F900FBE0F901F901895809115
:10032000100290911302891B08951F93CF93DF93BE
:10033000182FC0E2D0E00E948F019E01281B3109D6
:1003400023303105C4F3E0911002F0E0EF71F0705A
:10035000EC5EFD4F1083809110028F5F809310023E
:10036000E1ECF0E080818062808380E090E0DF91CA
:10037000CF911F9108958091E30190911202891B02
:1003800008950E94BB018823E1F3E0911202F0E09E
:10039000EF71F070E051FE4F8081909112029F5FEB
:1003A0009093120290E00895482F592F8091E40114
:1003B0009091E501892BE1F4EEEEF1E04083518369
:1003C000DF0112974C9311965C93DF0114974C93C5
:1003D00011965C93DF0116974C9311965C93DF01A5
:1003E00018974C9311965C933A97408351830895E4
:1003F000E4EEF1E02EEE31E08281938181939193DE
:10040000E217F307C9F7242F352F3093EF0120931C
:10041000EE018091EC019091ED01281B390BC9018F
:10042000880F991F220F331F220F331F220F331FF4
:10043000820F931F6091E1017091E2019B01220FF5
:10044000331FA901440F551F440F551F440F551F5B
:10045000240F351F260F371F820F931F64E170E0B2
:100460000E94290D7093E2016093E1010895ACEEC2
:10047000B1E0FD01219131918091E6019091E70178
:10048000281B390BC901880F991F880F991F820FEC
:10049000931F1897408151812D913C911197421BD8
:1004A000530B9A01220F331F240F351F820F931F06
:1004B00016964D915C91179714962D913C91159736
:1004C000421B530B9A01220F331F240F351FA90122
:1004D000440F551F440F551F240F351F820F931FC4
:1004E00069E070E00E94290D862F972F08952091D2
:1004F000EE013091EF018091EC019091ED01281B0C
:10050000390B822F932F0895E5E2F0E020812068D7
:10051000208364E170E00E94150D862F972F0097CD
:1005200061F020E030E048E853E1FA013197F1F75B
:100530002F5F3F4F28173907C0F3E5E2F0E08081D5
:100540008F7780830895F894A895833089F084305C
:1005500028F4813041F0823071F514C0843069F0A4
:10056000863049F51CC088E790E00E94840223C0D1
:100570008EE591E00E9484021EC082E593E00E9415
:10058000840219C080E590E00E94840280E29EE42B
:100590000197F1F780E590E00E9484020CC084E6A8
:1005A00090E00E94840288EC9FEA0197F1F78EE5C3
:1005B00091E00E948402789408951F93182F882355
:1005C00071F08091DD01181721F080E091E00E9428
:1005D000F50EE5E2F0E08081806480830DC08091BB
:1005E000DD01882321F08EE091E00E94F50EE5E226
:1005F000F0E080818F7B80831093DD011F9108954F
:100600001F920F920FB60F9211242F933F934F9387
:100610005F936F937F938F939F93AF93BF93EF936A
:10062000FF9380918500209184009091DE01892BB9
:10063000822B09F06DC081E08093DE01A8951DBA80
:10064000789420E030E040E050E0E9E2F0E08081A2
:1006500082FF02C04F5F5F4F2F5F3F4F83E0283E16
:100660003807A9F7483C510508F04DC081E0809358
:10067000840082E08093810080911102882309F038
:100680003CC081E0809311020E94DD02EBE2F0E0C9
:100690008081806180838081886080834A9916C0D0
:1006A00020E030E044EC59E0E9E2F0E02F5F3F4F1A
:1006B000CA010197F1F7808182FD05C081E02C32EB
:1006C0003807A1F707C02C52314020F481E0809315
:1006D000110219C082E0809311028DE191E00E9425
:1006E000F50EEBE2F0E080818F7E80838081886070
:1006F000808386E00E94A30206C089E391E00E9405
:10070000F50E1092110281E08CBB8DBB1092DE01C0
:10071000FF91EF91BF91AF919F918F917F916F91D9
:100720005F914F913F912F910F900FBE0F901F90AF
:1007300018951F93CF93DF93182F84EB0E94C20666
:10074000812F0E94100785EB0E94E906882319F08B
:1007500085EB0E94E9060E942307182F0E942307B9
:10076000382F20E0E901C10FD11D0E9423070E940C
:100770003907DD231CF466E970E007C0CE0165E0AF
:1007800070E00E94150D6B5A7A40862F972FDF91EB
:10079000CF911F910895CF92DF92EF92FF920F9326
:1007A0001F9300D08EE391E0ADB7BEB712969C9335
:1007B0008E9311970E94D90E00D0EDB7FEB73196F7
:1007C0000F2EF5E4EF2EF1E0FF2EF02DF182E08206
:1007D0000F2EF4EECF2EF1E0DF2EF02DD6018D910D
:1007E0009D918D01938382830E94D90EEDB7FEB750
:1007F0003196F182E082D8018D919C91938382831E
:100800000E94D90EEDB7FEB73196F182E082D60193
:1008100014968D919C911597938382830E94D90E93
:10082000EDB7FEB73196F182E082D60116968D9132
:100830009C911797938382830E94D90EEDB7FEB7E0
:100840003196F182E082D60118968D919C9119978C
:10085000938382830E94D90EEDB7FEB73196F18261
:10086000E082D6011A968D919C911B979383828387
:100870000E94D90E0F900F900F900F908AE090E099
:100880000E94EE0E1F910F91FF90EF90DF90CF909E
:1008900008958CE090E09093C5008093C40088E9AF
:1008A0008093C10086E08093C20085E991E061EC0D
:1008B00071E00E94610E789408952F923F924F92BA
:1008C0005F926F927F928F929F92AF92BF92CF92E0
:1008D000DF92EF92FF920F931F93DF93CF9300D09D
:1008E0000F92CDB7DEB780EC84B988E087B988E194
:1008F0008AB98FE385B987EF88B90BE210E087EEFC
:10090000F801808380916400A89529E288E190E055
:100910000FB6F894A895809360000FBE20936000F6
:100920000E9449040E94BB061092D20187E0809386
:10093000B10091E09093700014BC83E085BD90936A
:100940006E001092800010928100109282009093AD
:100950006F0082E0809369009DBB89E491E00E9472
:10096000F50EF8018081806180838081877F80839C
:1009700080E00E94DD02109211027894EE24FF24A0
:10098000AA24BB2410E0FFEFF9830F2EF3E02F2EF3
:10099000F02D3324882499240F2EFBE26F2E772428
:1009A000F02D4091D20140310CF497C1A895C701B8
:1009B000612F70E00E94290D862F972F7C011092E5
:1009C000D201E114F10461F400D022E531E0EDB789
:1009D000FEB7328321830E94D90E0F900F9047C13A
:1009E0002220C1F000D000D0EDB7FEB731968FE5E0
:1009F00091E091838083228213820E94D90E2A94EF
:100A00000F900F900F900F9087E00E9499037C0148
:100A1000AA24BB2400D000D0EDB7FEB731962BE658
:100A200031E031832083F382E2820E94D90E0F905D
:100A30000F900F900F90C7010E94D4010E943702BF
:100A40009B838A838C599F4F24F48CE99FEF9B836F
:100A50008A83C7018C56924067EE7FEF0E94290D72
:100A6000162F072F86E00E9499032C01812F902FCB
:100A70006C01DD2014F4CC24DD24EA81FB81CE1648
:100A8000DF06DCF4CF01880D991D880F991F880FB0
:100A9000991F880F991FB6010E94290D862F972F45
:100AA0004C01F1ED8F16F7E09F0684F00F2EF0ED6C
:100AB0008F2EF7E09F2EF02D09C0C40199200CF471
:100AC00003964C0195948794959487942A813B8151
:100AD000265F3F4F2CF486EF9FEF9B838A8304C0F1
:100AE000EA81FB81FF23FCF42A813B81220F331F23
:100AF0008A819B81880F991F880F991F880F991FE2
:100B0000280F391FC501880F991F8A0D9B1D280FBB
:100B1000391F332314F42D5F3F4F5901B594A79427
:100B2000B594A79428C02FE130E0A29EC001A39EF7
:100B3000900DB29E900D11242A813B81220F331F0C
:100B40004A815B81440F551F440F551F440F551FA9
:100B5000240F351F280F391F332314F4215E3F4F14
:100B60005901B594A794B594A794B594A794B59456
:100B7000A794B594A794B701882777FD8095982FFF
:100B80000E94260C2DEC3CEC4CE45FEB0E94B20C76
:100B900020E030E044EB53E40E948F0B0E94F30B03
:100BA0008B01EDB7FEB73E970FB6F894FEBF0FBEB0
:100BB000EDBF319626E731E0318320832A813B81E6
:100BC00033832283B582A48277836683D186C086ED
:100BD00093868286558644860E94D90E8DB79EB72D
:100BE0000E960FB6F8949EBF0FBE8DBF0A151B055B
:100BF0002CF095EF891691E09906C4F1339400D05A
:100C000000D0EDB7FEB731962DEA31E03183208375
:100C1000328213820E94D90E0F900F900F900F9086
:100C200080911102823041F433E0331601F581E006
:100C30000E94A30233241BC00E94770218161906D3
:100C40008CF452E0531550F483E08093DA0184E091
:100C50000E94A3023324689431F809C083E00E9403
:100C6000A30205C0EA81FB81FF230CF433248091A9
:100C7000DA01882301F1982F91509093DA01809145
:100C80001102813019F4F3E0F093110200D000D08A
:100C9000EDB7FEB731962FEB31E03183208392839D
:100CA00013820E94D90EEE24FF2410E00F900F90C3
:100CB0000F900F9025C080911102833021F0EE2417
:100CC000FF2410E01DC010921102EE24FF24AA247C
:100CD000BB2410E0882499241EC0242F332727FD2D
:100CE00030955981852F90E02817390749F04983BD
:100CF000103130F41F5F87E00E949903E80EF91E5F
:100D0000809111028130A9F0813028F08230A9F061
:100D1000833051F51AC080E00E94DD02F30180812A
:100D2000806180838081877F80831092DA01332401
:100D30001DC0F30180818061808381E00E94DD021B
:100D4000F30180818860808311C080E00E94DD0211
:100D5000F30180818F7E8083808188608083AA24D4
:100D6000BB248824992402C01092110288EA91E6DB
:100D70000197F1F716CEE8EBF0E088E480838AE093
:100D800080830895982FECEBF0E0108284EA808352
:100D900080818823ECF78091B900887F883011F03A
:100DA00081E008959093BB0084E88093BC00ECEB55
:100DB000F0E080818823ECF78091B900982F987F2C
:100DC000983111F480E0089580E0903409F081E0DA
:100DD0000895982F84EA8093BC00ECEBF0E08081CA
:100DE0008823ECF78091B900887F803111F081E091
:100DF00008959093BB0084E88093BC00ECEBF0E096
:100E000080818823ECF78091B900982F987F9831E2
:100E100011F480E0089580E0903409F081E00895B5
:100E20008093BB0084E88093BC00ECEBF0E0808111
:100E30008823ECF78091B90090E0887F883209F030
:100E400091E0892F089584EC8093BC00ECEBF0E0F6
:100E500080818823ECF78091BB00089584E880931B
:100E6000BC00ECEBF0E080818823ECF78091BB00C4
:100E7000089584E98093BC000895CF92DF92EF92A9
:100E8000FF920F931F93CF93DF93182F062F7A01B2
:100E900069010E94C206882321F5802F0E94100755
:100EA000812F81600E94C2068823D9F486010150F7
:100EB000104061F0C0E0D0E00E942307F701EC0F82
:100EC000FD1F80832196C017D107B0F30E942E0723
:100ED000F701EC0DFD1D319780830E94390780E0FA
:100EE00001C081E0DF91CF911F910F91FF90EF90B2
:100EF000DF90CF900895DF92EF92FF920F931F93B0
:100F0000CF93DF93D62E7A0189010E94C2068823EF
:100F1000C1F48D2D0E9410070115110571F0C0E07C
:100F2000D0E0F701EC0FFD1F80810E94100788239D
:100F300041F42196C017D107A0F30E94390780E041
:100F400001C081E0DF91CF911F910F91FF90EF9051
:100F5000DF900895CF92DF92EF92FF920F931F934D
:100F6000CF93DF937B016A0181600E94C2068823D0
:100F700011F081E01AC086010150104061F0C0E01C
:100F8000D0E00E942307F701EC0FFD1F808321961C
:100F9000C017D107B0F30E942E07F701EC0DFD1D1D
:100FA000319780830E94390780E0DF91CF911F91B4
:100FB0000F91FF90EF90DF90CF900895EF92FF9206
:100FC0000F931F93CF93DF937B018A010E94C20688
:100FD0008823A9F40115110571F0C0E0D0E0F701F4
:100FE000EC0FFD1F80810E941007882341F4219699
:100FF000C017D107A0F30E94390780E001C081E04B
:10100000DF91CF911F910F91FF90EF900895A1E193
:10101000B0E0EDE0F8E00C943C0D3C017F876E877A
:101020006A01FC0117821682838181FD03C06FEF84
:101030007FEF6FC39E012F5F3F4F398B288BF301EA
:101040002381EE85FF8523FD859123FF8191FF8715
:10105000EE87882309F45AC3853251F4EE85FF8563
:1010600023FD859123FF8191FF87EE87853229F447
:1010700090E0B3010E94AD0EE2CF982F10E08824DB
:1010800099241032B0F49B3269F09C3228F49032EB
:1010900051F0933271F40BC09D3239F0903349F422
:1010A000116028C01260146025C0186023C0106150
:1010B00021C017FD2AC0892F80538A3078F416FF8B
:1010C00006C0FAE09F9E902C1124980E13C03AE0BF
:1010D000839E802C1124880E10620CC09E3221F455
:1010E00016FD14C3106406C09C3611F4106802C0CB
:1010F000983659F4EE85FF8523FD959123FF919154
:10110000FF87EE87992309F0BCCF892F8554833060
:1011100020F4812F8061905E07C0892F855683302F
:1011200008F09FC1812F8F7E86FD02C076E0972E4A
:101130006FE3F62EF822953619F4F0E4FF2A07C083
:10114000963619F420E8F22A02C091109A94F7FE1C
:101150000AC03BE3391518F45CE3B52E02C0B92C84
:10116000B39427E009C047E0491520F4BB2447E0C9
:10117000942EF7CF292DBB24C60104969D878C871A
:10118000F6016081718182819381AE014F5F5F4F73
:101190000B2D0E94730D6C010981202E332400FF5A
:1011A00004C003FD02C01DE209C0F1FE02C01BE243
:1011B00005C0F2FC02C010E001C010E2C1018C7059
:1011C0009070892BB9F1112311F483E001C084E000
:1011D000881510F088240AC0881AF3FC07C080E242
:1011E00090E0B3010E94AD0E8A94C9F7112329F053
:1011F000812F90E0B3010E94AD0E23FE03C008E6EC
:1012000010E00EC00CE610E00BC0E114F10409F090
:10121000805290E0B3010E94AD0E0F5F1F4F05C0DA
:10122000EF2CFF24F0E1EF22FF24F80184918823C2
:1012300061F714C1F7FE12C0BC0C24FE04C08A8101
:10124000813309F4BA941B141CF0BB24B3942DC051
:10125000F8E0FB1550F538E0B32E27C0F6FC25C0AA
:10126000892D90E08C159D054CF02CEFC2162FEFC8
:10127000D20624F030E8F32A01C09A94992049F06C
:10128000E2E0F0E0EC0FFD1FE90DF11D80818033FD
:10129000A1F3F7FE0AC0B92CB394892D90E0C816CB
:1012A000D90614F0992401C09C18F7FC03C025E06E
:1012B00030E009C01C141D041CF021E030E003C024
:1012C00096012F5F3F4F112311F02F5F3F4F992061
:1012D00029F0892D90E00196280F391F882D90E084
:1012E0002817390714F0882401C0821A4F2C55247E
:1012F000C20189709070892B39F008C080E290E0BB
:10130000B3010E94AD0E8A948820C1F7112329F001
:10131000812F90E0B3010E94AD0E43FE07C008C0CC
:1013200080E390E0B3010E94AD0E8A948820C1F75B
:10133000F7FE46C08601D7FE02C000E010E076014D
:101340000894E11CF11CE01AF10A41E050E04C0F56
:101350005D1FE40EF51E26014B185108892D90E003
:10136000AA24BB24A81AB90A5FEF0F3F150729F476
:101370008EE290E0B3010E94AD0EC016D10634F0AB
:10138000401651061CF4F701808101C080E3015032
:1013900010400894E11CF11C0A151B052CF090E08C
:1013A000B3010E94AD0EE0CF0C151D0539F49A81F2
:1013B000963318F4953311F424FE81E390E04BC08A
:1013C0008A81813309F00F7E90E0B3010E94AD0E57
:1013D0009920A1F08EE290E0B3010E94AD0E12E0E0
:1013E000E1E0F0E0EC0FFD1FE10FF11D1F5F8081D8
:1013F00090E0B3010E94AD0E9A9491F744FC03C0B3
:1014000085E690E002C085E490E0B3010E94AD0E55
:10141000D7FC05C0C114D10441F404FF06C0D09428
:10142000C194D108D3948DE201C08BE290E0B30166
:101430000E94AD0E80E305C08F5F26EF3FEFC20E26
:10144000D31E3AE0C316D104BCF790E0B3010E946A
:10145000AD0EC601C096B3010E94AD0ECC84DD84F2
:1014600052C1933631F0933799F0933509F059C052
:1014700023C0F601808189835E010894A11CB11C00
:1014800022E030E0C20ED31E21E0E22EF12C12C089
:10149000F601A080B18016FD03C06FEF7FEF02C0A0
:1014A000692D70E022E030E0C20ED31EC5010E941B
:1014B000560E7C011F7713C0F601A080B18016FD87
:1014C00003C06FEF7FEF02C0692D70E022E030E0D3
:1014D000C20ED31EC5010E944B0E7C01106813FF83
:1014E00007C01BC080E290E0B3010E94AD0E8A9459
:1014F000882D90E0E816F906A8F30FC0F50117FD56
:10150000859117FF81915F0190E0B3010E94AD0EBC
:1015100081108A940894E108F108E114F10471F74C
:10152000F2C0943611F0993689F517FF08C0F6011C
:10153000208131814281538184E090E00AC0F6012C
:10154000808191819C01442737FD4095542F82E092
:1015500090E0C80ED91E9FE6F92EF12257FF09C070
:1015600050954095309521953F4F4F4F5F4F90E8F4
:10157000F92ACA01B901AE014F5F5F4F2AE030E09E
:101580000E942A0FE82EE889EE1A41C0953721F40F
:101590001F7E2AE030E01CC0197F9F3661F0903733
:1015A00020F4983509F0B2C00FC0903739F0983761
:1015B00009F0ACC004C028E030E00AC0106114FD9E
:1015C000146020E130E004C014FD166020E132E038
:1015D00017FF08C0F601608171818281938144E028
:1015E00050E008C0F60180819181BC0180E090E06C
:1015F00042E050E0C40ED51EAE014F5F5F4F0E9427
:101600002A0FE82E5889E51A8FE7F82EF122F6FE08
:101610000BC08EEFF822E91438F4F4FE07C0F2FC98
:1016200005C09FEEF92202C01E2D01C0192DF4FE47
:101630000DC0FE01EE0DF11D8081803319F4E9EE3D
:10164000FE2208C01F5FF2FE05C003C08F2D867802
:1016500009F01F5F0F2DF3FC14C0F0FE0FC018152A
:1016600010F09E2C0BC09E2C980C911A182D06C0C1
:1016700080E290E0B3010E94AD0E1F5F1815C0F329
:1016800004C0181510F4811A01C0882404FF0FC08B
:1016900080E390E0B3010E94AD0E02FF1DC001FD8A
:1016A00003C088E790E00EC088E590E00BC0802F73
:1016B000867891F001FF02C08BE201C080E2F7FC66
:1016C0008DE290E0B3010E94AD0E06C080E390E091
:1016D000B3010E94AD0E9A94E914C0F3EA94E1E0DC
:1016E000F0E0EC0FFD1FEE0DF11D808190E0B301E5
:1016F0000E94AD0EEE2091F706C080E290E0B301AB
:101700000E94AD0E8A948820C1F799CCF3016681BE
:101710007781CB016196E2E10C94580D5058BB27BC
:10172000AA270ED0E5C0D6D030F0DBD020F031F4BF
:101730009F3F11F41EF4CBC00EF4E095E7FBC1C04F
:10174000E92FE7D080F3BA1762077307840795077C
:1017500018F071F49EF5FFC00EF4E0950B2EBA2F31
:10176000A02D0B01B90190010C01CA01A0011124A7
:10177000FF27591B99F0593F50F4503E68F11A1653
:10178000F040A22F232F342F4427585FF3CF4695E4
:1017900037952795A795F0405395C9F77EF41F1606
:1017A000BA0B620B730B840BBAF09150A1F0FF0FD0
:1017B000BB1F661F771F881FC2F70EC0BA0F621FBC
:1017C000731F841F48F4879577956795B795F795AC
:1017D0009E3F08F0B3CF9395880F08F09927EE0F3E
:1017E00097958795089504D06894B111B5C0089570
:1017F00098D088F09F5790F0B92F9927B751A0F053
:10180000D1F0660F771F881F991F1AF0BA95C9F794
:1018100012C0B13081F09FD0B1E008959CC0672F15
:10182000782F8827B85F39F0B93FCCF38695779544
:101830006795B395D9F73EF490958095709561952D
:101840007F4F8F4F9F4F0895E89409C097FB3EF458
:1018500090958095709561957F4F8F4F9F4F9923FD
:10186000A9F0F92F96E9BB279395F695879577957B
:101870006795B795F111F8CFFAF4BB0F11F460FF3B
:101880001BC06F5F7F4F8F4F9F4F16C0882311F093
:1018900096E911C0772321F09EE8872F762F05C0A7
:1018A000662371F096E8862F70E060E02AF09A9542
:1018B000660F771F881FDAF7880F9695879597F937
:1018C000089597F99F6780E870E060E008959FEFC2
:1018D00080EC089500240A941616170618060906C7
:1018E000089500240A941216130614060506089596
:1018F000092E0394000C11F4882352F0BB0F40F41E
:10190000BF2B11F460FF04C06F5F7F4F8F4F9F4F5D
:10191000089557FD9058440F551F59F05F3F71F0DF
:101920004795880F97FB991F61F09F3F79F0879546
:101930000895121613061406551FF2CF4695F1DFCF
:1019400008C0161617061806991FF1CF869571055F
:10195000610508940895E894BB2766277727CB0193
:1019600097F908950BD0C4CFB5DF28F0BADF18F08F
:10197000952309F0A6CFABCF1124EECFCADFA0F399
:10198000959FD1F3950F50E0551F629FF001729F14
:10199000BB27F00DB11D639FAA27F00DB11DAA1F33
:1019A000649F6627B00DA11D661F829F2227B00D80
:1019B000A11D621F739FB00DA11D621F839FA00D0B
:1019C000611D221F749F3327A00D611D231F849F5B
:1019D000600D211D822F762F6A2F11249F575040B2
:1019E0008AF0E1F088234AF0EE0FFF1FBB1F661F4D
:1019F000771F881F91505040A9F79E3F510570F006
:101A000060CFAACF5F3FECF3983EDCF386957795E5
:101A10006795B795F795E7959F5FC1F7FE2B880F00
:101A2000911D9695879597F90895AA1BBB1B51E1C7
:101A300007C0AA1FBB1FA617B70710F0A61BB70B3E
:101A4000881F991F5A95A9F780959095BC01CD01E3
:101A5000089597FB092E07260AD077FD04D0E5DF0D
:101A600006D000201AF4709561957F4F0895F6F71F
:101A7000909581959F4F08952F923F924F925F923C
:101A80006F927F928F929F92AF92BF92CF92DF928E
:101A9000EF92FF920F931F93CF93DF93CDB7DEB7F3
:101AA000CA1BDB0B0FB6F894DEBF0FBECDBF099487
:101AB0002A88398848885F846E847D848C849B84DE
:101AC000AA84B984C884DF80EE80FD800C811B81EC
:101AD000AA81B981CE0FD11D0FB6F894DEBF0FBE1B
:101AE000CDBFED010895283008F027E03327DA0153
:101AF000990F311D87FD916000966105710539F4DC
:101B000032602E5F3D9330E32A95E1F708959F3FC1
:101B100030F080387105610509F03C5F3C5F3D9312
:101B2000913008F08068911DDF93CF931F930F933E
:101B3000FF92EF92192F987F9695E92F969596959B
:101B4000E90FFF27E653FF4F99273327EE24FF24A1
:101B5000A701E70105900894079428F4360FE71EC3
:101B6000F81E491F511D660F771F881F991F069485
:101B7000A1F70590079428F4E70EF81E491F561F99
:101B8000C11D770F881F991F661F0694A1F7059046
:101B9000079428F4F80E491F561FC71FD11D880F40
:101BA000991F661F771F0694A1F70590079420F4EC
:101BB000490F561FC71FD81F990F661F771F881F11
:101BC0000694A9F784911095177041F0D695C795A2
:101BD00057954795F794E7941A95C1F7E0E7F0E039
:101BE00068941590159135916591959105907FE2D6
:101BF0007395E118F10A430B560BC90BD009C0F7D6
:101C0000E10CF11E431F561FC91FD01D7EF4703317
:101C100011F48A95E6CFE894015030F0080F0AF4E9
:101C20000027021708F4202F2395022F7A3328F07B
:101C300079E37D932A95E9F710C07D932A9589F67B
:101C4000069497956795379517951794E118F10ABB
:101C5000430B560BC90BD00998F023957E917395D1
:101C60007A3308F070E37C932013B8F77E917061AB
:101C70007D9330F0839571E37D9370E32A95E1F7CE
:101C80001124EF90FF900F911F91CF91DF91992731
:101C900087FD90950895FC010590615070400110FA
:101CA000D8F7809590958E0F9F1F0895FC01615085
:101CB000704001900110D8F7809590958E0F9F1F6E
:101CC00008950F931F93CF93DF938C01EB0100973F
:101CD00031F46115710519F420E030E038C081E07D
:101CE00090E06EE070E00E94880FFC019C0100977C
:101CF00071F180E88383209771F0D387C28781E8F0
:101D000083838091340290913502892B21F4F093E2
:101D10003502E093340201151105C9F011870087DF
:101D20008381826083838091360290913702892B70
:101D300071F4F0933702E09336028091380290916B
:101D40003902892B21F4F0933902E0933802C9015A
:101D5000DF91CF911F910F9108950F931F93CF9310
:101D6000DF938C01EB018B8181FF1BC082FF0DC0D3
:101D70002E813F818C819D812817390764F4E88189
:101D8000F9810193F983E88306C0E885F985802FFE
:101D90000995892B31F48E819F8101969F838E83D3
:101DA00002C00FEF1FEFC801DF91CF911F910F917C
:101DB0000895A0E0B0E0EFEDFEE00C944C0DFE01C4
:101DC0003596619171918091360290913702AF0101
:101DD0000E9407082096E2E00C94680D609136029C
:101DE000709137020E94AD0E08950F931F93CF9309
:101DF000DF938C01E0913602F0913702838181FFFD
:101E000021C0C0E0D0E00DC0E0913602F091370271
:101E100020853185BF01F9010995892B11F0CFEF9C
:101E2000DFEFF80181918F01882371F7E09136028D
:101E3000F0913702208531858AE0BF01F9010995CB
:101E4000892B11F0CFEFDFEFCE01DF91CF911F9102
:101E50000F910895FA01AA27283051F1203181F11C
:101E6000E8946F936E7F6E5F7F4F8F4F9F4FAF4FA2
:101E7000B1E03ED0B4E03CD0670F781F891F9A1FB5
:101E8000A11D680F791F8A1F911DA11D6A0F711D69
:101E9000811D911DA11D20D009F468943F912AE075
:101EA000269F11243019305D3193DEF6CF0108955D
:101EB000462F4770405D4193B3E00FD0C9F7F6CF8E
:101EC000462F4F70405D4A3318F0495D31FD405256
:101ED000419302D0A9F7EACFB4E0A69597958795EC
:101EE00077956795BA95C9F70097610571050895CB
:101EF0009B01AC010A2E0694579547953795279577
:101F0000BA95C9F7620F731F841F951FA01D08950E
:101F10000F931F93CF93DF93689F8001699F100DEC
:101F2000789F100D1124C8010E94A40FEC010097A6
:101F300029F060E070E0A8010E94A910CE01DF91B5
:101F4000CF911F910F910895CF93DF93BC01823001
:101F5000910510F462E070E0A0913C02B0913D0266
:101F6000ED01E0E0F0E040E050E021C0888199819F
:101F70008617970769F48A819B81309719F09383BC
:101F8000828304C090933D0280933C02FE0134C0E2
:101F90006817790738F44115510519F0841795072A
:101FA00008F4AC01FE018A819B819C01E901209724
:101FB000E9F641155105A9F1CA01861B970B049753
:101FC00008F4BA01E0E0F0E02AC08D919C911197ED
:101FD00084179507F9F46417750781F412968D91AB
:101FE0009C911397309719F09383828304C0909348
:101FF0003D0280933C02FD0132964FC0CA01861B10
:10200000970BFD01E80FF91F6193719302978D9370
:102010009C9343C0FD01828193819C01D90110975B
:10202000A1F680913A0290913B02892B41F4809174
:10203000D5019091D60190933B0280933A02409152
:10204000D7015091D8014115510541F44DB75EB704
:102050008091D3019091D401481B590B20913A02F1
:1020600030913B0224173507B0F4CA01821B930B51
:102070008617970780F0AB014E5F5F4F8417950777
:1020800050F0420F531F50933B0240933A02F90124
:102090006193719302C0E0E0F0E0CF01DF91CF9156
:1020A0000895CF93DF93009709F450C0EC01229775
:1020B0001B821A82A0913C02B0913D02109709F157
:1020C00040E050E0AC17BD0708F1BB83AA83FE01D6
:1020D00021913191E20FF31FAE17BF0779F48D9173
:1020E0009C911197280F391F2E5F3F4F398328830A
:1020F00012968D919C9113979B838A83411551056C
:1021000071F4D0933D02C0933C0220C012968D9191
:102110009C911397AD01009711F0DC01D3CFFA0128
:10212000D383C28321913191E20FF31FCE17DF07D2
:1021300069F488819981280F391F2E5F3F4FFA017A
:10214000318320838A819B8193838283DF91CF9126
:102150000895DC0101C06D9341505040E0F70895AF
:04216000F894FFCF21
:102164003E3E3E2052656C616973204F4E003E3EF8
:102174003E2052656C616973204F46460054656D7C
:1021840070657261747572652050726F74656374E2
:10219400696F6E204F666621000A78587800417294
:1021A4007261793A00202569000A0A5374617274D5
:1021B4000A004572726F722054656D703D30005391
:1021C400746172747570202569200054656D703ACD
:1021D4002025692C2000736C5F7261773A20256991
:1021E4002C20736C3A2025692C20735F6D61783A3A
:1021F4002025692C20663A2025692C20696E743AC2
:1022040020256920745F613A2025690A004F6E2DEC
:10221400436F756E7465723A2025693B200A004F3E
:1022240066662D436F756E7465723A2025693B208E
:0A2234000A00F420003E0200000042
:00000001FF
